{
	"crowdfunding/Funding.sol": {
		"funding": {
			"abi": [
				{
					"inputs": [
						{
							"internalType": "uint256",
							"name": "_target",
							"type": "uint256"
						},
						{
							"internalType": "uint256",
							"name": "_deadline",
							"type": "uint256"
						}
					],
					"stateMutability": "nonpayable",
					"type": "constructor"
				},
				{
					"inputs": [
						{
							"internalType": "address",
							"name": "",
							"type": "address"
						}
					],
					"name": "contributors",
					"outputs": [
						{
							"internalType": "uint256",
							"name": "",
							"type": "uint256"
						}
					],
					"stateMutability": "view",
					"type": "function"
				},
				{
					"inputs": [
						{
							"internalType": "string",
							"name": "_description",
							"type": "string"
						},
						{
							"internalType": "address payable",
							"name": "_recipient",
							"type": "address"
						},
						{
							"internalType": "uint256",
							"name": "_value",
							"type": "uint256"
						}
					],
					"name": "createRequests",
					"outputs": [],
					"stateMutability": "nonpayable",
					"type": "function"
				},
				{
					"inputs": [],
					"name": "deadline",
					"outputs": [
						{
							"internalType": "uint256",
							"name": "",
							"type": "uint256"
						}
					],
					"stateMutability": "view",
					"type": "function"
				},
				{
					"inputs": [],
					"name": "getContractBalance",
					"outputs": [
						{
							"internalType": "uint256",
							"name": "",
							"type": "uint256"
						}
					],
					"stateMutability": "view",
					"type": "function"
				},
				{
					"inputs": [
						{
							"internalType": "uint256",
							"name": "_requestNo",
							"type": "uint256"
						}
					],
					"name": "makePayment",
					"outputs": [],
					"stateMutability": "nonpayable",
					"type": "function"
				},
				{
					"inputs": [],
					"name": "manager",
					"outputs": [
						{
							"internalType": "address",
							"name": "",
							"type": "address"
						}
					],
					"stateMutability": "view",
					"type": "function"
				},
				{
					"inputs": [],
					"name": "minimumContribution",
					"outputs": [
						{
							"internalType": "uint256",
							"name": "",
							"type": "uint256"
						}
					],
					"stateMutability": "view",
					"type": "function"
				},
				{
					"inputs": [],
					"name": "noofContributors",
					"outputs": [
						{
							"internalType": "uint256",
							"name": "",
							"type": "uint256"
						}
					],
					"stateMutability": "view",
					"type": "function"
				},
				{
					"inputs": [],
					"name": "numRequests",
					"outputs": [
						{
							"internalType": "uint256",
							"name": "",
							"type": "uint256"
						}
					],
					"stateMutability": "view",
					"type": "function"
				},
				{
					"inputs": [],
					"name": "raisedAmount",
					"outputs": [
						{
							"internalType": "uint256",
							"name": "",
							"type": "uint256"
						}
					],
					"stateMutability": "view",
					"type": "function"
				},
				{
					"inputs": [],
					"name": "refundMoney",
					"outputs": [],
					"stateMutability": "nonpayable",
					"type": "function"
				},
				{
					"inputs": [
						{
							"internalType": "uint256",
							"name": "",
							"type": "uint256"
						}
					],
					"name": "requests",
					"outputs": [
						{
							"internalType": "string",
							"name": "description",
							"type": "string"
						},
						{
							"internalType": "address payable",
							"name": "recipient",
							"type": "address"
						},
						{
							"internalType": "uint256",
							"name": "value",
							"type": "uint256"
						},
						{
							"internalType": "bool",
							"name": "completed",
							"type": "bool"
						},
						{
							"internalType": "uint256",
							"name": "noOfVote",
							"type": "uint256"
						}
					],
					"stateMutability": "view",
					"type": "function"
				},
				{
					"inputs": [],
					"name": "sendEth",
					"outputs": [],
					"stateMutability": "payable",
					"type": "function"
				},
				{
					"inputs": [],
					"name": "target",
					"outputs": [
						{
							"internalType": "uint256",
							"name": "",
							"type": "uint256"
						}
					],
					"stateMutability": "view",
					"type": "function"
				},
				{
					"inputs": [
						{
							"internalType": "uint256",
							"name": "_requestNo",
							"type": "uint256"
						}
					],
					"name": "voteRequest",
					"outputs": [],
					"stateMutability": "nonpayable",
					"type": "function"
				}
			],
			"devdoc": {
				"kind": "dev",
				"methods": {},
				"version": 1
			},
			"evm": {
				"assembly": "    /* \"crowdfunding/Funding.sol\":60:2903  contract funding {... */\n  mstore(0x40, 0x80)\n    /* \"crowdfunding/Funding.sol\":602:787  constructor(uint _target,uint _deadline){... */\n  callvalue\n  dup1\n  iszero\n  tag_1\n  jumpi\n  0x00\n  dup1\n  revert\ntag_1:\n  pop\n  mload(0x40)\n  sub(codesize, bytecodeSize)\n  dup1\n  bytecodeSize\n  dup4\n  codecopy\n  dup2\n  dup2\n  add\n  0x40\n  mstore\n  dup2\n  add\n  swap1\n  tag_2\n  swap2\n  swap1\n  tag_3\n  jump\t// in\ntag_2:\n    /* \"crowdfunding/Funding.sol\":660:667  _target */\n  dup2\n    /* \"crowdfunding/Funding.sol\":653:659  target */\n  0x04\n    /* \"crowdfunding/Funding.sol\":653:667  target=_target */\n  dup2\n  swap1\n  sstore\n  pop\n    /* \"crowdfunding/Funding.sol\":703:712  _deadline */\n  dup1\n    /* \"crowdfunding/Funding.sol\":687:702  block.timestamp */\n  timestamp\n    /* \"crowdfunding/Funding.sol\":687:712  block.timestamp+_deadline */\n  tag_6\n  swap2\n  swap1\n  tag_7\n  jump\t// in\ntag_6:\n    /* \"crowdfunding/Funding.sol\":678:686  deadline */\n  0x03\n    /* \"crowdfunding/Funding.sol\":678:712  deadline=block.timestamp+_deadline */\n  dup2\n  swap1\n  sstore\n  pop\n    /* \"crowdfunding/Funding.sol\":743:750  100 wei */\n  0x64\n    /* \"crowdfunding/Funding.sol\":723:742  minimumContribution */\n  0x02\n    /* \"crowdfunding/Funding.sol\":723:750  minimumContribution=100 wei */\n  dup2\n  swap1\n  sstore\n  pop\n    /* \"crowdfunding/Funding.sol\":769:779  msg.sender */\n  caller\n    /* \"crowdfunding/Funding.sol\":761:768  manager */\n  0x01\n  0x00\n    /* \"crowdfunding/Funding.sol\":761:779  manager=msg.sender */\n  0x0100\n  exp\n  dup2\n  sload\n  dup2\n  0xffffffffffffffffffffffffffffffffffffffff\n  mul\n  not\n  and\n  swap1\n  dup4\n  0xffffffffffffffffffffffffffffffffffffffff\n  and\n  mul\n  or\n  swap1\n  sstore\n  pop\n    /* \"crowdfunding/Funding.sol\":602:787  constructor(uint _target,uint _deadline){... */\n  pop\n  pop\n    /* \"crowdfunding/Funding.sol\":60:2903  contract funding {... */\n  jump(tag_8)\n    /* \"#utility.yul\":88:205   */\ntag_10:\n    /* \"#utility.yul\":197:198   */\n  0x00\n    /* \"#utility.yul\":194:195   */\n  dup1\n    /* \"#utility.yul\":187:199   */\n  revert\n    /* \"#utility.yul\":334:411   */\ntag_12:\n    /* \"#utility.yul\":371:378   */\n  0x00\n    /* \"#utility.yul\":400:405   */\n  dup2\n    /* \"#utility.yul\":389:405   */\n  swap1\n  pop\n    /* \"#utility.yul\":334:411   */\n  swap2\n  swap1\n  pop\n  jump\t// out\n    /* \"#utility.yul\":417:539   */\ntag_13:\n    /* \"#utility.yul\":490:514   */\n  tag_22\n    /* \"#utility.yul\":508:513   */\n  dup2\n    /* \"#utility.yul\":490:514   */\n  tag_12\n  jump\t// in\ntag_22:\n    /* \"#utility.yul\":483:488   */\n  dup2\n    /* \"#utility.yul\":480:515   */\n  eq\n    /* \"#utility.yul\":470:533   */\n  tag_23\n  jumpi\n    /* \"#utility.yul\":529:530   */\n  0x00\n    /* \"#utility.yul\":526:527   */\n  dup1\n    /* \"#utility.yul\":519:531   */\n  revert\n    /* \"#utility.yul\":470:533   */\ntag_23:\n    /* \"#utility.yul\":417:539   */\n  pop\n  jump\t// out\n    /* \"#utility.yul\":545:688   */\ntag_14:\n    /* \"#utility.yul\":602:607   */\n  0x00\n    /* \"#utility.yul\":633:639   */\n  dup2\n    /* \"#utility.yul\":627:640   */\n  mload\n    /* \"#utility.yul\":618:640   */\n  swap1\n  pop\n    /* \"#utility.yul\":649:682   */\n  tag_25\n    /* \"#utility.yul\":676:681   */\n  dup2\n    /* \"#utility.yul\":649:682   */\n  tag_13\n  jump\t// in\ntag_25:\n    /* \"#utility.yul\":545:688   */\n  swap3\n  swap2\n  pop\n  pop\n  jump\t// out\n    /* \"#utility.yul\":694:1201   */\ntag_3:\n    /* \"#utility.yul\":773:779   */\n  0x00\n    /* \"#utility.yul\":781:787   */\n  dup1\n    /* \"#utility.yul\":830:832   */\n  0x40\n    /* \"#utility.yul\":818:827   */\n  dup4\n    /* \"#utility.yul\":809:816   */\n  dup6\n    /* \"#utility.yul\":805:828   */\n  sub\n    /* \"#utility.yul\":801:833   */\n  slt\n    /* \"#utility.yul\":798:917   */\n  iszero\n  tag_27\n  jumpi\n    /* \"#utility.yul\":836:915   */\n  tag_28\n  tag_10\n  jump\t// in\ntag_28:\n    /* \"#utility.yul\":798:917   */\ntag_27:\n    /* \"#utility.yul\":956:957   */\n  0x00\n    /* \"#utility.yul\":981:1045   */\n  tag_29\n    /* \"#utility.yul\":1037:1044   */\n  dup6\n    /* \"#utility.yul\":1028:1034   */\n  dup3\n    /* \"#utility.yul\":1017:1026   */\n  dup7\n    /* \"#utility.yul\":1013:1035   */\n  add\n    /* \"#utility.yul\":981:1045   */\n  tag_14\n  jump\t// in\ntag_29:\n    /* \"#utility.yul\":971:1045   */\n  swap3\n  pop\n    /* \"#utility.yul\":927:1055   */\n  pop\n    /* \"#utility.yul\":1094:1096   */\n  0x20\n    /* \"#utility.yul\":1120:1184   */\n  tag_30\n    /* \"#utility.yul\":1176:1183   */\n  dup6\n    /* \"#utility.yul\":1167:1173   */\n  dup3\n    /* \"#utility.yul\":1156:1165   */\n  dup7\n    /* \"#utility.yul\":1152:1174   */\n  add\n    /* \"#utility.yul\":1120:1184   */\n  tag_14\n  jump\t// in\ntag_30:\n    /* \"#utility.yul\":1110:1184   */\n  swap2\n  pop\n    /* \"#utility.yul\":1065:1194   */\n  pop\n    /* \"#utility.yul\":694:1201   */\n  swap3\n  pop\n  swap3\n  swap1\n  pop\n  jump\t// out\n    /* \"#utility.yul\":1207:1387   */\ntag_15:\n    /* \"#utility.yul\":1255:1332   */\n  0x4e487b7100000000000000000000000000000000000000000000000000000000\n    /* \"#utility.yul\":1252:1253   */\n  0x00\n    /* \"#utility.yul\":1245:1333   */\n  mstore\n    /* \"#utility.yul\":1352:1356   */\n  0x11\n    /* \"#utility.yul\":1349:1350   */\n  0x04\n    /* \"#utility.yul\":1342:1357   */\n  mstore\n    /* \"#utility.yul\":1376:1380   */\n  0x24\n    /* \"#utility.yul\":1373:1374   */\n  0x00\n    /* \"#utility.yul\":1366:1381   */\n  revert\n    /* \"#utility.yul\":1393:1584   */\ntag_7:\n    /* \"#utility.yul\":1433:1436   */\n  0x00\n    /* \"#utility.yul\":1452:1472   */\n  tag_33\n    /* \"#utility.yul\":1470:1471   */\n  dup3\n    /* \"#utility.yul\":1452:1472   */\n  tag_12\n  jump\t// in\ntag_33:\n    /* \"#utility.yul\":1447:1472   */\n  swap2\n  pop\n    /* \"#utility.yul\":1486:1506   */\n  tag_34\n    /* \"#utility.yul\":1504:1505   */\n  dup4\n    /* \"#utility.yul\":1486:1506   */\n  tag_12\n  jump\t// in\ntag_34:\n    /* \"#utility.yul\":1481:1506   */\n  swap3\n  pop\n    /* \"#utility.yul\":1529:1530   */\n  dup3\n    /* \"#utility.yul\":1526:1527   */\n  dup3\n    /* \"#utility.yul\":1522:1531   */\n  add\n    /* \"#utility.yul\":1515:1531   */\n  swap1\n  pop\n    /* \"#utility.yul\":1550:1553   */\n  dup1\n    /* \"#utility.yul\":1547:1548   */\n  dup3\n    /* \"#utility.yul\":1544:1554   */\n  gt\n    /* \"#utility.yul\":1541:1577   */\n  iszero\n  tag_35\n  jumpi\n    /* \"#utility.yul\":1557:1575   */\n  tag_36\n  tag_15\n  jump\t// in\ntag_36:\n    /* \"#utility.yul\":1541:1577   */\ntag_35:\n    /* \"#utility.yul\":1393:1584   */\n  swap3\n  swap2\n  pop\n  pop\n  jump\t// out\n    /* \"crowdfunding/Funding.sol\":60:2903  contract funding {... */\ntag_8:\n  dataSize(sub_0)\n  dup1\n  dataOffset(sub_0)\n  0x00\n  codecopy\n  0x00\n  return\nstop\n\nsub_0: assembly {\n        /* \"crowdfunding/Funding.sol\":60:2903  contract funding {... */\n      mstore(0x40, 0x80)\n      jumpi(tag_1, lt(calldatasize, 0x04))\n      shr(0xe0, calldataload(0x00))\n      dup1\n      0x5114cb52\n      gt\n      tag_17\n      jumpi\n      dup1\n      0x9fb42b1f\n      gt\n      tag_18\n      jumpi\n      dup1\n      0x9fb42b1f\n      eq\n      tag_13\n      jumpi\n      dup1\n      0xc59ee1dc\n      eq\n      tag_14\n      jumpi\n      dup1\n      0xd4b83992\n      eq\n      tag_15\n      jumpi\n      dup1\n      0xea31db13\n      eq\n      tag_16\n      jumpi\n      jump(tag_1)\n    tag_18:\n      dup1\n      0x5114cb52\n      eq\n      tag_9\n      jumpi\n      dup1\n      0x6f9fb98a\n      eq\n      tag_10\n      jumpi\n      dup1\n      0x81d12c58\n      eq\n      tag_11\n      jumpi\n      dup1\n      0x937e09b1\n      eq\n      tag_12\n      jumpi\n      jump(tag_1)\n    tag_17:\n      dup1\n      0x39cb69fc\n      gt\n      tag_19\n      jumpi\n      dup1\n      0x39cb69fc\n      eq\n      tag_5\n      jumpi\n      dup1\n      0x3eb7647b\n      eq\n      tag_6\n      jumpi\n      dup1\n      0x481c6a75\n      eq\n      tag_7\n      jumpi\n      dup1\n      0x4cb6f4a5\n      eq\n      tag_8\n      jumpi\n      jump(tag_1)\n    tag_19:\n      dup1\n      0x06e99fef\n      eq\n      tag_2\n      jumpi\n      dup1\n      0x1f6d4942\n      eq\n      tag_3\n      jumpi\n      dup1\n      0x29dcb0cf\n      eq\n      tag_4\n      jumpi\n    tag_1:\n      0x00\n      dup1\n      revert\n        /* \"crowdfunding/Funding.sol\":795:1159  function sendEth() public payable {... */\n    tag_2:\n      tag_20\n      tag_21\n      jump\t// in\n    tag_20:\n      stop\n        /* \"crowdfunding/Funding.sol\":84:127  mapping (address=>uint) public contributors */\n    tag_3:\n      callvalue\n      dup1\n      iszero\n      tag_22\n      jumpi\n      0x00\n      dup1\n      revert\n    tag_22:\n      pop\n      tag_23\n      0x04\n      dup1\n      calldatasize\n      sub\n      dup2\n      add\n      swap1\n      tag_24\n      swap2\n      swap1\n      tag_25\n      jump\t// in\n    tag_24:\n      tag_26\n      jump\t// in\n    tag_23:\n      mload(0x40)\n      tag_27\n      swap2\n      swap1\n      tag_28\n      jump\t// in\n    tag_27:\n      mload(0x40)\n      dup1\n      swap2\n      sub\n      swap1\n      return\n        /* \"crowdfunding/Funding.sol\":201:221  uint public deadline */\n    tag_4:\n      callvalue\n      dup1\n      iszero\n      tag_29\n      jumpi\n      0x00\n      dup1\n      revert\n    tag_29:\n      pop\n      tag_30\n      tag_31\n      jump\t// in\n    tag_30:\n      mload(0x40)\n      tag_32\n      swap2\n      swap1\n      tag_28\n      jump\t// in\n    tag_32:\n      mload(0x40)\n      dup1\n      swap2\n      sub\n      swap1\n      return\n        /* \"crowdfunding/Funding.sol\":284:312  uint public noofContributors */\n    tag_5:\n      callvalue\n      dup1\n      iszero\n      tag_33\n      jumpi\n      0x00\n      dup1\n      revert\n    tag_33:\n      pop\n      tag_34\n      tag_35\n      jump\t// in\n    tag_34:\n      mload(0x40)\n      tag_36\n      swap2\n      swap1\n      tag_28\n      jump\t// in\n    tag_36:\n      mload(0x40)\n      dup1\n      swap2\n      sub\n      swap1\n      return\n        /* \"crowdfunding/Funding.sol\":1718:2111  function createRequests(string memory _description,address payable _recipient,uint _value) public onlyManager{... */\n    tag_6:\n      callvalue\n      dup1\n      iszero\n      tag_37\n      jumpi\n      0x00\n      dup1\n      revert\n    tag_37:\n      pop\n      tag_38\n      0x04\n      dup1\n      calldatasize\n      sub\n      dup2\n      add\n      swap1\n      tag_39\n      swap2\n      swap1\n      tag_40\n      jump\t// in\n    tag_39:\n      tag_41\n      jump\t// in\n    tag_38:\n      stop\n        /* \"crowdfunding/Funding.sol\":134:156  address public manager */\n    tag_7:\n      callvalue\n      dup1\n      iszero\n      tag_42\n      jumpi\n      0x00\n      dup1\n      revert\n    tag_42:\n      pop\n      tag_43\n      tag_44\n      jump\t// in\n    tag_43:\n      mload(0x40)\n      tag_45\n      swap2\n      swap1\n      tag_46\n      jump\t// in\n    tag_45:\n      mload(0x40)\n      dup1\n      swap2\n      sub\n      swap1\n      return\n        /* \"crowdfunding/Funding.sol\":2117:2464  function voteRequest(uint _requestNo) public {... */\n    tag_8:\n      callvalue\n      dup1\n      iszero\n      tag_47\n      jumpi\n      0x00\n      dup1\n      revert\n    tag_47:\n      pop\n      tag_48\n      0x04\n      dup1\n      calldatasize\n      sub\n      dup2\n      add\n      swap1\n      tag_49\n      swap2\n      swap1\n      tag_50\n      jump\t// in\n    tag_49:\n      tag_51\n      jump\t// in\n    tag_48:\n      stop\n        /* \"crowdfunding/Funding.sol\":2472:2900  function makePayment(uint _requestNo) public onlyManager{... */\n    tag_9:\n      callvalue\n      dup1\n      iszero\n      tag_52\n      jumpi\n      0x00\n      dup1\n      revert\n    tag_52:\n      pop\n      tag_53\n      0x04\n      dup1\n      calldatasize\n      sub\n      dup2\n      add\n      swap1\n      tag_54\n      swap2\n      swap1\n      tag_50\n      jump\t// in\n    tag_54:\n      tag_55\n      jump\t// in\n    tag_53:\n      stop\n        /* \"crowdfunding/Funding.sol\":1167:1270  function getContractBalance() public view returns (uint){... */\n    tag_10:\n      callvalue\n      dup1\n      iszero\n      tag_56\n      jumpi\n      0x00\n      dup1\n      revert\n    tag_56:\n      pop\n      tag_57\n      tag_58\n      jump\t// in\n    tag_57:\n      mload(0x40)\n      tag_59\n      swap2\n      swap1\n      tag_28\n      jump\t// in\n    tag_59:\n      mload(0x40)\n      dup1\n      swap2\n      sub\n      swap1\n      return\n        /* \"crowdfunding/Funding.sol\":525:563  mapping(uint=>Request) public requests */\n    tag_11:\n      callvalue\n      dup1\n      iszero\n      tag_60\n      jumpi\n      0x00\n      dup1\n      revert\n    tag_60:\n      pop\n      tag_61\n      0x04\n      dup1\n      calldatasize\n      sub\n      dup2\n      add\n      swap1\n      tag_62\n      swap2\n      swap1\n      tag_50\n      jump\t// in\n    tag_62:\n      tag_63\n      jump\t// in\n    tag_61:\n      mload(0x40)\n      tag_64\n      swap6\n      swap5\n      swap4\n      swap3\n      swap2\n      swap1\n      tag_65\n      jump\t// in\n    tag_64:\n      mload(0x40)\n      dup1\n      swap2\n      sub\n      swap1\n      return\n        /* \"crowdfunding/Funding.sol\":163:194  uint public minimumContribution */\n    tag_12:\n      callvalue\n      dup1\n      iszero\n      tag_66\n      jumpi\n      0x00\n      dup1\n      revert\n    tag_66:\n      pop\n      tag_67\n      tag_68\n      jump\t// in\n    tag_67:\n      mload(0x40)\n      tag_69\n      swap2\n      swap1\n      tag_28\n      jump\t// in\n    tag_69:\n      mload(0x40)\n      dup1\n      swap2\n      sub\n      swap1\n      return\n        /* \"crowdfunding/Funding.sol\":570:593  uint public numRequests */\n    tag_13:\n      callvalue\n      dup1\n      iszero\n      tag_70\n      jumpi\n      0x00\n      dup1\n      revert\n    tag_70:\n      pop\n      tag_71\n      tag_72\n      jump\t// in\n    tag_71:\n      mload(0x40)\n      tag_73\n      swap2\n      swap1\n      tag_28\n      jump\t// in\n    tag_73:\n      mload(0x40)\n      dup1\n      swap2\n      sub\n      swap1\n      return\n        /* \"crowdfunding/Funding.sol\":253:277  uint public raisedAmount */\n    tag_14:\n      callvalue\n      dup1\n      iszero\n      tag_74\n      jumpi\n      0x00\n      dup1\n      revert\n    tag_74:\n      pop\n      tag_75\n      tag_76\n      jump\t// in\n    tag_75:\n      mload(0x40)\n      tag_77\n      swap2\n      swap1\n      tag_28\n      jump\t// in\n    tag_77:\n      mload(0x40)\n      dup1\n      swap2\n      sub\n      swap1\n      return\n        /* \"crowdfunding/Funding.sol\":228:246  uint public target */\n    tag_15:\n      callvalue\n      dup1\n      iszero\n      tag_78\n      jumpi\n      0x00\n      dup1\n      revert\n    tag_78:\n      pop\n      tag_79\n      tag_80\n      jump\t// in\n    tag_79:\n      mload(0x40)\n      tag_81\n      swap2\n      swap1\n      tag_28\n      jump\t// in\n    tag_81:\n      mload(0x40)\n      dup1\n      swap2\n      sub\n      swap1\n      return\n        /* \"crowdfunding/Funding.sol\":1278:1585  function refundMoney() public {... */\n    tag_16:\n      callvalue\n      dup1\n      iszero\n      tag_82\n      jumpi\n      0x00\n      dup1\n      revert\n    tag_82:\n      pop\n      tag_83\n      tag_84\n      jump\t// in\n    tag_83:\n      stop\n        /* \"crowdfunding/Funding.sol\":795:1159  function sendEth() public payable {... */\n    tag_21:\n        /* \"crowdfunding/Funding.sol\":864:872  deadline */\n      sload(0x03)\n        /* \"crowdfunding/Funding.sol\":848:863  block.timestamp */\n      timestamp\n        /* \"crowdfunding/Funding.sol\":848:872  block.timestamp<deadline */\n      lt\n        /* \"crowdfunding/Funding.sol\":840:899  require(block.timestamp<deadline,\"Time limit has exceeded\") */\n      tag_86\n      jumpi\n      mload(0x40)\n      0x08c379a000000000000000000000000000000000000000000000000000000000\n      dup2\n      mstore\n      0x04\n      add\n      tag_87\n      swap1\n      tag_88\n      jump\t// in\n    tag_87:\n      mload(0x40)\n      dup1\n      swap2\n      sub\n      swap1\n      revert\n    tag_86:\n        /* \"crowdfunding/Funding.sol\":931:950  minimumContribution */\n      sload(0x02)\n        /* \"crowdfunding/Funding.sol\":918:927  msg.value */\n      callvalue\n        /* \"crowdfunding/Funding.sol\":918:950  msg.value >= minimumContribution */\n      lt\n      iszero\n        /* \"crowdfunding/Funding.sol\":910:985  require(msg.value >= minimumContribution,\"Minimum contribution is not met\") */\n      tag_89\n      jumpi\n      mload(0x40)\n      0x08c379a000000000000000000000000000000000000000000000000000000000\n      dup2\n      mstore\n      0x04\n      add\n      tag_90\n      swap1\n      tag_91\n      jump\t// in\n    tag_90:\n      mload(0x40)\n      dup1\n      swap2\n      sub\n      swap1\n      revert\n    tag_89:\n        /* \"crowdfunding/Funding.sol\":1025:1026  0 */\n      0x00\n        /* \"crowdfunding/Funding.sol\":999:1011  contributors */\n      dup1\n        /* \"crowdfunding/Funding.sol\":999:1023  contributors[msg.sender] */\n      0x00\n        /* \"crowdfunding/Funding.sol\":1012:1022  msg.sender */\n      caller\n        /* \"crowdfunding/Funding.sol\":999:1023  contributors[msg.sender] */\n      0xffffffffffffffffffffffffffffffffffffffff\n      and\n      0xffffffffffffffffffffffffffffffffffffffff\n      and\n      dup2\n      mstore\n      0x20\n      add\n      swap1\n      dup2\n      mstore\n      0x20\n      add\n      0x00\n      keccak256\n      sload\n        /* \"crowdfunding/Funding.sol\":999:1026  contributors[msg.sender]==0 */\n      sub\n        /* \"crowdfunding/Funding.sol\":996:1072  if(contributors[msg.sender]==0){... */\n      tag_92\n      jumpi\n        /* \"crowdfunding/Funding.sol\":1042:1058  noofContributors */\n      0x06\n      0x00\n        /* \"crowdfunding/Funding.sol\":1042:1060  noofContributors++ */\n      dup2\n      sload\n      dup1\n      swap3\n      swap2\n      swap1\n      tag_93\n      swap1\n      tag_94\n      jump\t// in\n    tag_93:\n      swap2\n      swap1\n      pop\n      sstore\n      pop\n        /* \"crowdfunding/Funding.sol\":996:1072  if(contributors[msg.sender]==0){... */\n    tag_92:\n        /* \"crowdfunding/Funding.sol\":1108:1117  msg.value */\n      callvalue\n        /* \"crowdfunding/Funding.sol\":1082:1094  contributors */\n      0x00\n        /* \"crowdfunding/Funding.sol\":1082:1106  contributors[msg.sender] */\n      dup1\n        /* \"crowdfunding/Funding.sol\":1095:1105  msg.sender */\n      caller\n        /* \"crowdfunding/Funding.sol\":1082:1106  contributors[msg.sender] */\n      0xffffffffffffffffffffffffffffffffffffffff\n      and\n      0xffffffffffffffffffffffffffffffffffffffff\n      and\n      dup2\n      mstore\n      0x20\n      add\n      swap1\n      dup2\n      mstore\n      0x20\n      add\n      0x00\n      keccak256\n      0x00\n        /* \"crowdfunding/Funding.sol\":1082:1117  contributors[msg.sender]+=msg.value */\n      dup3\n      dup3\n      sload\n      tag_95\n      swap2\n      swap1\n      tag_96\n      jump\t// in\n    tag_95:\n      swap3\n      pop\n      pop\n      dup2\n      swap1\n      sstore\n      pop\n        /* \"crowdfunding/Funding.sol\":1142:1151  msg.value */\n      callvalue\n        /* \"crowdfunding/Funding.sol\":1128:1140  raisedAmount */\n      0x05\n      0x00\n        /* \"crowdfunding/Funding.sol\":1128:1151  raisedAmount+=msg.value */\n      dup3\n      dup3\n      sload\n      tag_97\n      swap2\n      swap1\n      tag_96\n      jump\t// in\n    tag_97:\n      swap3\n      pop\n      pop\n      dup2\n      swap1\n      sstore\n      pop\n        /* \"crowdfunding/Funding.sol\":795:1159  function sendEth() public payable {... */\n      jump\t// out\n        /* \"crowdfunding/Funding.sol\":84:127  mapping (address=>uint) public contributors */\n    tag_26:\n      mstore(0x20, 0x00)\n      dup1\n      0x00\n      mstore\n      keccak256(0x00, 0x40)\n      0x00\n      swap2\n      pop\n      swap1\n      pop\n      sload\n      dup2\n      jump\t// out\n        /* \"crowdfunding/Funding.sol\":201:221  uint public deadline */\n    tag_31:\n      sload(0x03)\n      dup2\n      jump\t// out\n        /* \"crowdfunding/Funding.sol\":284:312  uint public noofContributors */\n    tag_35:\n      sload(0x06)\n      dup2\n      jump\t// out\n        /* \"crowdfunding/Funding.sol\":1718:2111  function createRequests(string memory _description,address payable _recipient,uint _value) public onlyManager{... */\n    tag_41:\n        /* \"crowdfunding/Funding.sol\":1646:1653  manager */\n      0x01\n      0x00\n      swap1\n      sload\n      swap1\n      0x0100\n      exp\n      swap1\n      div\n      0xffffffffffffffffffffffffffffffffffffffff\n      and\n        /* \"crowdfunding/Funding.sol\":1634:1653  msg.sender==manager */\n      0xffffffffffffffffffffffffffffffffffffffff\n      and\n        /* \"crowdfunding/Funding.sol\":1634:1644  msg.sender */\n      caller\n        /* \"crowdfunding/Funding.sol\":1634:1653  msg.sender==manager */\n      0xffffffffffffffffffffffffffffffffffffffff\n      and\n      eq\n        /* \"crowdfunding/Funding.sol\":1626:1694  require(msg.sender==manager,\"Only manager can access this function\") */\n      tag_99\n      jumpi\n      mload(0x40)\n      0x08c379a000000000000000000000000000000000000000000000000000000000\n      dup2\n      mstore\n      0x04\n      add\n      tag_100\n      swap1\n      tag_101\n      jump\t// in\n    tag_100:\n      mload(0x40)\n      dup1\n      swap2\n      sub\n      swap1\n      revert\n    tag_99:\n        /* \"crowdfunding/Funding.sol\":1838:1864  Request storage newRequest */\n      0x00\n        /* \"crowdfunding/Funding.sol\":1867:1875  requests */\n      0x07\n        /* \"crowdfunding/Funding.sol\":1867:1888  requests[numRequests] */\n      0x00\n        /* \"crowdfunding/Funding.sol\":1876:1887  numRequests */\n      sload(0x08)\n        /* \"crowdfunding/Funding.sol\":1867:1888  requests[numRequests] */\n      dup2\n      mstore\n      0x20\n      add\n      swap1\n      dup2\n      mstore\n      0x20\n      add\n      0x00\n      keccak256\n        /* \"crowdfunding/Funding.sol\":1838:1888  Request storage newRequest = requests[numRequests] */\n      swap1\n      pop\n        /* \"crowdfunding/Funding.sol\":1899:1910  numRequests */\n      0x08\n      0x00\n        /* \"crowdfunding/Funding.sol\":1899:1912  numRequests++ */\n      dup2\n      sload\n      dup1\n      swap3\n      swap2\n      swap1\n      tag_103\n      swap1\n      tag_94\n      jump\t// in\n    tag_103:\n      swap2\n      swap1\n      pop\n      sstore\n      pop\n        /* \"crowdfunding/Funding.sol\":1946:1958  _description */\n      dup4\n        /* \"crowdfunding/Funding.sol\":1923:1933  newRequest */\n      dup2\n        /* \"crowdfunding/Funding.sol\":1923:1945  newRequest.description */\n      0x00\n      add\n        /* \"crowdfunding/Funding.sol\":1923:1958  newRequest.description=_description */\n      swap1\n      dup2\n      tag_104\n      swap2\n      swap1\n      tag_105\n      jump\t// in\n    tag_104:\n      pop\n        /* \"crowdfunding/Funding.sol\":1990:2000  _recipient */\n      dup3\n        /* \"crowdfunding/Funding.sol\":1969:1979  newRequest */\n      dup2\n        /* \"crowdfunding/Funding.sol\":1969:1989  newRequest.recipient */\n      0x01\n      add\n      0x00\n        /* \"crowdfunding/Funding.sol\":1969:2000  newRequest.recipient=_recipient */\n      0x0100\n      exp\n      dup2\n      sload\n      dup2\n      0xffffffffffffffffffffffffffffffffffffffff\n      mul\n      not\n      and\n      swap1\n      dup4\n      0xffffffffffffffffffffffffffffffffffffffff\n      and\n      mul\n      or\n      swap1\n      sstore\n      pop\n        /* \"crowdfunding/Funding.sol\":2028:2034  _value */\n      dup2\n        /* \"crowdfunding/Funding.sol\":2011:2021  newRequest */\n      dup2\n        /* \"crowdfunding/Funding.sol\":2011:2027  newRequest.value */\n      0x02\n      add\n        /* \"crowdfunding/Funding.sol\":2011:2034  newRequest.value=_value */\n      dup2\n      swap1\n      sstore\n      pop\n        /* \"crowdfunding/Funding.sol\":2066:2071  false */\n      0x00\n        /* \"crowdfunding/Funding.sol\":2045:2055  newRequest */\n      dup2\n        /* \"crowdfunding/Funding.sol\":2045:2065  newRequest.completed */\n      0x03\n      add\n      0x00\n        /* \"crowdfunding/Funding.sol\":2045:2071  newRequest.completed=false */\n      0x0100\n      exp\n      dup2\n      sload\n      dup2\n      0xff\n      mul\n      not\n      and\n      swap1\n      dup4\n      iszero\n      iszero\n      mul\n      or\n      swap1\n      sstore\n      pop\n        /* \"crowdfunding/Funding.sol\":2102:2103  0 */\n      0x00\n        /* \"crowdfunding/Funding.sol\":2082:2092  newRequest */\n      dup2\n        /* \"crowdfunding/Funding.sol\":2082:2101  newRequest.noOfVote */\n      0x04\n      add\n        /* \"crowdfunding/Funding.sol\":2082:2103  newRequest.noOfVote=0 */\n      dup2\n      swap1\n      sstore\n      pop\n        /* \"crowdfunding/Funding.sol\":1827:2111  {... */\n      pop\n        /* \"crowdfunding/Funding.sol\":1718:2111  function createRequests(string memory _description,address payable _recipient,uint _value) public onlyManager{... */\n      pop\n      pop\n      pop\n      jump\t// out\n        /* \"crowdfunding/Funding.sol\":134:156  address public manager */\n    tag_44:\n      0x01\n      0x00\n      swap1\n      sload\n      swap1\n      0x0100\n      exp\n      swap1\n      div\n      0xffffffffffffffffffffffffffffffffffffffff\n      and\n      dup2\n      jump\t// out\n        /* \"crowdfunding/Funding.sol\":2117:2464  function voteRequest(uint _requestNo) public {... */\n    tag_51:\n        /* \"crowdfunding/Funding.sol\":2206:2207  0 */\n      0x00\n        /* \"crowdfunding/Funding.sol\":2181:2193  contributors */\n      dup1\n        /* \"crowdfunding/Funding.sol\":2181:2205  contributors[msg.sender] */\n      0x00\n        /* \"crowdfunding/Funding.sol\":2194:2204  msg.sender */\n      caller\n        /* \"crowdfunding/Funding.sol\":2181:2205  contributors[msg.sender] */\n      0xffffffffffffffffffffffffffffffffffffffff\n      and\n      0xffffffffffffffffffffffffffffffffffffffff\n      and\n      dup2\n      mstore\n      0x20\n      add\n      swap1\n      dup2\n      mstore\n      0x20\n      add\n      0x00\n      keccak256\n      sload\n        /* \"crowdfunding/Funding.sol\":2181:2207  contributors[msg.sender]>0 */\n      gt\n        /* \"crowdfunding/Funding.sol\":2173:2236  require(contributors[msg.sender]>0,\"You must be a contributor\") */\n      tag_107\n      jumpi\n      mload(0x40)\n      0x08c379a000000000000000000000000000000000000000000000000000000000\n      dup2\n      mstore\n      0x04\n      add\n      tag_108\n      swap1\n      tag_109\n      jump\t// in\n    tag_108:\n      mload(0x40)\n      dup1\n      swap2\n      sub\n      swap1\n      revert\n    tag_107:\n        /* \"crowdfunding/Funding.sol\":2247:2274  Request storage thisRequest */\n      0x00\n        /* \"crowdfunding/Funding.sol\":2275:2283  requests */\n      0x07\n        /* \"crowdfunding/Funding.sol\":2275:2295  requests[_requestNo] */\n      0x00\n        /* \"crowdfunding/Funding.sol\":2284:2294  _requestNo */\n      dup4\n        /* \"crowdfunding/Funding.sol\":2275:2295  requests[_requestNo] */\n      dup2\n      mstore\n      0x20\n      add\n      swap1\n      dup2\n      mstore\n      0x20\n      add\n      0x00\n      keccak256\n        /* \"crowdfunding/Funding.sol\":2247:2295  Request storage thisRequest=requests[_requestNo] */\n      swap1\n      pop\n        /* \"crowdfunding/Funding.sol\":2346:2351  false */\n      0x00\n        /* \"crowdfunding/Funding.sol\":2314:2351  thisRequest.voters[msg.sender]==false */\n      iszero\n      iszero\n        /* \"crowdfunding/Funding.sol\":2314:2325  thisRequest */\n      dup2\n        /* \"crowdfunding/Funding.sol\":2314:2332  thisRequest.voters */\n      0x05\n      add\n        /* \"crowdfunding/Funding.sol\":2314:2344  thisRequest.voters[msg.sender] */\n      0x00\n        /* \"crowdfunding/Funding.sol\":2333:2343  msg.sender */\n      caller\n        /* \"crowdfunding/Funding.sol\":2314:2344  thisRequest.voters[msg.sender] */\n      0xffffffffffffffffffffffffffffffffffffffff\n      and\n      0xffffffffffffffffffffffffffffffffffffffff\n      and\n      dup2\n      mstore\n      0x20\n      add\n      swap1\n      dup2\n      mstore\n      0x20\n      add\n      0x00\n      keccak256\n      0x00\n      swap1\n      sload\n      swap1\n      0x0100\n      exp\n      swap1\n      div\n      0xff\n      and\n        /* \"crowdfunding/Funding.sol\":2314:2351  thisRequest.voters[msg.sender]==false */\n      iszero\n      iszero\n      eq\n        /* \"crowdfunding/Funding.sol\":2306:2377  require(thisRequest.voters[msg.sender]==false,\"You have already voted\") */\n      tag_110\n      jumpi\n      mload(0x40)\n      0x08c379a000000000000000000000000000000000000000000000000000000000\n      dup2\n      mstore\n      0x04\n      add\n      tag_111\n      swap1\n      tag_112\n      jump\t// in\n    tag_111:\n      mload(0x40)\n      dup1\n      swap2\n      sub\n      swap1\n      revert\n    tag_110:\n        /* \"crowdfunding/Funding.sol\":2419:2423  true */\n      0x01\n        /* \"crowdfunding/Funding.sol\":2388:2399  thisRequest */\n      dup2\n        /* \"crowdfunding/Funding.sol\":2388:2406  thisRequest.voters */\n      0x05\n      add\n        /* \"crowdfunding/Funding.sol\":2388:2418  thisRequest.voters[msg.sender] */\n      0x00\n        /* \"crowdfunding/Funding.sol\":2407:2417  msg.sender */\n      caller\n        /* \"crowdfunding/Funding.sol\":2388:2418  thisRequest.voters[msg.sender] */\n      0xffffffffffffffffffffffffffffffffffffffff\n      and\n      0xffffffffffffffffffffffffffffffffffffffff\n      and\n      dup2\n      mstore\n      0x20\n      add\n      swap1\n      dup2\n      mstore\n      0x20\n      add\n      0x00\n      keccak256\n      0x00\n        /* \"crowdfunding/Funding.sol\":2388:2423  thisRequest.voters[msg.sender]=true */\n      0x0100\n      exp\n      dup2\n      sload\n      dup2\n      0xff\n      mul\n      not\n      and\n      swap1\n      dup4\n      iszero\n      iszero\n      mul\n      or\n      swap1\n      sstore\n      pop\n        /* \"crowdfunding/Funding.sol\":2434:2445  thisRequest */\n      dup1\n        /* \"crowdfunding/Funding.sol\":2434:2454  thisRequest.noOfVote */\n      0x04\n      add\n      0x00\n        /* \"crowdfunding/Funding.sol\":2434:2456  thisRequest.noOfVote++ */\n      dup2\n      sload\n      dup1\n      swap3\n      swap2\n      swap1\n      tag_113\n      swap1\n      tag_94\n      jump\t// in\n    tag_113:\n      swap2\n      swap1\n      pop\n      sstore\n      pop\n        /* \"crowdfunding/Funding.sol\":2162:2464  {... */\n      pop\n        /* \"crowdfunding/Funding.sol\":2117:2464  function voteRequest(uint _requestNo) public {... */\n      pop\n      jump\t// out\n        /* \"crowdfunding/Funding.sol\":2472:2900  function makePayment(uint _requestNo) public onlyManager{... */\n    tag_55:\n        /* \"crowdfunding/Funding.sol\":1646:1653  manager */\n      0x01\n      0x00\n      swap1\n      sload\n      swap1\n      0x0100\n      exp\n      swap1\n      div\n      0xffffffffffffffffffffffffffffffffffffffff\n      and\n        /* \"crowdfunding/Funding.sol\":1634:1653  msg.sender==manager */\n      0xffffffffffffffffffffffffffffffffffffffff\n      and\n        /* \"crowdfunding/Funding.sol\":1634:1644  msg.sender */\n      caller\n        /* \"crowdfunding/Funding.sol\":1634:1653  msg.sender==manager */\n      0xffffffffffffffffffffffffffffffffffffffff\n      and\n      eq\n        /* \"crowdfunding/Funding.sol\":1626:1694  require(msg.sender==manager,\"Only manager can access this function\") */\n      tag_115\n      jumpi\n      mload(0x40)\n      0x08c379a000000000000000000000000000000000000000000000000000000000\n      dup2\n      mstore\n      0x04\n      add\n      tag_116\n      swap1\n      tag_101\n      jump\t// in\n    tag_116:\n      mload(0x40)\n      dup1\n      swap2\n      sub\n      swap1\n      revert\n    tag_115:\n        /* \"crowdfunding/Funding.sol\":2561:2567  target */\n      sload(0x04)\n        /* \"crowdfunding/Funding.sol\":2547:2559  raisedAmount */\n      sload(0x05)\n        /* \"crowdfunding/Funding.sol\":2547:2567  raisedAmount>=target */\n      lt\n      iszero\n        /* \"crowdfunding/Funding.sol\":2539:2568  require(raisedAmount>=target) */\n      tag_118\n      jumpi\n      0x00\n      dup1\n      revert\n    tag_118:\n        /* \"crowdfunding/Funding.sol\":2579:2606  Request storage thisRequest */\n      0x00\n        /* \"crowdfunding/Funding.sol\":2607:2615  requests */\n      0x07\n        /* \"crowdfunding/Funding.sol\":2607:2627  requests[_requestNo] */\n      0x00\n        /* \"crowdfunding/Funding.sol\":2616:2626  _requestNo */\n      dup4\n        /* \"crowdfunding/Funding.sol\":2607:2627  requests[_requestNo] */\n      dup2\n      mstore\n      0x20\n      add\n      swap1\n      dup2\n      mstore\n      0x20\n      add\n      0x00\n      keccak256\n        /* \"crowdfunding/Funding.sol\":2579:2627  Request storage thisRequest=requests[_requestNo] */\n      swap1\n      pop\n        /* \"crowdfunding/Funding.sol\":2669:2674  false */\n      0x00\n        /* \"crowdfunding/Funding.sol\":2646:2674  thisRequest.completed==false */\n      iszero\n      iszero\n        /* \"crowdfunding/Funding.sol\":2646:2657  thisRequest */\n      dup2\n        /* \"crowdfunding/Funding.sol\":2646:2667  thisRequest.completed */\n      0x03\n      add\n      0x00\n      swap1\n      sload\n      swap1\n      0x0100\n      exp\n      swap1\n      div\n      0xff\n      and\n        /* \"crowdfunding/Funding.sol\":2646:2674  thisRequest.completed==false */\n      iszero\n      iszero\n      eq\n        /* \"crowdfunding/Funding.sol\":2638:2708  require(thisRequest.completed==false,\"the request has been completed\") */\n      tag_119\n      jumpi\n      mload(0x40)\n      0x08c379a000000000000000000000000000000000000000000000000000000000\n      dup2\n      mstore\n      0x04\n      add\n      tag_120\n      swap1\n      tag_121\n      jump\t// in\n    tag_120:\n      mload(0x40)\n      dup1\n      swap2\n      sub\n      swap1\n      revert\n    tag_119:\n        /* \"crowdfunding/Funding.sol\":2765:2766  2 */\n      0x02\n        /* \"crowdfunding/Funding.sol\":2748:2764  noofContributors */\n      sload(0x06)\n        /* \"crowdfunding/Funding.sol\":2748:2766  noofContributors/2 */\n      tag_122\n      swap2\n      swap1\n      tag_123\n      jump\t// in\n    tag_122:\n        /* \"crowdfunding/Funding.sol\":2727:2738  thisRequest */\n      dup2\n        /* \"crowdfunding/Funding.sol\":2727:2747  thisRequest.noOfVote */\n      0x04\n      add\n      sload\n        /* \"crowdfunding/Funding.sol\":2727:2766  thisRequest.noOfVote>noofContributors/2 */\n      gt\n        /* \"crowdfunding/Funding.sol\":2719:2795  require(thisRequest.noOfVote>noofContributors/2,\"majority does not support\") */\n      tag_124\n      jumpi\n      mload(0x40)\n      0x08c379a000000000000000000000000000000000000000000000000000000000\n      dup2\n      mstore\n      0x04\n      add\n      tag_125\n      swap1\n      tag_126\n      jump\t// in\n    tag_125:\n      mload(0x40)\n      dup1\n      swap2\n      sub\n      swap1\n      revert\n    tag_124:\n        /* \"crowdfunding/Funding.sol\":2806:2817  thisRequest */\n      dup1\n        /* \"crowdfunding/Funding.sol\":2806:2827  thisRequest.recipient */\n      0x01\n      add\n      0x00\n      swap1\n      sload\n      swap1\n      0x0100\n      exp\n      swap1\n      div\n      0xffffffffffffffffffffffffffffffffffffffff\n      and\n        /* \"crowdfunding/Funding.sol\":2806:2836  thisRequest.recipient.transfer */\n      0xffffffffffffffffffffffffffffffffffffffff\n      and\n        /* \"crowdfunding/Funding.sol\":2806:2855  thisRequest.recipient.transfer(thisRequest.value) */\n      0x08fc\n        /* \"crowdfunding/Funding.sol\":2837:2848  thisRequest */\n      dup3\n        /* \"crowdfunding/Funding.sol\":2837:2854  thisRequest.value */\n      0x02\n      add\n      sload\n        /* \"crowdfunding/Funding.sol\":2806:2855  thisRequest.recipient.transfer(thisRequest.value) */\n      swap1\n      dup2\n      iszero\n      mul\n      swap1\n      mload(0x40)\n      0x00\n      mload(0x40)\n      dup1\n      dup4\n      sub\n      dup2\n      dup6\n      dup9\n      dup9\n      call\n      swap4\n      pop\n      pop\n      pop\n      pop\n      iszero\n      dup1\n      iszero\n      tag_128\n      jumpi\n      returndatasize\n      0x00\n      dup1\n      returndatacopy\n      revert(0x00, returndatasize)\n    tag_128:\n      pop\n        /* \"crowdfunding/Funding.sol\":2888:2892  true */\n      0x01\n        /* \"crowdfunding/Funding.sol\":2866:2877  thisRequest */\n      dup2\n        /* \"crowdfunding/Funding.sol\":2866:2887  thisRequest.completed */\n      0x03\n      add\n      0x00\n        /* \"crowdfunding/Funding.sol\":2866:2892  thisRequest.completed=true */\n      0x0100\n      exp\n      dup2\n      sload\n      dup2\n      0xff\n      mul\n      not\n      and\n      swap1\n      dup4\n      iszero\n      iszero\n      mul\n      or\n      swap1\n      sstore\n      pop\n        /* \"crowdfunding/Funding.sol\":2528:2900  {... */\n      pop\n        /* \"crowdfunding/Funding.sol\":2472:2900  function makePayment(uint _requestNo) public onlyManager{... */\n      pop\n      jump\t// out\n        /* \"crowdfunding/Funding.sol\":1167:1270  function getContractBalance() public view returns (uint){... */\n    tag_58:\n        /* \"crowdfunding/Funding.sol\":1218:1222  uint */\n      0x00\n        /* \"crowdfunding/Funding.sol\":1241:1262  address(this).balance */\n      selfbalance\n        /* \"crowdfunding/Funding.sol\":1234:1262  return address(this).balance */\n      swap1\n      pop\n        /* \"crowdfunding/Funding.sol\":1167:1270  function getContractBalance() public view returns (uint){... */\n      swap1\n      jump\t// out\n        /* \"crowdfunding/Funding.sol\":525:563  mapping(uint=>Request) public requests */\n    tag_63:\n      mstore(0x20, 0x07)\n      dup1\n      0x00\n      mstore\n      keccak256(0x00, 0x40)\n      0x00\n      swap2\n      pop\n      swap1\n      pop\n      dup1\n      0x00\n      add\n      dup1\n      sload\n      tag_130\n      swap1\n      tag_131\n      jump\t// in\n    tag_130:\n      dup1\n      0x1f\n      add\n      0x20\n      dup1\n      swap2\n      div\n      mul\n      0x20\n      add\n      mload(0x40)\n      swap1\n      dup2\n      add\n      0x40\n      mstore\n      dup1\n      swap3\n      swap2\n      swap1\n      dup2\n      dup2\n      mstore\n      0x20\n      add\n      dup3\n      dup1\n      sload\n      tag_132\n      swap1\n      tag_131\n      jump\t// in\n    tag_132:\n      dup1\n      iszero\n      tag_133\n      jumpi\n      dup1\n      0x1f\n      lt\n      tag_134\n      jumpi\n      0x0100\n      dup1\n      dup4\n      sload\n      div\n      mul\n      dup4\n      mstore\n      swap2\n      0x20\n      add\n      swap2\n      jump(tag_133)\n    tag_134:\n      dup3\n      add\n      swap2\n      swap1\n      0x00\n      mstore\n      keccak256(0x00, 0x20)\n      swap1\n    tag_135:\n      dup2\n      sload\n      dup2\n      mstore\n      swap1\n      0x01\n      add\n      swap1\n      0x20\n      add\n      dup1\n      dup4\n      gt\n      tag_135\n      jumpi\n      dup3\n      swap1\n      sub\n      0x1f\n      and\n      dup3\n      add\n      swap2\n    tag_133:\n      pop\n      pop\n      pop\n      pop\n      pop\n      swap1\n      dup1\n      0x01\n      add\n      0x00\n      swap1\n      sload\n      swap1\n      0x0100\n      exp\n      swap1\n      div\n      0xffffffffffffffffffffffffffffffffffffffff\n      and\n      swap1\n      dup1\n      0x02\n      add\n      sload\n      swap1\n      dup1\n      0x03\n      add\n      0x00\n      swap1\n      sload\n      swap1\n      0x0100\n      exp\n      swap1\n      div\n      0xff\n      and\n      swap1\n      dup1\n      0x04\n      add\n      sload\n      swap1\n      pop\n      dup6\n      jump\t// out\n        /* \"crowdfunding/Funding.sol\":163:194  uint public minimumContribution */\n    tag_68:\n      sload(0x02)\n      dup2\n      jump\t// out\n        /* \"crowdfunding/Funding.sol\":570:593  uint public numRequests */\n    tag_72:\n      sload(0x08)\n      dup2\n      jump\t// out\n        /* \"crowdfunding/Funding.sol\":253:277  uint public raisedAmount */\n    tag_76:\n      sload(0x05)\n      dup2\n      jump\t// out\n        /* \"crowdfunding/Funding.sol\":228:246  uint public target */\n    tag_80:\n      sload(0x04)\n      dup2\n      jump\t// out\n        /* \"crowdfunding/Funding.sol\":1278:1585  function refundMoney() public {... */\n    tag_84:\n        /* \"crowdfunding/Funding.sol\":1343:1351  deadline */\n      sload(0x03)\n        /* \"crowdfunding/Funding.sol\":1327:1342  block.timestamp */\n      timestamp\n        /* \"crowdfunding/Funding.sol\":1327:1351  block.timestamp>deadline */\n      gt\n        /* \"crowdfunding/Funding.sol\":1319:1352  require(block.timestamp>deadline) */\n      tag_137\n      jumpi\n      0x00\n      dup1\n      revert\n    tag_137:\n        /* \"crowdfunding/Funding.sol\":1384:1390  target */\n      sload(0x04)\n        /* \"crowdfunding/Funding.sol\":1371:1383  raisedAmount */\n      sload(0x05)\n        /* \"crowdfunding/Funding.sol\":1371:1390  raisedAmount<target */\n      lt\n        /* \"crowdfunding/Funding.sol\":1363:1391  require(raisedAmount<target) */\n      tag_138\n      jumpi\n      0x00\n      dup1\n      revert\n    tag_138:\n        /* \"crowdfunding/Funding.sol\":1435:1436  0 */\n      0x00\n        /* \"crowdfunding/Funding.sol\":1410:1422  contributors */\n      dup1\n        /* \"crowdfunding/Funding.sol\":1410:1434  contributors[msg.sender] */\n      0x00\n        /* \"crowdfunding/Funding.sol\":1423:1433  msg.sender */\n      caller\n        /* \"crowdfunding/Funding.sol\":1410:1434  contributors[msg.sender] */\n      0xffffffffffffffffffffffffffffffffffffffff\n      and\n      0xffffffffffffffffffffffffffffffffffffffff\n      and\n      dup2\n      mstore\n      0x20\n      add\n      swap1\n      dup2\n      mstore\n      0x20\n      add\n      0x00\n      keccak256\n      sload\n        /* \"crowdfunding/Funding.sol\":1410:1436  contributors[msg.sender]>0 */\n      gt\n        /* \"crowdfunding/Funding.sol\":1402:1437  require(contributors[msg.sender]>0) */\n      tag_139\n      jumpi\n      0x00\n      dup1\n      revert\n    tag_139:\n        /* \"crowdfunding/Funding.sol\":1448:1468  address payable user */\n      0x00\n        /* \"crowdfunding/Funding.sol\":1479:1489  msg.sender */\n      caller\n        /* \"crowdfunding/Funding.sol\":1448:1490  address payable user = payable(msg.sender) */\n      swap1\n      pop\n        /* \"crowdfunding/Funding.sol\":1501:1505  user */\n      dup1\n        /* \"crowdfunding/Funding.sol\":1501:1514  user.transfer */\n      0xffffffffffffffffffffffffffffffffffffffff\n      and\n        /* \"crowdfunding/Funding.sol\":1501:1540  user.transfer(contributors[msg.sender]) */\n      0x08fc\n        /* \"crowdfunding/Funding.sol\":1515:1527  contributors */\n      0x00\n        /* \"crowdfunding/Funding.sol\":1515:1539  contributors[msg.sender] */\n      dup1\n        /* \"crowdfunding/Funding.sol\":1528:1538  msg.sender */\n      caller\n        /* \"crowdfunding/Funding.sol\":1515:1539  contributors[msg.sender] */\n      0xffffffffffffffffffffffffffffffffffffffff\n      and\n      0xffffffffffffffffffffffffffffffffffffffff\n      and\n      dup2\n      mstore\n      0x20\n      add\n      swap1\n      dup2\n      mstore\n      0x20\n      add\n      0x00\n      keccak256\n      sload\n        /* \"crowdfunding/Funding.sol\":1501:1540  user.transfer(contributors[msg.sender]) */\n      swap1\n      dup2\n      iszero\n      mul\n      swap1\n      mload(0x40)\n      0x00\n      mload(0x40)\n      dup1\n      dup4\n      sub\n      dup2\n      dup6\n      dup9\n      dup9\n      call\n      swap4\n      pop\n      pop\n      pop\n      pop\n      iszero\n      dup1\n      iszero\n      tag_141\n      jumpi\n      returndatasize\n      0x00\n      dup1\n      returndatacopy\n      revert(0x00, returndatasize)\n    tag_141:\n      pop\n        /* \"crowdfunding/Funding.sol\":1576:1577  0 */\n      0x00\n        /* \"crowdfunding/Funding.sol\":1551:1563  contributors */\n      dup1\n        /* \"crowdfunding/Funding.sol\":1551:1575  contributors[msg.sender] */\n      0x00\n        /* \"crowdfunding/Funding.sol\":1564:1574  msg.sender */\n      caller\n        /* \"crowdfunding/Funding.sol\":1551:1575  contributors[msg.sender] */\n      0xffffffffffffffffffffffffffffffffffffffff\n      and\n      0xffffffffffffffffffffffffffffffffffffffff\n      and\n      dup2\n      mstore\n      0x20\n      add\n      swap1\n      dup2\n      mstore\n      0x20\n      add\n      0x00\n      keccak256\n        /* \"crowdfunding/Funding.sol\":1551:1577  contributors[msg.sender]=0 */\n      dup2\n      swap1\n      sstore\n      pop\n        /* \"crowdfunding/Funding.sol\":1308:1585  {... */\n      pop\n        /* \"crowdfunding/Funding.sol\":1278:1585  function refundMoney() public {... */\n      jump\t// out\n        /* \"#utility.yul\":7:82   */\n    tag_142:\n        /* \"#utility.yul\":40:46   */\n      0x00\n        /* \"#utility.yul\":73:75   */\n      0x40\n        /* \"#utility.yul\":67:76   */\n      mload\n        /* \"#utility.yul\":57:76   */\n      swap1\n      pop\n        /* \"#utility.yul\":7:82   */\n      swap1\n      jump\t// out\n        /* \"#utility.yul\":88:205   */\n    tag_143:\n        /* \"#utility.yul\":197:198   */\n      0x00\n        /* \"#utility.yul\":194:195   */\n      dup1\n        /* \"#utility.yul\":187:199   */\n      revert\n        /* \"#utility.yul\":211:328   */\n    tag_144:\n        /* \"#utility.yul\":320:321   */\n      0x00\n        /* \"#utility.yul\":317:318   */\n      dup1\n        /* \"#utility.yul\":310:322   */\n      revert\n        /* \"#utility.yul\":334:460   */\n    tag_145:\n        /* \"#utility.yul\":371:378   */\n      0x00\n        /* \"#utility.yul\":411:453   */\n      0xffffffffffffffffffffffffffffffffffffffff\n        /* \"#utility.yul\":404:409   */\n      dup3\n        /* \"#utility.yul\":400:454   */\n      and\n        /* \"#utility.yul\":389:454   */\n      swap1\n      pop\n        /* \"#utility.yul\":334:460   */\n      swap2\n      swap1\n      pop\n      jump\t// out\n        /* \"#utility.yul\":466:562   */\n    tag_146:\n        /* \"#utility.yul\":503:510   */\n      0x00\n        /* \"#utility.yul\":532:556   */\n      tag_212\n        /* \"#utility.yul\":550:555   */\n      dup3\n        /* \"#utility.yul\":532:556   */\n      tag_145\n      jump\t// in\n    tag_212:\n        /* \"#utility.yul\":521:556   */\n      swap1\n      pop\n        /* \"#utility.yul\":466:562   */\n      swap2\n      swap1\n      pop\n      jump\t// out\n        /* \"#utility.yul\":568:690   */\n    tag_147:\n        /* \"#utility.yul\":641:665   */\n      tag_214\n        /* \"#utility.yul\":659:664   */\n      dup2\n        /* \"#utility.yul\":641:665   */\n      tag_146\n      jump\t// in\n    tag_214:\n        /* \"#utility.yul\":634:639   */\n      dup2\n        /* \"#utility.yul\":631:666   */\n      eq\n        /* \"#utility.yul\":621:684   */\n      tag_215\n      jumpi\n        /* \"#utility.yul\":680:681   */\n      0x00\n        /* \"#utility.yul\":677:678   */\n      dup1\n        /* \"#utility.yul\":670:682   */\n      revert\n        /* \"#utility.yul\":621:684   */\n    tag_215:\n        /* \"#utility.yul\":568:690   */\n      pop\n      jump\t// out\n        /* \"#utility.yul\":696:835   */\n    tag_148:\n        /* \"#utility.yul\":742:747   */\n      0x00\n        /* \"#utility.yul\":780:786   */\n      dup2\n        /* \"#utility.yul\":767:787   */\n      calldataload\n        /* \"#utility.yul\":758:787   */\n      swap1\n      pop\n        /* \"#utility.yul\":796:829   */\n      tag_217\n        /* \"#utility.yul\":823:828   */\n      dup2\n        /* \"#utility.yul\":796:829   */\n      tag_147\n      jump\t// in\n    tag_217:\n        /* \"#utility.yul\":696:835   */\n      swap3\n      swap2\n      pop\n      pop\n      jump\t// out\n        /* \"#utility.yul\":841:1170   */\n    tag_25:\n        /* \"#utility.yul\":900:906   */\n      0x00\n        /* \"#utility.yul\":949:951   */\n      0x20\n        /* \"#utility.yul\":937:946   */\n      dup3\n        /* \"#utility.yul\":928:935   */\n      dup5\n        /* \"#utility.yul\":924:947   */\n      sub\n        /* \"#utility.yul\":920:952   */\n      slt\n        /* \"#utility.yul\":917:1036   */\n      iszero\n      tag_219\n      jumpi\n        /* \"#utility.yul\":955:1034   */\n      tag_220\n      tag_143\n      jump\t// in\n    tag_220:\n        /* \"#utility.yul\":917:1036   */\n    tag_219:\n        /* \"#utility.yul\":1075:1076   */\n      0x00\n        /* \"#utility.yul\":1100:1153   */\n      tag_221\n        /* \"#utility.yul\":1145:1152   */\n      dup5\n        /* \"#utility.yul\":1136:1142   */\n      dup3\n        /* \"#utility.yul\":1125:1134   */\n      dup6\n        /* \"#utility.yul\":1121:1143   */\n      add\n        /* \"#utility.yul\":1100:1153   */\n      tag_148\n      jump\t// in\n    tag_221:\n        /* \"#utility.yul\":1090:1153   */\n      swap2\n      pop\n        /* \"#utility.yul\":1046:1163   */\n      pop\n        /* \"#utility.yul\":841:1170   */\n      swap3\n      swap2\n      pop\n      pop\n      jump\t// out\n        /* \"#utility.yul\":1176:1253   */\n    tag_149:\n        /* \"#utility.yul\":1213:1220   */\n      0x00\n        /* \"#utility.yul\":1242:1247   */\n      dup2\n        /* \"#utility.yul\":1231:1247   */\n      swap1\n      pop\n        /* \"#utility.yul\":1176:1253   */\n      swap2\n      swap1\n      pop\n      jump\t// out\n        /* \"#utility.yul\":1259:1377   */\n    tag_150:\n        /* \"#utility.yul\":1346:1370   */\n      tag_224\n        /* \"#utility.yul\":1364:1369   */\n      dup2\n        /* \"#utility.yul\":1346:1370   */\n      tag_149\n      jump\t// in\n    tag_224:\n        /* \"#utility.yul\":1341:1344   */\n      dup3\n        /* \"#utility.yul\":1334:1371   */\n      mstore\n        /* \"#utility.yul\":1259:1377   */\n      pop\n      pop\n      jump\t// out\n        /* \"#utility.yul\":1383:1605   */\n    tag_28:\n        /* \"#utility.yul\":1476:1480   */\n      0x00\n        /* \"#utility.yul\":1514:1516   */\n      0x20\n        /* \"#utility.yul\":1503:1512   */\n      dup3\n        /* \"#utility.yul\":1499:1517   */\n      add\n        /* \"#utility.yul\":1491:1517   */\n      swap1\n      pop\n        /* \"#utility.yul\":1527:1598   */\n      tag_226\n        /* \"#utility.yul\":1595:1596   */\n      0x00\n        /* \"#utility.yul\":1584:1593   */\n      dup4\n        /* \"#utility.yul\":1580:1597   */\n      add\n        /* \"#utility.yul\":1571:1577   */\n      dup5\n        /* \"#utility.yul\":1527:1598   */\n      tag_150\n      jump\t// in\n    tag_226:\n        /* \"#utility.yul\":1383:1605   */\n      swap3\n      swap2\n      pop\n      pop\n      jump\t// out\n        /* \"#utility.yul\":1611:1728   */\n    tag_151:\n        /* \"#utility.yul\":1720:1721   */\n      0x00\n        /* \"#utility.yul\":1717:1718   */\n      dup1\n        /* \"#utility.yul\":1710:1722   */\n      revert\n        /* \"#utility.yul\":1734:1851   */\n    tag_152:\n        /* \"#utility.yul\":1843:1844   */\n      0x00\n        /* \"#utility.yul\":1840:1841   */\n      dup1\n        /* \"#utility.yul\":1833:1845   */\n      revert\n        /* \"#utility.yul\":1857:1959   */\n    tag_153:\n        /* \"#utility.yul\":1898:1904   */\n      0x00\n        /* \"#utility.yul\":1949:1951   */\n      0x1f\n        /* \"#utility.yul\":1945:1952   */\n      not\n        /* \"#utility.yul\":1940:1942   */\n      0x1f\n        /* \"#utility.yul\":1933:1938   */\n      dup4\n        /* \"#utility.yul\":1929:1943   */\n      add\n        /* \"#utility.yul\":1925:1953   */\n      and\n        /* \"#utility.yul\":1915:1953   */\n      swap1\n      pop\n        /* \"#utility.yul\":1857:1959   */\n      swap2\n      swap1\n      pop\n      jump\t// out\n        /* \"#utility.yul\":1965:2145   */\n    tag_154:\n        /* \"#utility.yul\":2013:2090   */\n      0x4e487b7100000000000000000000000000000000000000000000000000000000\n        /* \"#utility.yul\":2010:2011   */\n      0x00\n        /* \"#utility.yul\":2003:2091   */\n      mstore\n        /* \"#utility.yul\":2110:2114   */\n      0x41\n        /* \"#utility.yul\":2107:2108   */\n      0x04\n        /* \"#utility.yul\":2100:2115   */\n      mstore\n        /* \"#utility.yul\":2134:2138   */\n      0x24\n        /* \"#utility.yul\":2131:2132   */\n      0x00\n        /* \"#utility.yul\":2124:2139   */\n      revert\n        /* \"#utility.yul\":2151:2432   */\n    tag_155:\n        /* \"#utility.yul\":2234:2261   */\n      tag_232\n        /* \"#utility.yul\":2256:2260   */\n      dup3\n        /* \"#utility.yul\":2234:2261   */\n      tag_153\n      jump\t// in\n    tag_232:\n        /* \"#utility.yul\":2226:2232   */\n      dup2\n        /* \"#utility.yul\":2222:2262   */\n      add\n        /* \"#utility.yul\":2364:2370   */\n      dup2\n        /* \"#utility.yul\":2352:2362   */\n      dup2\n        /* \"#utility.yul\":2349:2371   */\n      lt\n        /* \"#utility.yul\":2328:2346   */\n      0xffffffffffffffff\n        /* \"#utility.yul\":2316:2326   */\n      dup3\n        /* \"#utility.yul\":2313:2347   */\n      gt\n        /* \"#utility.yul\":2310:2372   */\n      or\n        /* \"#utility.yul\":2307:2395   */\n      iszero\n      tag_233\n      jumpi\n        /* \"#utility.yul\":2375:2393   */\n      tag_234\n      tag_154\n      jump\t// in\n    tag_234:\n        /* \"#utility.yul\":2307:2395   */\n    tag_233:\n        /* \"#utility.yul\":2415:2425   */\n      dup1\n        /* \"#utility.yul\":2411:2413   */\n      0x40\n        /* \"#utility.yul\":2404:2426   */\n      mstore\n        /* \"#utility.yul\":2194:2432   */\n      pop\n        /* \"#utility.yul\":2151:2432   */\n      pop\n      pop\n      jump\t// out\n        /* \"#utility.yul\":2438:2567   */\n    tag_156:\n        /* \"#utility.yul\":2472:2478   */\n      0x00\n        /* \"#utility.yul\":2499:2519   */\n      tag_236\n      tag_142\n      jump\t// in\n    tag_236:\n        /* \"#utility.yul\":2489:2519   */\n      swap1\n      pop\n        /* \"#utility.yul\":2528:2561   */\n      tag_237\n        /* \"#utility.yul\":2556:2560   */\n      dup3\n        /* \"#utility.yul\":2548:2554   */\n      dup3\n        /* \"#utility.yul\":2528:2561   */\n      tag_155\n      jump\t// in\n    tag_237:\n        /* \"#utility.yul\":2438:2567   */\n      swap2\n      swap1\n      pop\n      jump\t// out\n        /* \"#utility.yul\":2573:2881   */\n    tag_157:\n        /* \"#utility.yul\":2635:2639   */\n      0x00\n        /* \"#utility.yul\":2725:2743   */\n      0xffffffffffffffff\n        /* \"#utility.yul\":2717:2723   */\n      dup3\n        /* \"#utility.yul\":2714:2744   */\n      gt\n        /* \"#utility.yul\":2711:2767   */\n      iszero\n      tag_239\n      jumpi\n        /* \"#utility.yul\":2747:2765   */\n      tag_240\n      tag_154\n      jump\t// in\n    tag_240:\n        /* \"#utility.yul\":2711:2767   */\n    tag_239:\n        /* \"#utility.yul\":2785:2814   */\n      tag_241\n        /* \"#utility.yul\":2807:2813   */\n      dup3\n        /* \"#utility.yul\":2785:2814   */\n      tag_153\n      jump\t// in\n    tag_241:\n        /* \"#utility.yul\":2777:2814   */\n      swap1\n      pop\n        /* \"#utility.yul\":2869:2873   */\n      0x20\n        /* \"#utility.yul\":2863:2867   */\n      dup2\n        /* \"#utility.yul\":2859:2874   */\n      add\n        /* \"#utility.yul\":2851:2874   */\n      swap1\n      pop\n        /* \"#utility.yul\":2573:2881   */\n      swap2\n      swap1\n      pop\n      jump\t// out\n        /* \"#utility.yul\":2887:3033   */\n    tag_158:\n        /* \"#utility.yul\":2984:2990   */\n      dup3\n        /* \"#utility.yul\":2979:2982   */\n      dup2\n        /* \"#utility.yul\":2974:2977   */\n      dup4\n        /* \"#utility.yul\":2961:2991   */\n      calldatacopy\n        /* \"#utility.yul\":3025:3026   */\n      0x00\n        /* \"#utility.yul\":3016:3022   */\n      dup4\n        /* \"#utility.yul\":3011:3014   */\n      dup4\n        /* \"#utility.yul\":3007:3023   */\n      add\n        /* \"#utility.yul\":3000:3027   */\n      mstore\n        /* \"#utility.yul\":2887:3033   */\n      pop\n      pop\n      pop\n      jump\t// out\n        /* \"#utility.yul\":3039:3464   */\n    tag_159:\n        /* \"#utility.yul\":3117:3122   */\n      0x00\n        /* \"#utility.yul\":3142:3208   */\n      tag_244\n        /* \"#utility.yul\":3158:3207   */\n      tag_245\n        /* \"#utility.yul\":3200:3206   */\n      dup5\n        /* \"#utility.yul\":3158:3207   */\n      tag_157\n      jump\t// in\n    tag_245:\n        /* \"#utility.yul\":3142:3208   */\n      tag_156\n      jump\t// in\n    tag_244:\n        /* \"#utility.yul\":3133:3208   */\n      swap1\n      pop\n        /* \"#utility.yul\":3231:3237   */\n      dup3\n        /* \"#utility.yul\":3224:3229   */\n      dup2\n        /* \"#utility.yul\":3217:3238   */\n      mstore\n        /* \"#utility.yul\":3269:3273   */\n      0x20\n        /* \"#utility.yul\":3262:3267   */\n      dup2\n        /* \"#utility.yul\":3258:3274   */\n      add\n        /* \"#utility.yul\":3307:3310   */\n      dup5\n        /* \"#utility.yul\":3298:3304   */\n      dup5\n        /* \"#utility.yul\":3293:3296   */\n      dup5\n        /* \"#utility.yul\":3289:3305   */\n      add\n        /* \"#utility.yul\":3286:3311   */\n      gt\n        /* \"#utility.yul\":3283:3395   */\n      iszero\n      tag_246\n      jumpi\n        /* \"#utility.yul\":3314:3393   */\n      tag_247\n      tag_152\n      jump\t// in\n    tag_247:\n        /* \"#utility.yul\":3283:3395   */\n    tag_246:\n        /* \"#utility.yul\":3404:3458   */\n      tag_248\n        /* \"#utility.yul\":3451:3457   */\n      dup5\n        /* \"#utility.yul\":3446:3449   */\n      dup3\n        /* \"#utility.yul\":3441:3444   */\n      dup6\n        /* \"#utility.yul\":3404:3458   */\n      tag_158\n      jump\t// in\n    tag_248:\n        /* \"#utility.yul\":3123:3464   */\n      pop\n        /* \"#utility.yul\":3039:3464   */\n      swap4\n      swap3\n      pop\n      pop\n      pop\n      jump\t// out\n        /* \"#utility.yul\":3484:3824   */\n    tag_160:\n        /* \"#utility.yul\":3540:3545   */\n      0x00\n        /* \"#utility.yul\":3589:3592   */\n      dup3\n        /* \"#utility.yul\":3582:3586   */\n      0x1f\n        /* \"#utility.yul\":3574:3580   */\n      dup4\n        /* \"#utility.yul\":3570:3587   */\n      add\n        /* \"#utility.yul\":3566:3593   */\n      slt\n        /* \"#utility.yul\":3556:3678   */\n      tag_250\n      jumpi\n        /* \"#utility.yul\":3597:3676   */\n      tag_251\n      tag_151\n      jump\t// in\n    tag_251:\n        /* \"#utility.yul\":3556:3678   */\n    tag_250:\n        /* \"#utility.yul\":3714:3720   */\n      dup2\n        /* \"#utility.yul\":3701:3721   */\n      calldataload\n        /* \"#utility.yul\":3739:3818   */\n      tag_252\n        /* \"#utility.yul\":3814:3817   */\n      dup5\n        /* \"#utility.yul\":3806:3812   */\n      dup3\n        /* \"#utility.yul\":3799:3803   */\n      0x20\n        /* \"#utility.yul\":3791:3797   */\n      dup7\n        /* \"#utility.yul\":3787:3804   */\n      add\n        /* \"#utility.yul\":3739:3818   */\n      tag_159\n      jump\t// in\n    tag_252:\n        /* \"#utility.yul\":3730:3818   */\n      swap2\n      pop\n        /* \"#utility.yul\":3546:3824   */\n      pop\n        /* \"#utility.yul\":3484:3824   */\n      swap3\n      swap2\n      pop\n      pop\n      jump\t// out\n        /* \"#utility.yul\":3830:3934   */\n    tag_161:\n        /* \"#utility.yul\":3875:3882   */\n      0x00\n        /* \"#utility.yul\":3904:3928   */\n      tag_254\n        /* \"#utility.yul\":3922:3927   */\n      dup3\n        /* \"#utility.yul\":3904:3928   */\n      tag_145\n      jump\t// in\n    tag_254:\n        /* \"#utility.yul\":3893:3928   */\n      swap1\n      pop\n        /* \"#utility.yul\":3830:3934   */\n      swap2\n      swap1\n      pop\n      jump\t// out\n        /* \"#utility.yul\":3940:4078   */\n    tag_162:\n        /* \"#utility.yul\":4021:4053   */\n      tag_256\n        /* \"#utility.yul\":4047:4052   */\n      dup2\n        /* \"#utility.yul\":4021:4053   */\n      tag_161\n      jump\t// in\n    tag_256:\n        /* \"#utility.yul\":4014:4019   */\n      dup2\n        /* \"#utility.yul\":4011:4054   */\n      eq\n        /* \"#utility.yul\":4001:4072   */\n      tag_257\n      jumpi\n        /* \"#utility.yul\":4068:4069   */\n      0x00\n        /* \"#utility.yul\":4065:4066   */\n      dup1\n        /* \"#utility.yul\":4058:4070   */\n      revert\n        /* \"#utility.yul\":4001:4072   */\n    tag_257:\n        /* \"#utility.yul\":3940:4078   */\n      pop\n      jump\t// out\n        /* \"#utility.yul\":4084:4239   */\n    tag_163:\n        /* \"#utility.yul\":4138:4143   */\n      0x00\n        /* \"#utility.yul\":4176:4182   */\n      dup2\n        /* \"#utility.yul\":4163:4183   */\n      calldataload\n        /* \"#utility.yul\":4154:4183   */\n      swap1\n      pop\n        /* \"#utility.yul\":4192:4233   */\n      tag_259\n        /* \"#utility.yul\":4227:4232   */\n      dup2\n        /* \"#utility.yul\":4192:4233   */\n      tag_162\n      jump\t// in\n    tag_259:\n        /* \"#utility.yul\":4084:4239   */\n      swap3\n      swap2\n      pop\n      pop\n      jump\t// out\n        /* \"#utility.yul\":4245:4367   */\n    tag_164:\n        /* \"#utility.yul\":4318:4342   */\n      tag_261\n        /* \"#utility.yul\":4336:4341   */\n      dup2\n        /* \"#utility.yul\":4318:4342   */\n      tag_149\n      jump\t// in\n    tag_261:\n        /* \"#utility.yul\":4311:4316   */\n      dup2\n        /* \"#utility.yul\":4308:4343   */\n      eq\n        /* \"#utility.yul\":4298:4361   */\n      tag_262\n      jumpi\n        /* \"#utility.yul\":4357:4358   */\n      0x00\n        /* \"#utility.yul\":4354:4355   */\n      dup1\n        /* \"#utility.yul\":4347:4359   */\n      revert\n        /* \"#utility.yul\":4298:4361   */\n    tag_262:\n        /* \"#utility.yul\":4245:4367   */\n      pop\n      jump\t// out\n        /* \"#utility.yul\":4373:4512   */\n    tag_165:\n        /* \"#utility.yul\":4419:4424   */\n      0x00\n        /* \"#utility.yul\":4457:4463   */\n      dup2\n        /* \"#utility.yul\":4444:4464   */\n      calldataload\n        /* \"#utility.yul\":4435:4464   */\n      swap1\n      pop\n        /* \"#utility.yul\":4473:4506   */\n      tag_264\n        /* \"#utility.yul\":4500:4505   */\n      dup2\n        /* \"#utility.yul\":4473:4506   */\n      tag_164\n      jump\t// in\n    tag_264:\n        /* \"#utility.yul\":4373:4512   */\n      swap3\n      swap2\n      pop\n      pop\n      jump\t// out\n        /* \"#utility.yul\":4518:5333   */\n    tag_40:\n        /* \"#utility.yul\":4613:4619   */\n      0x00\n        /* \"#utility.yul\":4621:4627   */\n      dup1\n        /* \"#utility.yul\":4629:4635   */\n      0x00\n        /* \"#utility.yul\":4678:4680   */\n      0x60\n        /* \"#utility.yul\":4666:4675   */\n      dup5\n        /* \"#utility.yul\":4657:4664   */\n      dup7\n        /* \"#utility.yul\":4653:4676   */\n      sub\n        /* \"#utility.yul\":4649:4681   */\n      slt\n        /* \"#utility.yul\":4646:4765   */\n      iszero\n      tag_266\n      jumpi\n        /* \"#utility.yul\":4684:4763   */\n      tag_267\n      tag_143\n      jump\t// in\n    tag_267:\n        /* \"#utility.yul\":4646:4765   */\n    tag_266:\n        /* \"#utility.yul\":4832:4833   */\n      0x00\n        /* \"#utility.yul\":4821:4830   */\n      dup5\n        /* \"#utility.yul\":4817:4834   */\n      add\n        /* \"#utility.yul\":4804:4835   */\n      calldataload\n        /* \"#utility.yul\":4862:4880   */\n      0xffffffffffffffff\n        /* \"#utility.yul\":4854:4860   */\n      dup2\n        /* \"#utility.yul\":4851:4881   */\n      gt\n        /* \"#utility.yul\":4848:4965   */\n      iszero\n      tag_268\n      jumpi\n        /* \"#utility.yul\":4884:4963   */\n      tag_269\n      tag_144\n      jump\t// in\n    tag_269:\n        /* \"#utility.yul\":4848:4965   */\n    tag_268:\n        /* \"#utility.yul\":4989:5052   */\n      tag_270\n        /* \"#utility.yul\":5044:5051   */\n      dup7\n        /* \"#utility.yul\":5035:5041   */\n      dup3\n        /* \"#utility.yul\":5024:5033   */\n      dup8\n        /* \"#utility.yul\":5020:5042   */\n      add\n        /* \"#utility.yul\":4989:5052   */\n      tag_160\n      jump\t// in\n    tag_270:\n        /* \"#utility.yul\":4979:5052   */\n      swap4\n      pop\n        /* \"#utility.yul\":4775:5062   */\n      pop\n        /* \"#utility.yul\":5101:5103   */\n      0x20\n        /* \"#utility.yul\":5127:5188   */\n      tag_271\n        /* \"#utility.yul\":5180:5187   */\n      dup7\n        /* \"#utility.yul\":5171:5177   */\n      dup3\n        /* \"#utility.yul\":5160:5169   */\n      dup8\n        /* \"#utility.yul\":5156:5178   */\n      add\n        /* \"#utility.yul\":5127:5188   */\n      tag_163\n      jump\t// in\n    tag_271:\n        /* \"#utility.yul\":5117:5188   */\n      swap3\n      pop\n        /* \"#utility.yul\":5072:5198   */\n      pop\n        /* \"#utility.yul\":5237:5239   */\n      0x40\n        /* \"#utility.yul\":5263:5316   */\n      tag_272\n        /* \"#utility.yul\":5308:5315   */\n      dup7\n        /* \"#utility.yul\":5299:5305   */\n      dup3\n        /* \"#utility.yul\":5288:5297   */\n      dup8\n        /* \"#utility.yul\":5284:5306   */\n      add\n        /* \"#utility.yul\":5263:5316   */\n      tag_165\n      jump\t// in\n    tag_272:\n        /* \"#utility.yul\":5253:5316   */\n      swap2\n      pop\n        /* \"#utility.yul\":5208:5326   */\n      pop\n        /* \"#utility.yul\":4518:5333   */\n      swap3\n      pop\n      swap3\n      pop\n      swap3\n      jump\t// out\n        /* \"#utility.yul\":5339:5457   */\n    tag_166:\n        /* \"#utility.yul\":5426:5450   */\n      tag_274\n        /* \"#utility.yul\":5444:5449   */\n      dup2\n        /* \"#utility.yul\":5426:5450   */\n      tag_146\n      jump\t// in\n    tag_274:\n        /* \"#utility.yul\":5421:5424   */\n      dup3\n        /* \"#utility.yul\":5414:5451   */\n      mstore\n        /* \"#utility.yul\":5339:5457   */\n      pop\n      pop\n      jump\t// out\n        /* \"#utility.yul\":5463:5685   */\n    tag_46:\n        /* \"#utility.yul\":5556:5560   */\n      0x00\n        /* \"#utility.yul\":5594:5596   */\n      0x20\n        /* \"#utility.yul\":5583:5592   */\n      dup3\n        /* \"#utility.yul\":5579:5597   */\n      add\n        /* \"#utility.yul\":5571:5597   */\n      swap1\n      pop\n        /* \"#utility.yul\":5607:5678   */\n      tag_276\n        /* \"#utility.yul\":5675:5676   */\n      0x00\n        /* \"#utility.yul\":5664:5673   */\n      dup4\n        /* \"#utility.yul\":5660:5677   */\n      add\n        /* \"#utility.yul\":5651:5657   */\n      dup5\n        /* \"#utility.yul\":5607:5678   */\n      tag_166\n      jump\t// in\n    tag_276:\n        /* \"#utility.yul\":5463:5685   */\n      swap3\n      swap2\n      pop\n      pop\n      jump\t// out\n        /* \"#utility.yul\":5691:6020   */\n    tag_50:\n        /* \"#utility.yul\":5750:5756   */\n      0x00\n        /* \"#utility.yul\":5799:5801   */\n      0x20\n        /* \"#utility.yul\":5787:5796   */\n      dup3\n        /* \"#utility.yul\":5778:5785   */\n      dup5\n        /* \"#utility.yul\":5774:5797   */\n      sub\n        /* \"#utility.yul\":5770:5802   */\n      slt\n        /* \"#utility.yul\":5767:5886   */\n      iszero\n      tag_278\n      jumpi\n        /* \"#utility.yul\":5805:5884   */\n      tag_279\n      tag_143\n      jump\t// in\n    tag_279:\n        /* \"#utility.yul\":5767:5886   */\n    tag_278:\n        /* \"#utility.yul\":5925:5926   */\n      0x00\n        /* \"#utility.yul\":5950:6003   */\n      tag_280\n        /* \"#utility.yul\":5995:6002   */\n      dup5\n        /* \"#utility.yul\":5986:5992   */\n      dup3\n        /* \"#utility.yul\":5975:5984   */\n      dup6\n        /* \"#utility.yul\":5971:5993   */\n      add\n        /* \"#utility.yul\":5950:6003   */\n      tag_165\n      jump\t// in\n    tag_280:\n        /* \"#utility.yul\":5940:6003   */\n      swap2\n      pop\n        /* \"#utility.yul\":5896:6013   */\n      pop\n        /* \"#utility.yul\":5691:6020   */\n      swap3\n      swap2\n      pop\n      pop\n      jump\t// out\n        /* \"#utility.yul\":6026:6125   */\n    tag_167:\n        /* \"#utility.yul\":6078:6084   */\n      0x00\n        /* \"#utility.yul\":6112:6117   */\n      dup2\n        /* \"#utility.yul\":6106:6118   */\n      mload\n        /* \"#utility.yul\":6096:6118   */\n      swap1\n      pop\n        /* \"#utility.yul\":6026:6125   */\n      swap2\n      swap1\n      pop\n      jump\t// out\n        /* \"#utility.yul\":6131:6300   */\n    tag_168:\n        /* \"#utility.yul\":6215:6226   */\n      0x00\n        /* \"#utility.yul\":6249:6255   */\n      dup3\n        /* \"#utility.yul\":6244:6247   */\n      dup3\n        /* \"#utility.yul\":6237:6256   */\n      mstore\n        /* \"#utility.yul\":6289:6293   */\n      0x20\n        /* \"#utility.yul\":6284:6287   */\n      dup3\n        /* \"#utility.yul\":6280:6294   */\n      add\n        /* \"#utility.yul\":6265:6294   */\n      swap1\n      pop\n        /* \"#utility.yul\":6131:6300   */\n      swap3\n      swap2\n      pop\n      pop\n      jump\t// out\n        /* \"#utility.yul\":6306:6552   */\n    tag_169:\n        /* \"#utility.yul\":6387:6388   */\n      0x00\n        /* \"#utility.yul\":6397:6510   */\n    tag_284:\n        /* \"#utility.yul\":6411:6417   */\n      dup4\n        /* \"#utility.yul\":6408:6409   */\n      dup2\n        /* \"#utility.yul\":6405:6418   */\n      lt\n        /* \"#utility.yul\":6397:6510   */\n      iszero\n      tag_286\n      jumpi\n        /* \"#utility.yul\":6496:6497   */\n      dup1\n        /* \"#utility.yul\":6491:6494   */\n      dup3\n        /* \"#utility.yul\":6487:6498   */\n      add\n        /* \"#utility.yul\":6481:6499   */\n      mload\n        /* \"#utility.yul\":6477:6478   */\n      dup2\n        /* \"#utility.yul\":6472:6475   */\n      dup5\n        /* \"#utility.yul\":6468:6479   */\n      add\n        /* \"#utility.yul\":6461:6500   */\n      mstore\n        /* \"#utility.yul\":6433:6435   */\n      0x20\n        /* \"#utility.yul\":6430:6431   */\n      dup2\n        /* \"#utility.yul\":6426:6436   */\n      add\n        /* \"#utility.yul\":6421:6436   */\n      swap1\n      pop\n        /* \"#utility.yul\":6397:6510   */\n      jump(tag_284)\n    tag_286:\n        /* \"#utility.yul\":6544:6545   */\n      0x00\n        /* \"#utility.yul\":6535:6541   */\n      dup5\n        /* \"#utility.yul\":6530:6533   */\n      dup5\n        /* \"#utility.yul\":6526:6542   */\n      add\n        /* \"#utility.yul\":6519:6546   */\n      mstore\n        /* \"#utility.yul\":6368:6552   */\n      pop\n        /* \"#utility.yul\":6306:6552   */\n      pop\n      pop\n      pop\n      jump\t// out\n        /* \"#utility.yul\":6558:6935   */\n    tag_170:\n        /* \"#utility.yul\":6646:6649   */\n      0x00\n        /* \"#utility.yul\":6674:6713   */\n      tag_288\n        /* \"#utility.yul\":6707:6712   */\n      dup3\n        /* \"#utility.yul\":6674:6713   */\n      tag_167\n      jump\t// in\n    tag_288:\n        /* \"#utility.yul\":6729:6800   */\n      tag_289\n        /* \"#utility.yul\":6793:6799   */\n      dup2\n        /* \"#utility.yul\":6788:6791   */\n      dup6\n        /* \"#utility.yul\":6729:6800   */\n      tag_168\n      jump\t// in\n    tag_289:\n        /* \"#utility.yul\":6722:6800   */\n      swap4\n      pop\n        /* \"#utility.yul\":6809:6874   */\n      tag_290\n        /* \"#utility.yul\":6867:6873   */\n      dup2\n        /* \"#utility.yul\":6862:6865   */\n      dup6\n        /* \"#utility.yul\":6855:6859   */\n      0x20\n        /* \"#utility.yul\":6848:6853   */\n      dup7\n        /* \"#utility.yul\":6844:6860   */\n      add\n        /* \"#utility.yul\":6809:6874   */\n      tag_169\n      jump\t// in\n    tag_290:\n        /* \"#utility.yul\":6899:6928   */\n      tag_291\n        /* \"#utility.yul\":6921:6927   */\n      dup2\n        /* \"#utility.yul\":6899:6928   */\n      tag_153\n      jump\t// in\n    tag_291:\n        /* \"#utility.yul\":6894:6897   */\n      dup5\n        /* \"#utility.yul\":6890:6929   */\n      add\n        /* \"#utility.yul\":6883:6929   */\n      swap2\n      pop\n        /* \"#utility.yul\":6650:6935   */\n      pop\n        /* \"#utility.yul\":6558:6935   */\n      swap3\n      swap2\n      pop\n      pop\n      jump\t// out\n        /* \"#utility.yul\":6941:7083   */\n    tag_171:\n        /* \"#utility.yul\":7044:7076   */\n      tag_293\n        /* \"#utility.yul\":7070:7075   */\n      dup2\n        /* \"#utility.yul\":7044:7076   */\n      tag_161\n      jump\t// in\n    tag_293:\n        /* \"#utility.yul\":7039:7042   */\n      dup3\n        /* \"#utility.yul\":7032:7077   */\n      mstore\n        /* \"#utility.yul\":6941:7083   */\n      pop\n      pop\n      jump\t// out\n        /* \"#utility.yul\":7089:7179   */\n    tag_172:\n        /* \"#utility.yul\":7123:7130   */\n      0x00\n        /* \"#utility.yul\":7166:7171   */\n      dup2\n        /* \"#utility.yul\":7159:7172   */\n      iszero\n        /* \"#utility.yul\":7152:7173   */\n      iszero\n        /* \"#utility.yul\":7141:7173   */\n      swap1\n      pop\n        /* \"#utility.yul\":7089:7179   */\n      swap2\n      swap1\n      pop\n      jump\t// out\n        /* \"#utility.yul\":7185:7294   */\n    tag_173:\n        /* \"#utility.yul\":7266:7287   */\n      tag_296\n        /* \"#utility.yul\":7281:7286   */\n      dup2\n        /* \"#utility.yul\":7266:7287   */\n      tag_172\n      jump\t// in\n    tag_296:\n        /* \"#utility.yul\":7261:7264   */\n      dup3\n        /* \"#utility.yul\":7254:7288   */\n      mstore\n        /* \"#utility.yul\":7185:7294   */\n      pop\n      pop\n      jump\t// out\n        /* \"#utility.yul\":7300:8075   */\n    tag_65:\n        /* \"#utility.yul\":7535:7539   */\n      0x00\n        /* \"#utility.yul\":7573:7576   */\n      0xa0\n        /* \"#utility.yul\":7562:7571   */\n      dup3\n        /* \"#utility.yul\":7558:7577   */\n      add\n        /* \"#utility.yul\":7550:7577   */\n      swap1\n      pop\n        /* \"#utility.yul\":7623:7632   */\n      dup2\n        /* \"#utility.yul\":7617:7621   */\n      dup2\n        /* \"#utility.yul\":7613:7633   */\n      sub\n        /* \"#utility.yul\":7609:7610   */\n      0x00\n        /* \"#utility.yul\":7598:7607   */\n      dup4\n        /* \"#utility.yul\":7594:7611   */\n      add\n        /* \"#utility.yul\":7587:7634   */\n      mstore\n        /* \"#utility.yul\":7651:7729   */\n      tag_298\n        /* \"#utility.yul\":7724:7728   */\n      dup2\n        /* \"#utility.yul\":7715:7721   */\n      dup9\n        /* \"#utility.yul\":7651:7729   */\n      tag_170\n      jump\t// in\n    tag_298:\n        /* \"#utility.yul\":7643:7729   */\n      swap1\n      pop\n        /* \"#utility.yul\":7739:7827   */\n      tag_299\n        /* \"#utility.yul\":7823:7825   */\n      0x20\n        /* \"#utility.yul\":7812:7821   */\n      dup4\n        /* \"#utility.yul\":7808:7826   */\n      add\n        /* \"#utility.yul\":7799:7805   */\n      dup8\n        /* \"#utility.yul\":7739:7827   */\n      tag_171\n      jump\t// in\n    tag_299:\n        /* \"#utility.yul\":7837:7909   */\n      tag_300\n        /* \"#utility.yul\":7905:7907   */\n      0x40\n        /* \"#utility.yul\":7894:7903   */\n      dup4\n        /* \"#utility.yul\":7890:7908   */\n      add\n        /* \"#utility.yul\":7881:7887   */\n      dup7\n        /* \"#utility.yul\":7837:7909   */\n      tag_150\n      jump\t// in\n    tag_300:\n        /* \"#utility.yul\":7919:7985   */\n      tag_301\n        /* \"#utility.yul\":7981:7983   */\n      0x60\n        /* \"#utility.yul\":7970:7979   */\n      dup4\n        /* \"#utility.yul\":7966:7984   */\n      add\n        /* \"#utility.yul\":7957:7963   */\n      dup6\n        /* \"#utility.yul\":7919:7985   */\n      tag_173\n      jump\t// in\n    tag_301:\n        /* \"#utility.yul\":7995:8068   */\n      tag_302\n        /* \"#utility.yul\":8063:8066   */\n      0x80\n        /* \"#utility.yul\":8052:8061   */\n      dup4\n        /* \"#utility.yul\":8048:8067   */\n      add\n        /* \"#utility.yul\":8039:8045   */\n      dup5\n        /* \"#utility.yul\":7995:8068   */\n      tag_150\n      jump\t// in\n    tag_302:\n        /* \"#utility.yul\":7300:8075   */\n      swap7\n      swap6\n      pop\n      pop\n      pop\n      pop\n      pop\n      pop\n      jump\t// out\n        /* \"#utility.yul\":8081:8254   */\n    tag_174:\n        /* \"#utility.yul\":8221:8246   */\n      0x54696d65206c696d697420686173206578636565646564000000000000000000\n        /* \"#utility.yul\":8217:8218   */\n      0x00\n        /* \"#utility.yul\":8209:8215   */\n      dup3\n        /* \"#utility.yul\":8205:8219   */\n      add\n        /* \"#utility.yul\":8198:8247   */\n      mstore\n        /* \"#utility.yul\":8081:8254   */\n      pop\n      jump\t// out\n        /* \"#utility.yul\":8260:8626   */\n    tag_175:\n        /* \"#utility.yul\":8402:8405   */\n      0x00\n        /* \"#utility.yul\":8423:8490   */\n      tag_305\n        /* \"#utility.yul\":8487:8489   */\n      0x17\n        /* \"#utility.yul\":8482:8485   */\n      dup4\n        /* \"#utility.yul\":8423:8490   */\n      tag_168\n      jump\t// in\n    tag_305:\n        /* \"#utility.yul\":8416:8490   */\n      swap2\n      pop\n        /* \"#utility.yul\":8499:8592   */\n      tag_306\n        /* \"#utility.yul\":8588:8591   */\n      dup3\n        /* \"#utility.yul\":8499:8592   */\n      tag_174\n      jump\t// in\n    tag_306:\n        /* \"#utility.yul\":8617:8619   */\n      0x20\n        /* \"#utility.yul\":8612:8615   */\n      dup3\n        /* \"#utility.yul\":8608:8620   */\n      add\n        /* \"#utility.yul\":8601:8620   */\n      swap1\n      pop\n        /* \"#utility.yul\":8260:8626   */\n      swap2\n      swap1\n      pop\n      jump\t// out\n        /* \"#utility.yul\":8632:9051   */\n    tag_88:\n        /* \"#utility.yul\":8798:8802   */\n      0x00\n        /* \"#utility.yul\":8836:8838   */\n      0x20\n        /* \"#utility.yul\":8825:8834   */\n      dup3\n        /* \"#utility.yul\":8821:8839   */\n      add\n        /* \"#utility.yul\":8813:8839   */\n      swap1\n      pop\n        /* \"#utility.yul\":8885:8894   */\n      dup2\n        /* \"#utility.yul\":8879:8883   */\n      dup2\n        /* \"#utility.yul\":8875:8895   */\n      sub\n        /* \"#utility.yul\":8871:8872   */\n      0x00\n        /* \"#utility.yul\":8860:8869   */\n      dup4\n        /* \"#utility.yul\":8856:8873   */\n      add\n        /* \"#utility.yul\":8849:8896   */\n      mstore\n        /* \"#utility.yul\":8913:9044   */\n      tag_308\n        /* \"#utility.yul\":9039:9043   */\n      dup2\n        /* \"#utility.yul\":8913:9044   */\n      tag_175\n      jump\t// in\n    tag_308:\n        /* \"#utility.yul\":8905:9044   */\n      swap1\n      pop\n        /* \"#utility.yul\":8632:9051   */\n      swap2\n      swap1\n      pop\n      jump\t// out\n        /* \"#utility.yul\":9057:9238   */\n    tag_176:\n        /* \"#utility.yul\":9197:9230   */\n      0x4d696e696d756d20636f6e747269627574696f6e206973206e6f74206d657400\n        /* \"#utility.yul\":9193:9194   */\n      0x00\n        /* \"#utility.yul\":9185:9191   */\n      dup3\n        /* \"#utility.yul\":9181:9195   */\n      add\n        /* \"#utility.yul\":9174:9231   */\n      mstore\n        /* \"#utility.yul\":9057:9238   */\n      pop\n      jump\t// out\n        /* \"#utility.yul\":9244:9610   */\n    tag_177:\n        /* \"#utility.yul\":9386:9389   */\n      0x00\n        /* \"#utility.yul\":9407:9474   */\n      tag_311\n        /* \"#utility.yul\":9471:9473   */\n      0x1f\n        /* \"#utility.yul\":9466:9469   */\n      dup4\n        /* \"#utility.yul\":9407:9474   */\n      tag_168\n      jump\t// in\n    tag_311:\n        /* \"#utility.yul\":9400:9474   */\n      swap2\n      pop\n        /* \"#utility.yul\":9483:9576   */\n      tag_312\n        /* \"#utility.yul\":9572:9575   */\n      dup3\n        /* \"#utility.yul\":9483:9576   */\n      tag_176\n      jump\t// in\n    tag_312:\n        /* \"#utility.yul\":9601:9603   */\n      0x20\n        /* \"#utility.yul\":9596:9599   */\n      dup3\n        /* \"#utility.yul\":9592:9604   */\n      add\n        /* \"#utility.yul\":9585:9604   */\n      swap1\n      pop\n        /* \"#utility.yul\":9244:9610   */\n      swap2\n      swap1\n      pop\n      jump\t// out\n        /* \"#utility.yul\":9616:10035   */\n    tag_91:\n        /* \"#utility.yul\":9782:9786   */\n      0x00\n        /* \"#utility.yul\":9820:9822   */\n      0x20\n        /* \"#utility.yul\":9809:9818   */\n      dup3\n        /* \"#utility.yul\":9805:9823   */\n      add\n        /* \"#utility.yul\":9797:9823   */\n      swap1\n      pop\n        /* \"#utility.yul\":9869:9878   */\n      dup2\n        /* \"#utility.yul\":9863:9867   */\n      dup2\n        /* \"#utility.yul\":9859:9879   */\n      sub\n        /* \"#utility.yul\":9855:9856   */\n      0x00\n        /* \"#utility.yul\":9844:9853   */\n      dup4\n        /* \"#utility.yul\":9840:9857   */\n      add\n        /* \"#utility.yul\":9833:9880   */\n      mstore\n        /* \"#utility.yul\":9897:10028   */\n      tag_314\n        /* \"#utility.yul\":10023:10027   */\n      dup2\n        /* \"#utility.yul\":9897:10028   */\n      tag_177\n      jump\t// in\n    tag_314:\n        /* \"#utility.yul\":9889:10028   */\n      swap1\n      pop\n        /* \"#utility.yul\":9616:10035   */\n      swap2\n      swap1\n      pop\n      jump\t// out\n        /* \"#utility.yul\":10041:10221   */\n    tag_178:\n        /* \"#utility.yul\":10089:10166   */\n      0x4e487b7100000000000000000000000000000000000000000000000000000000\n        /* \"#utility.yul\":10086:10087   */\n      0x00\n        /* \"#utility.yul\":10079:10167   */\n      mstore\n        /* \"#utility.yul\":10186:10190   */\n      0x11\n        /* \"#utility.yul\":10183:10184   */\n      0x04\n        /* \"#utility.yul\":10176:10191   */\n      mstore\n        /* \"#utility.yul\":10210:10214   */\n      0x24\n        /* \"#utility.yul\":10207:10208   */\n      0x00\n        /* \"#utility.yul\":10200:10215   */\n      revert\n        /* \"#utility.yul\":10227:10460   */\n    tag_94:\n        /* \"#utility.yul\":10266:10269   */\n      0x00\n        /* \"#utility.yul\":10289:10313   */\n      tag_317\n        /* \"#utility.yul\":10307:10312   */\n      dup3\n        /* \"#utility.yul\":10289:10313   */\n      tag_149\n      jump\t// in\n    tag_317:\n        /* \"#utility.yul\":10280:10313   */\n      swap2\n      pop\n        /* \"#utility.yul\":10335:10401   */\n      0xffffffffffffffffffffffffffffffffffffffffffffffffffffffffffffffff\n        /* \"#utility.yul\":10328:10333   */\n      dup3\n        /* \"#utility.yul\":10325:10402   */\n      sub\n        /* \"#utility.yul\":10322:10425   */\n      tag_318\n      jumpi\n        /* \"#utility.yul\":10405:10423   */\n      tag_319\n      tag_178\n      jump\t// in\n    tag_319:\n        /* \"#utility.yul\":10322:10425   */\n    tag_318:\n        /* \"#utility.yul\":10452:10453   */\n      0x01\n        /* \"#utility.yul\":10445:10450   */\n      dup3\n        /* \"#utility.yul\":10441:10454   */\n      add\n        /* \"#utility.yul\":10434:10454   */\n      swap1\n      pop\n        /* \"#utility.yul\":10227:10460   */\n      swap2\n      swap1\n      pop\n      jump\t// out\n        /* \"#utility.yul\":10466:10657   */\n    tag_96:\n        /* \"#utility.yul\":10506:10509   */\n      0x00\n        /* \"#utility.yul\":10525:10545   */\n      tag_321\n        /* \"#utility.yul\":10543:10544   */\n      dup3\n        /* \"#utility.yul\":10525:10545   */\n      tag_149\n      jump\t// in\n    tag_321:\n        /* \"#utility.yul\":10520:10545   */\n      swap2\n      pop\n        /* \"#utility.yul\":10559:10579   */\n      tag_322\n        /* \"#utility.yul\":10577:10578   */\n      dup4\n        /* \"#utility.yul\":10559:10579   */\n      tag_149\n      jump\t// in\n    tag_322:\n        /* \"#utility.yul\":10554:10579   */\n      swap3\n      pop\n        /* \"#utility.yul\":10602:10603   */\n      dup3\n        /* \"#utility.yul\":10599:10600   */\n      dup3\n        /* \"#utility.yul\":10595:10604   */\n      add\n        /* \"#utility.yul\":10588:10604   */\n      swap1\n      pop\n        /* \"#utility.yul\":10623:10626   */\n      dup1\n        /* \"#utility.yul\":10620:10621   */\n      dup3\n        /* \"#utility.yul\":10617:10627   */\n      gt\n        /* \"#utility.yul\":10614:10650   */\n      iszero\n      tag_323\n      jumpi\n        /* \"#utility.yul\":10630:10648   */\n      tag_324\n      tag_178\n      jump\t// in\n    tag_324:\n        /* \"#utility.yul\":10614:10650   */\n    tag_323:\n        /* \"#utility.yul\":10466:10657   */\n      swap3\n      swap2\n      pop\n      pop\n      jump\t// out\n        /* \"#utility.yul\":10663:10887   */\n    tag_179:\n        /* \"#utility.yul\":10803:10837   */\n      0x4f6e6c79206d616e616765722063616e2061636365737320746869732066756e\n        /* \"#utility.yul\":10799:10800   */\n      0x00\n        /* \"#utility.yul\":10791:10797   */\n      dup3\n        /* \"#utility.yul\":10787:10801   */\n      add\n        /* \"#utility.yul\":10780:10838   */\n      mstore\n        /* \"#utility.yul\":10872:10879   */\n      0x6374696f6e000000000000000000000000000000000000000000000000000000\n        /* \"#utility.yul\":10867:10869   */\n      0x20\n        /* \"#utility.yul\":10859:10865   */\n      dup3\n        /* \"#utility.yul\":10855:10870   */\n      add\n        /* \"#utility.yul\":10848:10880   */\n      mstore\n        /* \"#utility.yul\":10663:10887   */\n      pop\n      jump\t// out\n        /* \"#utility.yul\":10893:11259   */\n    tag_180:\n        /* \"#utility.yul\":11035:11038   */\n      0x00\n        /* \"#utility.yul\":11056:11123   */\n      tag_327\n        /* \"#utility.yul\":11120:11122   */\n      0x25\n        /* \"#utility.yul\":11115:11118   */\n      dup4\n        /* \"#utility.yul\":11056:11123   */\n      tag_168\n      jump\t// in\n    tag_327:\n        /* \"#utility.yul\":11049:11123   */\n      swap2\n      pop\n        /* \"#utility.yul\":11132:11225   */\n      tag_328\n        /* \"#utility.yul\":11221:11224   */\n      dup3\n        /* \"#utility.yul\":11132:11225   */\n      tag_179\n      jump\t// in\n    tag_328:\n        /* \"#utility.yul\":11250:11252   */\n      0x40\n        /* \"#utility.yul\":11245:11248   */\n      dup3\n        /* \"#utility.yul\":11241:11253   */\n      add\n        /* \"#utility.yul\":11234:11253   */\n      swap1\n      pop\n        /* \"#utility.yul\":10893:11259   */\n      swap2\n      swap1\n      pop\n      jump\t// out\n        /* \"#utility.yul\":11265:11684   */\n    tag_101:\n        /* \"#utility.yul\":11431:11435   */\n      0x00\n        /* \"#utility.yul\":11469:11471   */\n      0x20\n        /* \"#utility.yul\":11458:11467   */\n      dup3\n        /* \"#utility.yul\":11454:11472   */\n      add\n        /* \"#utility.yul\":11446:11472   */\n      swap1\n      pop\n        /* \"#utility.yul\":11518:11527   */\n      dup2\n        /* \"#utility.yul\":11512:11516   */\n      dup2\n        /* \"#utility.yul\":11508:11528   */\n      sub\n        /* \"#utility.yul\":11504:11505   */\n      0x00\n        /* \"#utility.yul\":11493:11502   */\n      dup4\n        /* \"#utility.yul\":11489:11506   */\n      add\n        /* \"#utility.yul\":11482:11529   */\n      mstore\n        /* \"#utility.yul\":11546:11677   */\n      tag_330\n        /* \"#utility.yul\":11672:11676   */\n      dup2\n        /* \"#utility.yul\":11546:11677   */\n      tag_180\n      jump\t// in\n    tag_330:\n        /* \"#utility.yul\":11538:11677   */\n      swap1\n      pop\n        /* \"#utility.yul\":11265:11684   */\n      swap2\n      swap1\n      pop\n      jump\t// out\n        /* \"#utility.yul\":11690:11870   */\n    tag_181:\n        /* \"#utility.yul\":11738:11815   */\n      0x4e487b7100000000000000000000000000000000000000000000000000000000\n        /* \"#utility.yul\":11735:11736   */\n      0x00\n        /* \"#utility.yul\":11728:11816   */\n      mstore\n        /* \"#utility.yul\":11835:11839   */\n      0x22\n        /* \"#utility.yul\":11832:11833   */\n      0x04\n        /* \"#utility.yul\":11825:11840   */\n      mstore\n        /* \"#utility.yul\":11859:11863   */\n      0x24\n        /* \"#utility.yul\":11856:11857   */\n      0x00\n        /* \"#utility.yul\":11849:11864   */\n      revert\n        /* \"#utility.yul\":11876:12196   */\n    tag_131:\n        /* \"#utility.yul\":11920:11926   */\n      0x00\n        /* \"#utility.yul\":11957:11958   */\n      0x02\n        /* \"#utility.yul\":11951:11955   */\n      dup3\n        /* \"#utility.yul\":11947:11959   */\n      div\n        /* \"#utility.yul\":11937:11959   */\n      swap1\n      pop\n        /* \"#utility.yul\":12004:12005   */\n      0x01\n        /* \"#utility.yul\":11998:12002   */\n      dup3\n        /* \"#utility.yul\":11994:12006   */\n      and\n        /* \"#utility.yul\":12025:12043   */\n      dup1\n        /* \"#utility.yul\":12015:12096   */\n      tag_333\n      jumpi\n        /* \"#utility.yul\":12081:12085   */\n      0x7f\n        /* \"#utility.yul\":12073:12079   */\n      dup3\n        /* \"#utility.yul\":12069:12086   */\n      and\n        /* \"#utility.yul\":12059:12086   */\n      swap2\n      pop\n        /* \"#utility.yul\":12015:12096   */\n    tag_333:\n        /* \"#utility.yul\":12143:12145   */\n      0x20\n        /* \"#utility.yul\":12135:12141   */\n      dup3\n        /* \"#utility.yul\":12132:12146   */\n      lt\n        /* \"#utility.yul\":12112:12130   */\n      dup2\n        /* \"#utility.yul\":12109:12147   */\n      sub\n        /* \"#utility.yul\":12106:12190   */\n      tag_334\n      jumpi\n        /* \"#utility.yul\":12162:12180   */\n      tag_335\n      tag_181\n      jump\t// in\n    tag_335:\n        /* \"#utility.yul\":12106:12190   */\n    tag_334:\n        /* \"#utility.yul\":11927:12196   */\n      pop\n        /* \"#utility.yul\":11876:12196   */\n      swap2\n      swap1\n      pop\n      jump\t// out\n        /* \"#utility.yul\":12202:12343   */\n    tag_182:\n        /* \"#utility.yul\":12251:12255   */\n      0x00\n        /* \"#utility.yul\":12274:12277   */\n      dup2\n        /* \"#utility.yul\":12266:12277   */\n      swap1\n      pop\n        /* \"#utility.yul\":12297:12300   */\n      dup2\n        /* \"#utility.yul\":12294:12295   */\n      0x00\n        /* \"#utility.yul\":12287:12301   */\n      mstore\n        /* \"#utility.yul\":12331:12335   */\n      0x20\n        /* \"#utility.yul\":12328:12329   */\n      0x00\n        /* \"#utility.yul\":12318:12336   */\n      keccak256\n        /* \"#utility.yul\":12310:12336   */\n      swap1\n      pop\n        /* \"#utility.yul\":12202:12343   */\n      swap2\n      swap1\n      pop\n      jump\t// out\n        /* \"#utility.yul\":12349:12442   */\n    tag_183:\n        /* \"#utility.yul\":12386:12392   */\n      0x00\n        /* \"#utility.yul\":12433:12435   */\n      0x20\n        /* \"#utility.yul\":12428:12430   */\n      0x1f\n        /* \"#utility.yul\":12421:12426   */\n      dup4\n        /* \"#utility.yul\":12417:12431   */\n      add\n        /* \"#utility.yul\":12413:12436   */\n      div\n        /* \"#utility.yul\":12403:12436   */\n      swap1\n      pop\n        /* \"#utility.yul\":12349:12442   */\n      swap2\n      swap1\n      pop\n      jump\t// out\n        /* \"#utility.yul\":12448:12555   */\n    tag_184:\n        /* \"#utility.yul\":12492:12500   */\n      0x00\n        /* \"#utility.yul\":12542:12547   */\n      dup3\n        /* \"#utility.yul\":12536:12540   */\n      dup3\n        /* \"#utility.yul\":12532:12548   */\n      shl\n        /* \"#utility.yul\":12511:12548   */\n      swap1\n      pop\n        /* \"#utility.yul\":12448:12555   */\n      swap3\n      swap2\n      pop\n      pop\n      jump\t// out\n        /* \"#utility.yul\":12561:12954   */\n    tag_185:\n        /* \"#utility.yul\":12630:12636   */\n      0x00\n        /* \"#utility.yul\":12680:12681   */\n      0x08\n        /* \"#utility.yul\":12668:12678   */\n      dup4\n        /* \"#utility.yul\":12664:12682   */\n      mul\n        /* \"#utility.yul\":12703:12800   */\n      tag_340\n        /* \"#utility.yul\":12733:12799   */\n      0xffffffffffffffffffffffffffffffffffffffffffffffffffffffffffffffff\n        /* \"#utility.yul\":12722:12731   */\n      dup3\n        /* \"#utility.yul\":12703:12800   */\n      tag_184\n      jump\t// in\n    tag_340:\n        /* \"#utility.yul\":12821:12860   */\n      tag_341\n        /* \"#utility.yul\":12851:12859   */\n      dup7\n        /* \"#utility.yul\":12840:12849   */\n      dup4\n        /* \"#utility.yul\":12821:12860   */\n      tag_184\n      jump\t// in\n    tag_341:\n        /* \"#utility.yul\":12809:12860   */\n      swap6\n      pop\n        /* \"#utility.yul\":12893:12897   */\n      dup1\n        /* \"#utility.yul\":12889:12898   */\n      not\n        /* \"#utility.yul\":12882:12887   */\n      dup5\n        /* \"#utility.yul\":12878:12899   */\n      and\n        /* \"#utility.yul\":12869:12899   */\n      swap4\n      pop\n        /* \"#utility.yul\":12942:12946   */\n      dup1\n        /* \"#utility.yul\":12932:12940   */\n      dup7\n        /* \"#utility.yul\":12928:12947   */\n      and\n        /* \"#utility.yul\":12921:12926   */\n      dup5\n        /* \"#utility.yul\":12918:12948   */\n      or\n        /* \"#utility.yul\":12908:12948   */\n      swap3\n      pop\n        /* \"#utility.yul\":12637:12954   */\n      pop\n      pop\n        /* \"#utility.yul\":12561:12954   */\n      swap4\n      swap3\n      pop\n      pop\n      pop\n      jump\t// out\n        /* \"#utility.yul\":12960:13020   */\n    tag_186:\n        /* \"#utility.yul\":12988:12991   */\n      0x00\n        /* \"#utility.yul\":13009:13014   */\n      dup2\n        /* \"#utility.yul\":13002:13014   */\n      swap1\n      pop\n        /* \"#utility.yul\":12960:13020   */\n      swap2\n      swap1\n      pop\n      jump\t// out\n        /* \"#utility.yul\":13026:13168   */\n    tag_187:\n        /* \"#utility.yul\":13076:13085   */\n      0x00\n        /* \"#utility.yul\":13109:13162   */\n      tag_344\n        /* \"#utility.yul\":13127:13161   */\n      tag_345\n        /* \"#utility.yul\":13136:13160   */\n      tag_346\n        /* \"#utility.yul\":13154:13159   */\n      dup5\n        /* \"#utility.yul\":13136:13160   */\n      tag_149\n      jump\t// in\n    tag_346:\n        /* \"#utility.yul\":13127:13161   */\n      tag_186\n      jump\t// in\n    tag_345:\n        /* \"#utility.yul\":13109:13162   */\n      tag_149\n      jump\t// in\n    tag_344:\n        /* \"#utility.yul\":13096:13162   */\n      swap1\n      pop\n        /* \"#utility.yul\":13026:13168   */\n      swap2\n      swap1\n      pop\n      jump\t// out\n        /* \"#utility.yul\":13174:13249   */\n    tag_188:\n        /* \"#utility.yul\":13217:13220   */\n      0x00\n        /* \"#utility.yul\":13238:13243   */\n      dup2\n        /* \"#utility.yul\":13231:13243   */\n      swap1\n      pop\n        /* \"#utility.yul\":13174:13249   */\n      swap2\n      swap1\n      pop\n      jump\t// out\n        /* \"#utility.yul\":13255:13524   */\n    tag_189:\n        /* \"#utility.yul\":13365:13404   */\n      tag_349\n        /* \"#utility.yul\":13396:13403   */\n      dup4\n        /* \"#utility.yul\":13365:13404   */\n      tag_187\n      jump\t// in\n    tag_349:\n        /* \"#utility.yul\":13426:13517   */\n      tag_350\n        /* \"#utility.yul\":13475:13516   */\n      tag_351\n        /* \"#utility.yul\":13499:13515   */\n      dup3\n        /* \"#utility.yul\":13475:13516   */\n      tag_188\n      jump\t// in\n    tag_351:\n        /* \"#utility.yul\":13467:13473   */\n      dup5\n        /* \"#utility.yul\":13460:13464   */\n      dup5\n        /* \"#utility.yul\":13454:13465   */\n      sload\n        /* \"#utility.yul\":13426:13517   */\n      tag_185\n      jump\t// in\n    tag_350:\n        /* \"#utility.yul\":13420:13424   */\n      dup3\n        /* \"#utility.yul\":13413:13518   */\n      sstore\n        /* \"#utility.yul\":13331:13524   */\n      pop\n        /* \"#utility.yul\":13255:13524   */\n      pop\n      pop\n      pop\n      jump\t// out\n        /* \"#utility.yul\":13530:13603   */\n    tag_190:\n        /* \"#utility.yul\":13575:13578   */\n      0x00\n        /* \"#utility.yul\":13530:13603   */\n      swap1\n      jump\t// out\n        /* \"#utility.yul\":13609:13798   */\n    tag_191:\n        /* \"#utility.yul\":13686:13718   */\n      tag_354\n      tag_190\n      jump\t// in\n    tag_354:\n        /* \"#utility.yul\":13727:13792   */\n      tag_355\n        /* \"#utility.yul\":13785:13791   */\n      dup2\n        /* \"#utility.yul\":13777:13783   */\n      dup5\n        /* \"#utility.yul\":13771:13775   */\n      dup5\n        /* \"#utility.yul\":13727:13792   */\n      tag_189\n      jump\t// in\n    tag_355:\n        /* \"#utility.yul\":13662:13798   */\n      pop\n        /* \"#utility.yul\":13609:13798   */\n      pop\n      pop\n      jump\t// out\n        /* \"#utility.yul\":13804:13990   */\n    tag_192:\n        /* \"#utility.yul\":13864:13984   */\n    tag_357:\n        /* \"#utility.yul\":13881:13884   */\n      dup2\n        /* \"#utility.yul\":13874:13879   */\n      dup2\n        /* \"#utility.yul\":13871:13885   */\n      lt\n        /* \"#utility.yul\":13864:13984   */\n      iszero\n      tag_359\n      jumpi\n        /* \"#utility.yul\":13935:13974   */\n      tag_360\n        /* \"#utility.yul\":13972:13973   */\n      0x00\n        /* \"#utility.yul\":13965:13970   */\n      dup3\n        /* \"#utility.yul\":13935:13974   */\n      tag_191\n      jump\t// in\n    tag_360:\n        /* \"#utility.yul\":13908:13909   */\n      0x01\n        /* \"#utility.yul\":13901:13906   */\n      dup2\n        /* \"#utility.yul\":13897:13910   */\n      add\n        /* \"#utility.yul\":13888:13910   */\n      swap1\n      pop\n        /* \"#utility.yul\":13864:13984   */\n      jump(tag_357)\n    tag_359:\n        /* \"#utility.yul\":13804:13990   */\n      pop\n      pop\n      jump\t// out\n        /* \"#utility.yul\":13996:14539   */\n    tag_193:\n        /* \"#utility.yul\":14097:14099   */\n      0x1f\n        /* \"#utility.yul\":14092:14095   */\n      dup3\n        /* \"#utility.yul\":14089:14100   */\n      gt\n        /* \"#utility.yul\":14086:14532   */\n      iszero\n      tag_362\n      jumpi\n        /* \"#utility.yul\":14131:14169   */\n      tag_363\n        /* \"#utility.yul\":14163:14168   */\n      dup2\n        /* \"#utility.yul\":14131:14169   */\n      tag_182\n      jump\t// in\n    tag_363:\n        /* \"#utility.yul\":14215:14244   */\n      tag_364\n        /* \"#utility.yul\":14233:14243   */\n      dup5\n        /* \"#utility.yul\":14215:14244   */\n      tag_183\n      jump\t// in\n    tag_364:\n        /* \"#utility.yul\":14205:14213   */\n      dup2\n        /* \"#utility.yul\":14201:14245   */\n      add\n        /* \"#utility.yul\":14398:14400   */\n      0x20\n        /* \"#utility.yul\":14386:14396   */\n      dup6\n        /* \"#utility.yul\":14383:14401   */\n      lt\n        /* \"#utility.yul\":14380:14429   */\n      iszero\n      tag_365\n      jumpi\n        /* \"#utility.yul\":14419:14427   */\n      dup2\n        /* \"#utility.yul\":14404:14427   */\n      swap1\n      pop\n        /* \"#utility.yul\":14380:14429   */\n    tag_365:\n        /* \"#utility.yul\":14442:14522   */\n      tag_366\n        /* \"#utility.yul\":14498:14520   */\n      tag_367\n        /* \"#utility.yul\":14516:14519   */\n      dup6\n        /* \"#utility.yul\":14498:14520   */\n      tag_183\n      jump\t// in\n    tag_367:\n        /* \"#utility.yul\":14488:14496   */\n      dup4\n        /* \"#utility.yul\":14484:14521   */\n      add\n        /* \"#utility.yul\":14471:14482   */\n      dup3\n        /* \"#utility.yul\":14442:14522   */\n      tag_192\n      jump\t// in\n    tag_366:\n        /* \"#utility.yul\":14101:14532   */\n      pop\n      pop\n        /* \"#utility.yul\":14086:14532   */\n    tag_362:\n        /* \"#utility.yul\":13996:14539   */\n      pop\n      pop\n      pop\n      jump\t// out\n        /* \"#utility.yul\":14545:14662   */\n    tag_194:\n        /* \"#utility.yul\":14599:14607   */\n      0x00\n        /* \"#utility.yul\":14649:14654   */\n      dup3\n        /* \"#utility.yul\":14643:14647   */\n      dup3\n        /* \"#utility.yul\":14639:14655   */\n      shr\n        /* \"#utility.yul\":14618:14655   */\n      swap1\n      pop\n        /* \"#utility.yul\":14545:14662   */\n      swap3\n      swap2\n      pop\n      pop\n      jump\t// out\n        /* \"#utility.yul\":14668:14837   */\n    tag_195:\n        /* \"#utility.yul\":14712:14718   */\n      0x00\n        /* \"#utility.yul\":14745:14796   */\n      tag_370\n        /* \"#utility.yul\":14793:14794   */\n      0x00\n        /* \"#utility.yul\":14789:14795   */\n      not\n        /* \"#utility.yul\":14781:14786   */\n      dup5\n        /* \"#utility.yul\":14778:14779   */\n      0x08\n        /* \"#utility.yul\":14774:14787   */\n      mul\n        /* \"#utility.yul\":14745:14796   */\n      tag_194\n      jump\t// in\n    tag_370:\n        /* \"#utility.yul\":14741:14797   */\n      not\n        /* \"#utility.yul\":14826:14830   */\n      dup1\n        /* \"#utility.yul\":14820:14824   */\n      dup4\n        /* \"#utility.yul\":14816:14831   */\n      and\n        /* \"#utility.yul\":14806:14831   */\n      swap2\n      pop\n        /* \"#utility.yul\":14719:14837   */\n      pop\n        /* \"#utility.yul\":14668:14837   */\n      swap3\n      swap2\n      pop\n      pop\n      jump\t// out\n        /* \"#utility.yul\":14842:15137   */\n    tag_196:\n        /* \"#utility.yul\":14918:14922   */\n      0x00\n        /* \"#utility.yul\":15064:15093   */\n      tag_372\n        /* \"#utility.yul\":15089:15092   */\n      dup4\n        /* \"#utility.yul\":15083:15087   */\n      dup4\n        /* \"#utility.yul\":15064:15093   */\n      tag_195\n      jump\t// in\n    tag_372:\n        /* \"#utility.yul\":15056:15093   */\n      swap2\n      pop\n        /* \"#utility.yul\":15126:15129   */\n      dup3\n        /* \"#utility.yul\":15123:15124   */\n      0x02\n        /* \"#utility.yul\":15119:15130   */\n      mul\n        /* \"#utility.yul\":15113:15117   */\n      dup3\n        /* \"#utility.yul\":15110:15131   */\n      or\n        /* \"#utility.yul\":15102:15131   */\n      swap1\n      pop\n        /* \"#utility.yul\":14842:15137   */\n      swap3\n      swap2\n      pop\n      pop\n      jump\t// out\n        /* \"#utility.yul\":15142:16537   */\n    tag_105:\n        /* \"#utility.yul\":15259:15296   */\n      tag_374\n        /* \"#utility.yul\":15292:15295   */\n      dup3\n        /* \"#utility.yul\":15259:15296   */\n      tag_167\n      jump\t// in\n    tag_374:\n        /* \"#utility.yul\":15361:15379   */\n      0xffffffffffffffff\n        /* \"#utility.yul\":15353:15359   */\n      dup2\n        /* \"#utility.yul\":15350:15380   */\n      gt\n        /* \"#utility.yul\":15347:15403   */\n      iszero\n      tag_375\n      jumpi\n        /* \"#utility.yul\":15383:15401   */\n      tag_376\n      tag_154\n      jump\t// in\n    tag_376:\n        /* \"#utility.yul\":15347:15403   */\n    tag_375:\n        /* \"#utility.yul\":15427:15465   */\n      tag_377\n        /* \"#utility.yul\":15459:15463   */\n      dup3\n        /* \"#utility.yul\":15453:15464   */\n      sload\n        /* \"#utility.yul\":15427:15465   */\n      tag_131\n      jump\t// in\n    tag_377:\n        /* \"#utility.yul\":15512:15579   */\n      tag_378\n        /* \"#utility.yul\":15572:15578   */\n      dup3\n        /* \"#utility.yul\":15564:15570   */\n      dup3\n        /* \"#utility.yul\":15558:15562   */\n      dup6\n        /* \"#utility.yul\":15512:15579   */\n      tag_193\n      jump\t// in\n    tag_378:\n        /* \"#utility.yul\":15606:15607   */\n      0x00\n        /* \"#utility.yul\":15630:15634   */\n      0x20\n        /* \"#utility.yul\":15617:15634   */\n      swap1\n      pop\n        /* \"#utility.yul\":15662:15664   */\n      0x1f\n        /* \"#utility.yul\":15654:15660   */\n      dup4\n        /* \"#utility.yul\":15651:15665   */\n      gt\n        /* \"#utility.yul\":15679:15680   */\n      0x01\n        /* \"#utility.yul\":15674:16292   */\n      dup2\n      eq\n      tag_380\n      jumpi\n        /* \"#utility.yul\":16336:16337   */\n      0x00\n        /* \"#utility.yul\":16353:16359   */\n      dup5\n        /* \"#utility.yul\":16350:16427   */\n      iszero\n      tag_381\n      jumpi\n        /* \"#utility.yul\":16402:16411   */\n      dup3\n        /* \"#utility.yul\":16397:16400   */\n      dup8\n        /* \"#utility.yul\":16393:16412   */\n      add\n        /* \"#utility.yul\":16387:16413   */\n      mload\n        /* \"#utility.yul\":16378:16413   */\n      swap1\n      pop\n        /* \"#utility.yul\":16350:16427   */\n    tag_381:\n        /* \"#utility.yul\":16453:16520   */\n      tag_382\n        /* \"#utility.yul\":16513:16519   */\n      dup6\n        /* \"#utility.yul\":16506:16511   */\n      dup3\n        /* \"#utility.yul\":16453:16520   */\n      tag_196\n      jump\t// in\n    tag_382:\n        /* \"#utility.yul\":16447:16451   */\n      dup7\n        /* \"#utility.yul\":16440:16521   */\n      sstore\n        /* \"#utility.yul\":16309:16531   */\n      pop\n        /* \"#utility.yul\":15644:16531   */\n      jump(tag_379)\n        /* \"#utility.yul\":15674:16292   */\n    tag_380:\n        /* \"#utility.yul\":15726:15730   */\n      0x1f\n        /* \"#utility.yul\":15722:15731   */\n      not\n        /* \"#utility.yul\":15714:15720   */\n      dup5\n        /* \"#utility.yul\":15710:15732   */\n      and\n        /* \"#utility.yul\":15760:15797   */\n      tag_383\n        /* \"#utility.yul\":15792:15796   */\n      dup7\n        /* \"#utility.yul\":15760:15797   */\n      tag_182\n      jump\t// in\n    tag_383:\n        /* \"#utility.yul\":15819:15820   */\n      0x00\n        /* \"#utility.yul\":15833:16041   */\n    tag_384:\n        /* \"#utility.yul\":15847:15854   */\n      dup3\n        /* \"#utility.yul\":15844:15845   */\n      dup2\n        /* \"#utility.yul\":15841:15855   */\n      lt\n        /* \"#utility.yul\":15833:16041   */\n      iszero\n      tag_386\n      jumpi\n        /* \"#utility.yul\":15926:15935   */\n      dup5\n        /* \"#utility.yul\":15921:15924   */\n      dup10\n        /* \"#utility.yul\":15917:15936   */\n      add\n        /* \"#utility.yul\":15911:15937   */\n      mload\n        /* \"#utility.yul\":15903:15909   */\n      dup3\n        /* \"#utility.yul\":15896:15938   */\n      sstore\n        /* \"#utility.yul\":15977:15978   */\n      0x01\n        /* \"#utility.yul\":15969:15975   */\n      dup3\n        /* \"#utility.yul\":15965:15979   */\n      add\n        /* \"#utility.yul\":15955:15979   */\n      swap2\n      pop\n        /* \"#utility.yul\":16024:16026   */\n      0x20\n        /* \"#utility.yul\":16013:16022   */\n      dup6\n        /* \"#utility.yul\":16009:16027   */\n      add\n        /* \"#utility.yul\":15996:16027   */\n      swap5\n      pop\n        /* \"#utility.yul\":15870:15874   */\n      0x20\n        /* \"#utility.yul\":15867:15868   */\n      dup2\n        /* \"#utility.yul\":15863:15875   */\n      add\n        /* \"#utility.yul\":15858:15875   */\n      swap1\n      pop\n        /* \"#utility.yul\":15833:16041   */\n      jump(tag_384)\n    tag_386:\n        /* \"#utility.yul\":16069:16075   */\n      dup7\n        /* \"#utility.yul\":16060:16067   */\n      dup4\n        /* \"#utility.yul\":16057:16076   */\n      lt\n        /* \"#utility.yul\":16054:16233   */\n      iszero\n      tag_387\n      jumpi\n        /* \"#utility.yul\":16127:16136   */\n      dup5\n        /* \"#utility.yul\":16122:16125   */\n      dup10\n        /* \"#utility.yul\":16118:16137   */\n      add\n        /* \"#utility.yul\":16112:16138   */\n      mload\n        /* \"#utility.yul\":16170:16218   */\n      tag_388\n        /* \"#utility.yul\":16212:16216   */\n      0x1f\n        /* \"#utility.yul\":16204:16210   */\n      dup10\n        /* \"#utility.yul\":16200:16217   */\n      and\n        /* \"#utility.yul\":16189:16198   */\n      dup3\n        /* \"#utility.yul\":16170:16218   */\n      tag_195\n      jump\t// in\n    tag_388:\n        /* \"#utility.yul\":16162:16168   */\n      dup4\n        /* \"#utility.yul\":16155:16219   */\n      sstore\n        /* \"#utility.yul\":16077:16233   */\n      pop\n        /* \"#utility.yul\":16054:16233   */\n    tag_387:\n        /* \"#utility.yul\":16279:16280   */\n      0x01\n        /* \"#utility.yul\":16275:16276   */\n      0x02\n        /* \"#utility.yul\":16267:16273   */\n      dup9\n        /* \"#utility.yul\":16263:16277   */\n      mul\n        /* \"#utility.yul\":16259:16281   */\n      add\n        /* \"#utility.yul\":16253:16257   */\n      dup9\n        /* \"#utility.yul\":16246:16282   */\n      sstore\n        /* \"#utility.yul\":15681:16292   */\n      pop\n      pop\n      pop\n        /* \"#utility.yul\":15644:16531   */\n    tag_379:\n      pop\n        /* \"#utility.yul\":15234:16537   */\n      pop\n      pop\n      pop\n        /* \"#utility.yul\":15142:16537   */\n      pop\n      pop\n      jump\t// out\n        /* \"#utility.yul\":16543:16718   */\n    tag_197:\n        /* \"#utility.yul\":16683:16710   */\n      0x596f75206d757374206265206120636f6e7472696275746f7200000000000000\n        /* \"#utility.yul\":16679:16680   */\n      0x00\n        /* \"#utility.yul\":16671:16677   */\n      dup3\n        /* \"#utility.yul\":16667:16681   */\n      add\n        /* \"#utility.yul\":16660:16711   */\n      mstore\n        /* \"#utility.yul\":16543:16718   */\n      pop\n      jump\t// out\n        /* \"#utility.yul\":16724:17090   */\n    tag_198:\n        /* \"#utility.yul\":16866:16869   */\n      0x00\n        /* \"#utility.yul\":16887:16954   */\n      tag_391\n        /* \"#utility.yul\":16951:16953   */\n      0x19\n        /* \"#utility.yul\":16946:16949   */\n      dup4\n        /* \"#utility.yul\":16887:16954   */\n      tag_168\n      jump\t// in\n    tag_391:\n        /* \"#utility.yul\":16880:16954   */\n      swap2\n      pop\n        /* \"#utility.yul\":16963:17056   */\n      tag_392\n        /* \"#utility.yul\":17052:17055   */\n      dup3\n        /* \"#utility.yul\":16963:17056   */\n      tag_197\n      jump\t// in\n    tag_392:\n        /* \"#utility.yul\":17081:17083   */\n      0x20\n        /* \"#utility.yul\":17076:17079   */\n      dup3\n        /* \"#utility.yul\":17072:17084   */\n      add\n        /* \"#utility.yul\":17065:17084   */\n      swap1\n      pop\n        /* \"#utility.yul\":16724:17090   */\n      swap2\n      swap1\n      pop\n      jump\t// out\n        /* \"#utility.yul\":17096:17515   */\n    tag_109:\n        /* \"#utility.yul\":17262:17266   */\n      0x00\n        /* \"#utility.yul\":17300:17302   */\n      0x20\n        /* \"#utility.yul\":17289:17298   */\n      dup3\n        /* \"#utility.yul\":17285:17303   */\n      add\n        /* \"#utility.yul\":17277:17303   */\n      swap1\n      pop\n        /* \"#utility.yul\":17349:17358   */\n      dup2\n        /* \"#utility.yul\":17343:17347   */\n      dup2\n        /* \"#utility.yul\":17339:17359   */\n      sub\n        /* \"#utility.yul\":17335:17336   */\n      0x00\n        /* \"#utility.yul\":17324:17333   */\n      dup4\n        /* \"#utility.yul\":17320:17337   */\n      add\n        /* \"#utility.yul\":17313:17360   */\n      mstore\n        /* \"#utility.yul\":17377:17508   */\n      tag_394\n        /* \"#utility.yul\":17503:17507   */\n      dup2\n        /* \"#utility.yul\":17377:17508   */\n      tag_198\n      jump\t// in\n    tag_394:\n        /* \"#utility.yul\":17369:17508   */\n      swap1\n      pop\n        /* \"#utility.yul\":17096:17515   */\n      swap2\n      swap1\n      pop\n      jump\t// out\n        /* \"#utility.yul\":17521:17693   */\n    tag_199:\n        /* \"#utility.yul\":17661:17685   */\n      0x596f75206861766520616c726561647920766f74656400000000000000000000\n        /* \"#utility.yul\":17657:17658   */\n      0x00\n        /* \"#utility.yul\":17649:17655   */\n      dup3\n        /* \"#utility.yul\":17645:17659   */\n      add\n        /* \"#utility.yul\":17638:17686   */\n      mstore\n        /* \"#utility.yul\":17521:17693   */\n      pop\n      jump\t// out\n        /* \"#utility.yul\":17699:18065   */\n    tag_200:\n        /* \"#utility.yul\":17841:17844   */\n      0x00\n        /* \"#utility.yul\":17862:17929   */\n      tag_397\n        /* \"#utility.yul\":17926:17928   */\n      0x16\n        /* \"#utility.yul\":17921:17924   */\n      dup4\n        /* \"#utility.yul\":17862:17929   */\n      tag_168\n      jump\t// in\n    tag_397:\n        /* \"#utility.yul\":17855:17929   */\n      swap2\n      pop\n        /* \"#utility.yul\":17938:18031   */\n      tag_398\n        /* \"#utility.yul\":18027:18030   */\n      dup3\n        /* \"#utility.yul\":17938:18031   */\n      tag_199\n      jump\t// in\n    tag_398:\n        /* \"#utility.yul\":18056:18058   */\n      0x20\n        /* \"#utility.yul\":18051:18054   */\n      dup3\n        /* \"#utility.yul\":18047:18059   */\n      add\n        /* \"#utility.yul\":18040:18059   */\n      swap1\n      pop\n        /* \"#utility.yul\":17699:18065   */\n      swap2\n      swap1\n      pop\n      jump\t// out\n        /* \"#utility.yul\":18071:18490   */\n    tag_112:\n        /* \"#utility.yul\":18237:18241   */\n      0x00\n        /* \"#utility.yul\":18275:18277   */\n      0x20\n        /* \"#utility.yul\":18264:18273   */\n      dup3\n        /* \"#utility.yul\":18260:18278   */\n      add\n        /* \"#utility.yul\":18252:18278   */\n      swap1\n      pop\n        /* \"#utility.yul\":18324:18333   */\n      dup2\n        /* \"#utility.yul\":18318:18322   */\n      dup2\n        /* \"#utility.yul\":18314:18334   */\n      sub\n        /* \"#utility.yul\":18310:18311   */\n      0x00\n        /* \"#utility.yul\":18299:18308   */\n      dup4\n        /* \"#utility.yul\":18295:18312   */\n      add\n        /* \"#utility.yul\":18288:18335   */\n      mstore\n        /* \"#utility.yul\":18352:18483   */\n      tag_400\n        /* \"#utility.yul\":18478:18482   */\n      dup2\n        /* \"#utility.yul\":18352:18483   */\n      tag_200\n      jump\t// in\n    tag_400:\n        /* \"#utility.yul\":18344:18483   */\n      swap1\n      pop\n        /* \"#utility.yul\":18071:18490   */\n      swap2\n      swap1\n      pop\n      jump\t// out\n        /* \"#utility.yul\":18496:18676   */\n    tag_201:\n        /* \"#utility.yul\":18636:18668   */\n      0x746865207265717565737420686173206265656e20636f6d706c657465640000\n        /* \"#utility.yul\":18632:18633   */\n      0x00\n        /* \"#utility.yul\":18624:18630   */\n      dup3\n        /* \"#utility.yul\":18620:18634   */\n      add\n        /* \"#utility.yul\":18613:18669   */\n      mstore\n        /* \"#utility.yul\":18496:18676   */\n      pop\n      jump\t// out\n        /* \"#utility.yul\":18682:19048   */\n    tag_202:\n        /* \"#utility.yul\":18824:18827   */\n      0x00\n        /* \"#utility.yul\":18845:18912   */\n      tag_403\n        /* \"#utility.yul\":18909:18911   */\n      0x1e\n        /* \"#utility.yul\":18904:18907   */\n      dup4\n        /* \"#utility.yul\":18845:18912   */\n      tag_168\n      jump\t// in\n    tag_403:\n        /* \"#utility.yul\":18838:18912   */\n      swap2\n      pop\n        /* \"#utility.yul\":18921:19014   */\n      tag_404\n        /* \"#utility.yul\":19010:19013   */\n      dup3\n        /* \"#utility.yul\":18921:19014   */\n      tag_201\n      jump\t// in\n    tag_404:\n        /* \"#utility.yul\":19039:19041   */\n      0x20\n        /* \"#utility.yul\":19034:19037   */\n      dup3\n        /* \"#utility.yul\":19030:19042   */\n      add\n        /* \"#utility.yul\":19023:19042   */\n      swap1\n      pop\n        /* \"#utility.yul\":18682:19048   */\n      swap2\n      swap1\n      pop\n      jump\t// out\n        /* \"#utility.yul\":19054:19473   */\n    tag_121:\n        /* \"#utility.yul\":19220:19224   */\n      0x00\n        /* \"#utility.yul\":19258:19260   */\n      0x20\n        /* \"#utility.yul\":19247:19256   */\n      dup3\n        /* \"#utility.yul\":19243:19261   */\n      add\n        /* \"#utility.yul\":19235:19261   */\n      swap1\n      pop\n        /* \"#utility.yul\":19307:19316   */\n      dup2\n        /* \"#utility.yul\":19301:19305   */\n      dup2\n        /* \"#utility.yul\":19297:19317   */\n      sub\n        /* \"#utility.yul\":19293:19294   */\n      0x00\n        /* \"#utility.yul\":19282:19291   */\n      dup4\n        /* \"#utility.yul\":19278:19295   */\n      add\n        /* \"#utility.yul\":19271:19318   */\n      mstore\n        /* \"#utility.yul\":19335:19466   */\n      tag_406\n        /* \"#utility.yul\":19461:19465   */\n      dup2\n        /* \"#utility.yul\":19335:19466   */\n      tag_202\n      jump\t// in\n    tag_406:\n        /* \"#utility.yul\":19327:19466   */\n      swap1\n      pop\n        /* \"#utility.yul\":19054:19473   */\n      swap2\n      swap1\n      pop\n      jump\t// out\n        /* \"#utility.yul\":19479:19659   */\n    tag_203:\n        /* \"#utility.yul\":19527:19604   */\n      0x4e487b7100000000000000000000000000000000000000000000000000000000\n        /* \"#utility.yul\":19524:19525   */\n      0x00\n        /* \"#utility.yul\":19517:19605   */\n      mstore\n        /* \"#utility.yul\":19624:19628   */\n      0x12\n        /* \"#utility.yul\":19621:19622   */\n      0x04\n        /* \"#utility.yul\":19614:19629   */\n      mstore\n        /* \"#utility.yul\":19648:19652   */\n      0x24\n        /* \"#utility.yul\":19645:19646   */\n      0x00\n        /* \"#utility.yul\":19638:19653   */\n      revert\n        /* \"#utility.yul\":19665:19850   */\n    tag_123:\n        /* \"#utility.yul\":19705:19706   */\n      0x00\n        /* \"#utility.yul\":19722:19742   */\n      tag_409\n        /* \"#utility.yul\":19740:19741   */\n      dup3\n        /* \"#utility.yul\":19722:19742   */\n      tag_149\n      jump\t// in\n    tag_409:\n        /* \"#utility.yul\":19717:19742   */\n      swap2\n      pop\n        /* \"#utility.yul\":19756:19776   */\n      tag_410\n        /* \"#utility.yul\":19774:19775   */\n      dup4\n        /* \"#utility.yul\":19756:19776   */\n      tag_149\n      jump\t// in\n    tag_410:\n        /* \"#utility.yul\":19751:19776   */\n      swap3\n      pop\n        /* \"#utility.yul\":19795:19796   */\n      dup3\n        /* \"#utility.yul\":19785:19820   */\n      tag_411\n      jumpi\n        /* \"#utility.yul\":19800:19818   */\n      tag_412\n      tag_203\n      jump\t// in\n    tag_412:\n        /* \"#utility.yul\":19785:19820   */\n    tag_411:\n        /* \"#utility.yul\":19842:19843   */\n      dup3\n        /* \"#utility.yul\":19839:19840   */\n      dup3\n        /* \"#utility.yul\":19835:19844   */\n      div\n        /* \"#utility.yul\":19830:19844   */\n      swap1\n      pop\n        /* \"#utility.yul\":19665:19850   */\n      swap3\n      swap2\n      pop\n      pop\n      jump\t// out\n        /* \"#utility.yul\":19856:20031   */\n    tag_204:\n        /* \"#utility.yul\":19996:20023   */\n      0x6d616a6f7269747920646f6573206e6f7420737570706f727400000000000000\n        /* \"#utility.yul\":19992:19993   */\n      0x00\n        /* \"#utility.yul\":19984:19990   */\n      dup3\n        /* \"#utility.yul\":19980:19994   */\n      add\n        /* \"#utility.yul\":19973:20024   */\n      mstore\n        /* \"#utility.yul\":19856:20031   */\n      pop\n      jump\t// out\n        /* \"#utility.yul\":20037:20403   */\n    tag_205:\n        /* \"#utility.yul\":20179:20182   */\n      0x00\n        /* \"#utility.yul\":20200:20267   */\n      tag_415\n        /* \"#utility.yul\":20264:20266   */\n      0x19\n        /* \"#utility.yul\":20259:20262   */\n      dup4\n        /* \"#utility.yul\":20200:20267   */\n      tag_168\n      jump\t// in\n    tag_415:\n        /* \"#utility.yul\":20193:20267   */\n      swap2\n      pop\n        /* \"#utility.yul\":20276:20369   */\n      tag_416\n        /* \"#utility.yul\":20365:20368   */\n      dup3\n        /* \"#utility.yul\":20276:20369   */\n      tag_204\n      jump\t// in\n    tag_416:\n        /* \"#utility.yul\":20394:20396   */\n      0x20\n        /* \"#utility.yul\":20389:20392   */\n      dup3\n        /* \"#utility.yul\":20385:20397   */\n      add\n        /* \"#utility.yul\":20378:20397   */\n      swap1\n      pop\n        /* \"#utility.yul\":20037:20403   */\n      swap2\n      swap1\n      pop\n      jump\t// out\n        /* \"#utility.yul\":20409:20828   */\n    tag_126:\n        /* \"#utility.yul\":20575:20579   */\n      0x00\n        /* \"#utility.yul\":20613:20615   */\n      0x20\n        /* \"#utility.yul\":20602:20611   */\n      dup3\n        /* \"#utility.yul\":20598:20616   */\n      add\n        /* \"#utility.yul\":20590:20616   */\n      swap1\n      pop\n        /* \"#utility.yul\":20662:20671   */\n      dup2\n        /* \"#utility.yul\":20656:20660   */\n      dup2\n        /* \"#utility.yul\":20652:20672   */\n      sub\n        /* \"#utility.yul\":20648:20649   */\n      0x00\n        /* \"#utility.yul\":20637:20646   */\n      dup4\n        /* \"#utility.yul\":20633:20650   */\n      add\n        /* \"#utility.yul\":20626:20673   */\n      mstore\n        /* \"#utility.yul\":20690:20821   */\n      tag_418\n        /* \"#utility.yul\":20816:20820   */\n      dup2\n        /* \"#utility.yul\":20690:20821   */\n      tag_205\n      jump\t// in\n    tag_418:\n        /* \"#utility.yul\":20682:20821   */\n      swap1\n      pop\n        /* \"#utility.yul\":20409:20828   */\n      swap2\n      swap1\n      pop\n      jump\t// out\n\n    auxdata: 0xa2646970667358221220e82c301e387d88c43d6c720e48d718ca3be046a002436c15acce2f972bdb645764736f6c63430008130033\n}\n",
				"bytecode": {
					"linkReferences": {},
					"object": "60806040523480156200001157600080fd5b5060405162001954380380620019548339818101604052810190620000379190620000e3565b8160048190555080426200004c919062000159565b600381905550606460028190555033600160006101000a81548173ffffffffffffffffffffffffffffffffffffffff021916908373ffffffffffffffffffffffffffffffffffffffff160217905550505062000194565b600080fd5b6000819050919050565b620000bd81620000a8565b8114620000c957600080fd5b50565b600081519050620000dd81620000b2565b92915050565b60008060408385031215620000fd57620000fc620000a3565b5b60006200010d85828601620000cc565b92505060206200012085828601620000cc565b9150509250929050565b7f4e487b7100000000000000000000000000000000000000000000000000000000600052601160045260246000fd5b60006200016682620000a8565b91506200017383620000a8565b92508282019050808211156200018e576200018d6200012a565b5b92915050565b6117b080620001a46000396000f3fe6080604052600436106100e85760003560e01c80635114cb521161008a5780639fb42b1f116100595780639fb42b1f146102c7578063c59ee1dc146102f2578063d4b839921461031d578063ea31db1314610348576100e8565b80635114cb52146102075780636f9fb98a1461023057806381d12c581461025b578063937e09b11461029c576100e8565b806339cb69fc116100c657806339cb69fc1461015f5780633eb7647b1461018a578063481c6a75146101b35780634cb6f4a5146101de576100e8565b806306e99fef146100ed5780631f6d4942146100f757806329dcb0cf14610134575b600080fd5b6100f561035f565b005b34801561010357600080fd5b5061011e60048036038101906101199190610c9d565b6104b7565b60405161012b9190610ce3565b60405180910390f35b34801561014057600080fd5b506101496104cf565b6040516101569190610ce3565b60405180910390f35b34801561016b57600080fd5b506101746104d5565b6040516101819190610ce3565b60405180910390f35b34801561019657600080fd5b506101b160048036038101906101ac9190610eae565b6104db565b005b3480156101bf57600080fd5b506101c8610627565b6040516101d59190610f2c565b60405180910390f35b3480156101ea57600080fd5b5061020560048036038101906102009190610f47565b61064d565b005b34801561021357600080fd5b5061022e60048036038101906102299190610f47565b6107f2565b005b34801561023c57600080fd5b506102456109e6565b6040516102529190610ce3565b60405180910390f35b34801561026757600080fd5b50610282600480360381019061027d9190610f47565b6109ee565b60405161029395949392919061101d565b60405180910390f35b3480156102a857600080fd5b506102b1610ad9565b6040516102be9190610ce3565b60405180910390f35b3480156102d357600080fd5b506102dc610adf565b6040516102e99190610ce3565b60405180910390f35b3480156102fe57600080fd5b50610307610ae5565b6040516103149190610ce3565b60405180910390f35b34801561032957600080fd5b50610332610aeb565b60405161033f9190610ce3565b60405180910390f35b34801561035457600080fd5b5061035d610af1565b005b60035442106103a3576040517f08c379a000000000000000000000000000000000000000000000000000000000815260040161039a906110c3565b60405180910390fd5b6002543410156103e8576040517f08c379a00000000000000000000000000000000000000000000000000000000081526004016103df9061112f565b60405180910390fd5b60008060003373ffffffffffffffffffffffffffffffffffffffff1673ffffffffffffffffffffffffffffffffffffffff168152602001908152602001600020540361044757600660008154809291906104419061117e565b91905055505b346000803373ffffffffffffffffffffffffffffffffffffffff1673ffffffffffffffffffffffffffffffffffffffff168152602001908152602001600020600082825461049591906111c6565b9250508190555034600560008282546104ae91906111c6565b92505081905550565b60006020528060005260406000206000915090505481565b60035481565b60065481565b600160009054906101000a900473ffffffffffffffffffffffffffffffffffffffff1673ffffffffffffffffffffffffffffffffffffffff163373ffffffffffffffffffffffffffffffffffffffff161461056b576040517f08c379a00000000000000000000000000000000000000000000000000000000081526004016105629061126c565b60405180910390fd5b60006007600060085481526020019081526020016000209050600860008154809291906105979061117e565b9190505550838160000190816105ad9190611498565b50828160010160006101000a81548173ffffffffffffffffffffffffffffffffffffffff021916908373ffffffffffffffffffffffffffffffffffffffff16021790555081816002018190555060008160030160006101000a81548160ff0219169083151502179055506000816004018190555050505050565b600160009054906101000a900473ffffffffffffffffffffffffffffffffffffffff1681565b60008060003373ffffffffffffffffffffffffffffffffffffffff1673ffffffffffffffffffffffffffffffffffffffff16815260200190815260200160002054116106ce576040517f08c379a00000000000000000000000000000000000000000000000000000000081526004016106c5906115b6565b60405180910390fd5b6000600760008381526020019081526020016000209050600015158160050160003373ffffffffffffffffffffffffffffffffffffffff1673ffffffffffffffffffffffffffffffffffffffff16815260200190815260200160002060009054906101000a900460ff1615151461077a576040517f08c379a000000000000000000000000000000000000000000000000000000000815260040161077190611622565b60405180910390fd5b60018160050160003373ffffffffffffffffffffffffffffffffffffffff1673ffffffffffffffffffffffffffffffffffffffff16815260200190815260200160002060006101000a81548160ff0219169083151502179055508060040160008154809291906107e99061117e565b91905055505050565b600160009054906101000a900473ffffffffffffffffffffffffffffffffffffffff1673ffffffffffffffffffffffffffffffffffffffff163373ffffffffffffffffffffffffffffffffffffffff1614610882576040517f08c379a00000000000000000000000000000000000000000000000000000000081526004016108799061126c565b60405180910390fd5b600454600554101561089357600080fd5b6000600760008381526020019081526020016000209050600015158160030160009054906101000a900460ff16151514610902576040517f08c379a00000000000000000000000000000000000000000000000000000000081526004016108f99061168e565b60405180910390fd5b600260065461091191906116dd565b816004015411610956576040517f08c379a000000000000000000000000000000000000000000000000000000000815260040161094d9061175a565b60405180910390fd5b8060010160009054906101000a900473ffffffffffffffffffffffffffffffffffffffff1673ffffffffffffffffffffffffffffffffffffffff166108fc82600201549081150290604051600060405180830381858888f193505050501580156109c4573d6000803e3d6000fd5b5060018160030160006101000a81548160ff0219169083151502179055505050565b600047905090565b6007602052806000526040600020600091509050806000018054610a11906112bb565b80601f0160208091040260200160405190810160405280929190818152602001828054610a3d906112bb565b8015610a8a5780601f10610a5f57610100808354040283529160200191610a8a565b820191906000526020600020905b815481529060010190602001808311610a6d57829003601f168201915b5050505050908060010160009054906101000a900473ffffffffffffffffffffffffffffffffffffffff16908060020154908060030160009054906101000a900460ff16908060040154905085565b60025481565b60085481565b60055481565b60045481565b6003544211610aff57600080fd5b60045460055410610b0f57600080fd5b60008060003373ffffffffffffffffffffffffffffffffffffffff1673ffffffffffffffffffffffffffffffffffffffff1681526020019081526020016000205411610b5a57600080fd5b60003390508073ffffffffffffffffffffffffffffffffffffffff166108fc6000803373ffffffffffffffffffffffffffffffffffffffff1673ffffffffffffffffffffffffffffffffffffffff168152602001908152602001600020549081150290604051600060405180830381858888f19350505050158015610be3573d6000803e3d6000fd5b5060008060003373ffffffffffffffffffffffffffffffffffffffff1673ffffffffffffffffffffffffffffffffffffffff1681526020019081526020016000208190555050565b6000604051905090565b600080fd5b600080fd5b600073ffffffffffffffffffffffffffffffffffffffff82169050919050565b6000610c6a82610c3f565b9050919050565b610c7a81610c5f565b8114610c8557600080fd5b50565b600081359050610c9781610c71565b92915050565b600060208284031215610cb357610cb2610c35565b5b6000610cc184828501610c88565b91505092915050565b6000819050919050565b610cdd81610cca565b82525050565b6000602082019050610cf86000830184610cd4565b92915050565b600080fd5b600080fd5b6000601f19601f8301169050919050565b7f4e487b7100000000000000000000000000000000000000000000000000000000600052604160045260246000fd5b610d5182610d08565b810181811067ffffffffffffffff82111715610d7057610d6f610d19565b5b80604052505050565b6000610d83610c2b565b9050610d8f8282610d48565b919050565b600067ffffffffffffffff821115610daf57610dae610d19565b5b610db882610d08565b9050602081019050919050565b82818337600083830152505050565b6000610de7610de284610d94565b610d79565b905082815260208101848484011115610e0357610e02610d03565b5b610e0e848285610dc5565b509392505050565b600082601f830112610e2b57610e2a610cfe565b5b8135610e3b848260208601610dd4565b91505092915050565b6000610e4f82610c3f565b9050919050565b610e5f81610e44565b8114610e6a57600080fd5b50565b600081359050610e7c81610e56565b92915050565b610e8b81610cca565b8114610e9657600080fd5b50565b600081359050610ea881610e82565b92915050565b600080600060608486031215610ec757610ec6610c35565b5b600084013567ffffffffffffffff811115610ee557610ee4610c3a565b5b610ef186828701610e16565b9350506020610f0286828701610e6d565b9250506040610f1386828701610e99565b9150509250925092565b610f2681610c5f565b82525050565b6000602082019050610f416000830184610f1d565b92915050565b600060208284031215610f5d57610f5c610c35565b5b6000610f6b84828501610e99565b91505092915050565b600081519050919050565b600082825260208201905092915050565b60005b83811015610fae578082015181840152602081019050610f93565b60008484015250505050565b6000610fc582610f74565b610fcf8185610f7f565b9350610fdf818560208601610f90565b610fe881610d08565b840191505092915050565b610ffc81610e44565b82525050565b60008115159050919050565b61101781611002565b82525050565b600060a08201905081810360008301526110378188610fba565b90506110466020830187610ff3565b6110536040830186610cd4565b611060606083018561100e565b61106d6080830184610cd4565b9695505050505050565b7f54696d65206c696d697420686173206578636565646564000000000000000000600082015250565b60006110ad601783610f7f565b91506110b882611077565b602082019050919050565b600060208201905081810360008301526110dc816110a0565b9050919050565b7f4d696e696d756d20636f6e747269627574696f6e206973206e6f74206d657400600082015250565b6000611119601f83610f7f565b9150611124826110e3565b602082019050919050565b600060208201905081810360008301526111488161110c565b9050919050565b7f4e487b7100000000000000000000000000000000000000000000000000000000600052601160045260246000fd5b600061118982610cca565b91507fffffffffffffffffffffffffffffffffffffffffffffffffffffffffffffffff82036111bb576111ba61114f565b5b600182019050919050565b60006111d182610cca565b91506111dc83610cca565b92508282019050808211156111f4576111f361114f565b5b92915050565b7f4f6e6c79206d616e616765722063616e2061636365737320746869732066756e60008201527f6374696f6e000000000000000000000000000000000000000000000000000000602082015250565b6000611256602583610f7f565b9150611261826111fa565b604082019050919050565b6000602082019050818103600083015261128581611249565b9050919050565b7f4e487b7100000000000000000000000000000000000000000000000000000000600052602260045260246000fd5b600060028204905060018216806112d357607f821691505b6020821081036112e6576112e561128c565b5b50919050565b60008190508160005260206000209050919050565b60006020601f8301049050919050565b600082821b905092915050565b60006008830261134e7fffffffffffffffffffffffffffffffffffffffffffffffffffffffffffffffff82611311565b6113588683611311565b95508019841693508086168417925050509392505050565b6000819050919050565b600061139561139061138b84610cca565b611370565b610cca565b9050919050565b6000819050919050565b6113af8361137a565b6113c36113bb8261139c565b84845461131e565b825550505050565b600090565b6113d86113cb565b6113e38184846113a6565b505050565b5b81811015611407576113fc6000826113d0565b6001810190506113e9565b5050565b601f82111561144c5761141d816112ec565b61142684611301565b81016020851015611435578190505b61144961144185611301565b8301826113e8565b50505b505050565b600082821c905092915050565b600061146f60001984600802611451565b1980831691505092915050565b6000611488838361145e565b9150826002028217905092915050565b6114a182610f74565b67ffffffffffffffff8111156114ba576114b9610d19565b5b6114c482546112bb565b6114cf82828561140b565b600060209050601f83116001811461150257600084156114f0578287015190505b6114fa858261147c565b865550611562565b601f198416611510866112ec565b60005b8281101561153857848901518255600182019150602085019450602081019050611513565b868310156115555784890151611551601f89168261145e565b8355505b6001600288020188555050505b505050505050565b7f596f75206d757374206265206120636f6e7472696275746f7200000000000000600082015250565b60006115a0601983610f7f565b91506115ab8261156a565b602082019050919050565b600060208201905081810360008301526115cf81611593565b9050919050565b7f596f75206861766520616c726561647920766f74656400000000000000000000600082015250565b600061160c601683610f7f565b9150611617826115d6565b602082019050919050565b6000602082019050818103600083015261163b816115ff565b9050919050565b7f746865207265717565737420686173206265656e20636f6d706c657465640000600082015250565b6000611678601e83610f7f565b915061168382611642565b602082019050919050565b600060208201905081810360008301526116a78161166b565b9050919050565b7f4e487b7100000000000000000000000000000000000000000000000000000000600052601260045260246000fd5b60006116e882610cca565b91506116f383610cca565b925082611703576117026116ae565b5b828204905092915050565b7f6d616a6f7269747920646f6573206e6f7420737570706f727400000000000000600082015250565b6000611744601983610f7f565b915061174f8261170e565b602082019050919050565b6000602082019050818103600083015261177381611737565b905091905056fea2646970667358221220e82c301e387d88c43d6c720e48d718ca3be046a002436c15acce2f972bdb645764736f6c63430008130033",
					"opcodes": "PUSH1 0x80 PUSH1 0x40 MSTORE CALLVALUE DUP1 ISZERO PUSH3 0x11 JUMPI PUSH1 0x0 DUP1 REVERT JUMPDEST POP PUSH1 0x40 MLOAD PUSH3 0x1954 CODESIZE SUB DUP1 PUSH3 0x1954 DUP4 CODECOPY DUP2 DUP2 ADD PUSH1 0x40 MSTORE DUP2 ADD SWAP1 PUSH3 0x37 SWAP2 SWAP1 PUSH3 0xE3 JUMP JUMPDEST DUP2 PUSH1 0x4 DUP2 SWAP1 SSTORE POP DUP1 TIMESTAMP PUSH3 0x4C SWAP2 SWAP1 PUSH3 0x159 JUMP JUMPDEST PUSH1 0x3 DUP2 SWAP1 SSTORE POP PUSH1 0x64 PUSH1 0x2 DUP2 SWAP1 SSTORE POP CALLER PUSH1 0x1 PUSH1 0x0 PUSH2 0x100 EXP DUP2 SLOAD DUP2 PUSH20 0xFFFFFFFFFFFFFFFFFFFFFFFFFFFFFFFFFFFFFFFF MUL NOT AND SWAP1 DUP4 PUSH20 0xFFFFFFFFFFFFFFFFFFFFFFFFFFFFFFFFFFFFFFFF AND MUL OR SWAP1 SSTORE POP POP POP PUSH3 0x194 JUMP JUMPDEST PUSH1 0x0 DUP1 REVERT JUMPDEST PUSH1 0x0 DUP2 SWAP1 POP SWAP2 SWAP1 POP JUMP JUMPDEST PUSH3 0xBD DUP2 PUSH3 0xA8 JUMP JUMPDEST DUP2 EQ PUSH3 0xC9 JUMPI PUSH1 0x0 DUP1 REVERT JUMPDEST POP JUMP JUMPDEST PUSH1 0x0 DUP2 MLOAD SWAP1 POP PUSH3 0xDD DUP2 PUSH3 0xB2 JUMP JUMPDEST SWAP3 SWAP2 POP POP JUMP JUMPDEST PUSH1 0x0 DUP1 PUSH1 0x40 DUP4 DUP6 SUB SLT ISZERO PUSH3 0xFD JUMPI PUSH3 0xFC PUSH3 0xA3 JUMP JUMPDEST JUMPDEST PUSH1 0x0 PUSH3 0x10D DUP6 DUP3 DUP7 ADD PUSH3 0xCC JUMP JUMPDEST SWAP3 POP POP PUSH1 0x20 PUSH3 0x120 DUP6 DUP3 DUP7 ADD PUSH3 0xCC JUMP JUMPDEST SWAP2 POP POP SWAP3 POP SWAP3 SWAP1 POP JUMP JUMPDEST PUSH32 0x4E487B7100000000000000000000000000000000000000000000000000000000 PUSH1 0x0 MSTORE PUSH1 0x11 PUSH1 0x4 MSTORE PUSH1 0x24 PUSH1 0x0 REVERT JUMPDEST PUSH1 0x0 PUSH3 0x166 DUP3 PUSH3 0xA8 JUMP JUMPDEST SWAP2 POP PUSH3 0x173 DUP4 PUSH3 0xA8 JUMP JUMPDEST SWAP3 POP DUP3 DUP3 ADD SWAP1 POP DUP1 DUP3 GT ISZERO PUSH3 0x18E JUMPI PUSH3 0x18D PUSH3 0x12A JUMP JUMPDEST JUMPDEST SWAP3 SWAP2 POP POP JUMP JUMPDEST PUSH2 0x17B0 DUP1 PUSH3 0x1A4 PUSH1 0x0 CODECOPY PUSH1 0x0 RETURN INVALID PUSH1 0x80 PUSH1 0x40 MSTORE PUSH1 0x4 CALLDATASIZE LT PUSH2 0xE8 JUMPI PUSH1 0x0 CALLDATALOAD PUSH1 0xE0 SHR DUP1 PUSH4 0x5114CB52 GT PUSH2 0x8A JUMPI DUP1 PUSH4 0x9FB42B1F GT PUSH2 0x59 JUMPI DUP1 PUSH4 0x9FB42B1F EQ PUSH2 0x2C7 JUMPI DUP1 PUSH4 0xC59EE1DC EQ PUSH2 0x2F2 JUMPI DUP1 PUSH4 0xD4B83992 EQ PUSH2 0x31D JUMPI DUP1 PUSH4 0xEA31DB13 EQ PUSH2 0x348 JUMPI PUSH2 0xE8 JUMP JUMPDEST DUP1 PUSH4 0x5114CB52 EQ PUSH2 0x207 JUMPI DUP1 PUSH4 0x6F9FB98A EQ PUSH2 0x230 JUMPI DUP1 PUSH4 0x81D12C58 EQ PUSH2 0x25B JUMPI DUP1 PUSH4 0x937E09B1 EQ PUSH2 0x29C JUMPI PUSH2 0xE8 JUMP JUMPDEST DUP1 PUSH4 0x39CB69FC GT PUSH2 0xC6 JUMPI DUP1 PUSH4 0x39CB69FC EQ PUSH2 0x15F JUMPI DUP1 PUSH4 0x3EB7647B EQ PUSH2 0x18A JUMPI DUP1 PUSH4 0x481C6A75 EQ PUSH2 0x1B3 JUMPI DUP1 PUSH4 0x4CB6F4A5 EQ PUSH2 0x1DE JUMPI PUSH2 0xE8 JUMP JUMPDEST DUP1 PUSH4 0x6E99FEF EQ PUSH2 0xED JUMPI DUP1 PUSH4 0x1F6D4942 EQ PUSH2 0xF7 JUMPI DUP1 PUSH4 0x29DCB0CF EQ PUSH2 0x134 JUMPI JUMPDEST PUSH1 0x0 DUP1 REVERT JUMPDEST PUSH2 0xF5 PUSH2 0x35F JUMP JUMPDEST STOP JUMPDEST CALLVALUE DUP1 ISZERO PUSH2 0x103 JUMPI PUSH1 0x0 DUP1 REVERT JUMPDEST POP PUSH2 0x11E PUSH1 0x4 DUP1 CALLDATASIZE SUB DUP2 ADD SWAP1 PUSH2 0x119 SWAP2 SWAP1 PUSH2 0xC9D JUMP JUMPDEST PUSH2 0x4B7 JUMP JUMPDEST PUSH1 0x40 MLOAD PUSH2 0x12B SWAP2 SWAP1 PUSH2 0xCE3 JUMP JUMPDEST PUSH1 0x40 MLOAD DUP1 SWAP2 SUB SWAP1 RETURN JUMPDEST CALLVALUE DUP1 ISZERO PUSH2 0x140 JUMPI PUSH1 0x0 DUP1 REVERT JUMPDEST POP PUSH2 0x149 PUSH2 0x4CF JUMP JUMPDEST PUSH1 0x40 MLOAD PUSH2 0x156 SWAP2 SWAP1 PUSH2 0xCE3 JUMP JUMPDEST PUSH1 0x40 MLOAD DUP1 SWAP2 SUB SWAP1 RETURN JUMPDEST CALLVALUE DUP1 ISZERO PUSH2 0x16B JUMPI PUSH1 0x0 DUP1 REVERT JUMPDEST POP PUSH2 0x174 PUSH2 0x4D5 JUMP JUMPDEST PUSH1 0x40 MLOAD PUSH2 0x181 SWAP2 SWAP1 PUSH2 0xCE3 JUMP JUMPDEST PUSH1 0x40 MLOAD DUP1 SWAP2 SUB SWAP1 RETURN JUMPDEST CALLVALUE DUP1 ISZERO PUSH2 0x196 JUMPI PUSH1 0x0 DUP1 REVERT JUMPDEST POP PUSH2 0x1B1 PUSH1 0x4 DUP1 CALLDATASIZE SUB DUP2 ADD SWAP1 PUSH2 0x1AC SWAP2 SWAP1 PUSH2 0xEAE JUMP JUMPDEST PUSH2 0x4DB JUMP JUMPDEST STOP JUMPDEST CALLVALUE DUP1 ISZERO PUSH2 0x1BF JUMPI PUSH1 0x0 DUP1 REVERT JUMPDEST POP PUSH2 0x1C8 PUSH2 0x627 JUMP JUMPDEST PUSH1 0x40 MLOAD PUSH2 0x1D5 SWAP2 SWAP1 PUSH2 0xF2C JUMP JUMPDEST PUSH1 0x40 MLOAD DUP1 SWAP2 SUB SWAP1 RETURN JUMPDEST CALLVALUE DUP1 ISZERO PUSH2 0x1EA JUMPI PUSH1 0x0 DUP1 REVERT JUMPDEST POP PUSH2 0x205 PUSH1 0x4 DUP1 CALLDATASIZE SUB DUP2 ADD SWAP1 PUSH2 0x200 SWAP2 SWAP1 PUSH2 0xF47 JUMP JUMPDEST PUSH2 0x64D JUMP JUMPDEST STOP JUMPDEST CALLVALUE DUP1 ISZERO PUSH2 0x213 JUMPI PUSH1 0x0 DUP1 REVERT JUMPDEST POP PUSH2 0x22E PUSH1 0x4 DUP1 CALLDATASIZE SUB DUP2 ADD SWAP1 PUSH2 0x229 SWAP2 SWAP1 PUSH2 0xF47 JUMP JUMPDEST PUSH2 0x7F2 JUMP JUMPDEST STOP JUMPDEST CALLVALUE DUP1 ISZERO PUSH2 0x23C JUMPI PUSH1 0x0 DUP1 REVERT JUMPDEST POP PUSH2 0x245 PUSH2 0x9E6 JUMP JUMPDEST PUSH1 0x40 MLOAD PUSH2 0x252 SWAP2 SWAP1 PUSH2 0xCE3 JUMP JUMPDEST PUSH1 0x40 MLOAD DUP1 SWAP2 SUB SWAP1 RETURN JUMPDEST CALLVALUE DUP1 ISZERO PUSH2 0x267 JUMPI PUSH1 0x0 DUP1 REVERT JUMPDEST POP PUSH2 0x282 PUSH1 0x4 DUP1 CALLDATASIZE SUB DUP2 ADD SWAP1 PUSH2 0x27D SWAP2 SWAP1 PUSH2 0xF47 JUMP JUMPDEST PUSH2 0x9EE JUMP JUMPDEST PUSH1 0x40 MLOAD PUSH2 0x293 SWAP6 SWAP5 SWAP4 SWAP3 SWAP2 SWAP1 PUSH2 0x101D JUMP JUMPDEST PUSH1 0x40 MLOAD DUP1 SWAP2 SUB SWAP1 RETURN JUMPDEST CALLVALUE DUP1 ISZERO PUSH2 0x2A8 JUMPI PUSH1 0x0 DUP1 REVERT JUMPDEST POP PUSH2 0x2B1 PUSH2 0xAD9 JUMP JUMPDEST PUSH1 0x40 MLOAD PUSH2 0x2BE SWAP2 SWAP1 PUSH2 0xCE3 JUMP JUMPDEST PUSH1 0x40 MLOAD DUP1 SWAP2 SUB SWAP1 RETURN JUMPDEST CALLVALUE DUP1 ISZERO PUSH2 0x2D3 JUMPI PUSH1 0x0 DUP1 REVERT JUMPDEST POP PUSH2 0x2DC PUSH2 0xADF JUMP JUMPDEST PUSH1 0x40 MLOAD PUSH2 0x2E9 SWAP2 SWAP1 PUSH2 0xCE3 JUMP JUMPDEST PUSH1 0x40 MLOAD DUP1 SWAP2 SUB SWAP1 RETURN JUMPDEST CALLVALUE DUP1 ISZERO PUSH2 0x2FE JUMPI PUSH1 0x0 DUP1 REVERT JUMPDEST POP PUSH2 0x307 PUSH2 0xAE5 JUMP JUMPDEST PUSH1 0x40 MLOAD PUSH2 0x314 SWAP2 SWAP1 PUSH2 0xCE3 JUMP JUMPDEST PUSH1 0x40 MLOAD DUP1 SWAP2 SUB SWAP1 RETURN JUMPDEST CALLVALUE DUP1 ISZERO PUSH2 0x329 JUMPI PUSH1 0x0 DUP1 REVERT JUMPDEST POP PUSH2 0x332 PUSH2 0xAEB JUMP JUMPDEST PUSH1 0x40 MLOAD PUSH2 0x33F SWAP2 SWAP1 PUSH2 0xCE3 JUMP JUMPDEST PUSH1 0x40 MLOAD DUP1 SWAP2 SUB SWAP1 RETURN JUMPDEST CALLVALUE DUP1 ISZERO PUSH2 0x354 JUMPI PUSH1 0x0 DUP1 REVERT JUMPDEST POP PUSH2 0x35D PUSH2 0xAF1 JUMP JUMPDEST STOP JUMPDEST PUSH1 0x3 SLOAD TIMESTAMP LT PUSH2 0x3A3 JUMPI PUSH1 0x40 MLOAD PUSH32 0x8C379A000000000000000000000000000000000000000000000000000000000 DUP2 MSTORE PUSH1 0x4 ADD PUSH2 0x39A SWAP1 PUSH2 0x10C3 JUMP JUMPDEST PUSH1 0x40 MLOAD DUP1 SWAP2 SUB SWAP1 REVERT JUMPDEST PUSH1 0x2 SLOAD CALLVALUE LT ISZERO PUSH2 0x3E8 JUMPI PUSH1 0x40 MLOAD PUSH32 0x8C379A000000000000000000000000000000000000000000000000000000000 DUP2 MSTORE PUSH1 0x4 ADD PUSH2 0x3DF SWAP1 PUSH2 0x112F JUMP JUMPDEST PUSH1 0x40 MLOAD DUP1 SWAP2 SUB SWAP1 REVERT JUMPDEST PUSH1 0x0 DUP1 PUSH1 0x0 CALLER PUSH20 0xFFFFFFFFFFFFFFFFFFFFFFFFFFFFFFFFFFFFFFFF AND PUSH20 0xFFFFFFFFFFFFFFFFFFFFFFFFFFFFFFFFFFFFFFFF AND DUP2 MSTORE PUSH1 0x20 ADD SWAP1 DUP2 MSTORE PUSH1 0x20 ADD PUSH1 0x0 KECCAK256 SLOAD SUB PUSH2 0x447 JUMPI PUSH1 0x6 PUSH1 0x0 DUP2 SLOAD DUP1 SWAP3 SWAP2 SWAP1 PUSH2 0x441 SWAP1 PUSH2 0x117E JUMP JUMPDEST SWAP2 SWAP1 POP SSTORE POP JUMPDEST CALLVALUE PUSH1 0x0 DUP1 CALLER PUSH20 0xFFFFFFFFFFFFFFFFFFFFFFFFFFFFFFFFFFFFFFFF AND PUSH20 0xFFFFFFFFFFFFFFFFFFFFFFFFFFFFFFFFFFFFFFFF AND DUP2 MSTORE PUSH1 0x20 ADD SWAP1 DUP2 MSTORE PUSH1 0x20 ADD PUSH1 0x0 KECCAK256 PUSH1 0x0 DUP3 DUP3 SLOAD PUSH2 0x495 SWAP2 SWAP1 PUSH2 0x11C6 JUMP JUMPDEST SWAP3 POP POP DUP2 SWAP1 SSTORE POP CALLVALUE PUSH1 0x5 PUSH1 0x0 DUP3 DUP3 SLOAD PUSH2 0x4AE SWAP2 SWAP1 PUSH2 0x11C6 JUMP JUMPDEST SWAP3 POP POP DUP2 SWAP1 SSTORE POP JUMP JUMPDEST PUSH1 0x0 PUSH1 0x20 MSTORE DUP1 PUSH1 0x0 MSTORE PUSH1 0x40 PUSH1 0x0 KECCAK256 PUSH1 0x0 SWAP2 POP SWAP1 POP SLOAD DUP2 JUMP JUMPDEST PUSH1 0x3 SLOAD DUP2 JUMP JUMPDEST PUSH1 0x6 SLOAD DUP2 JUMP JUMPDEST PUSH1 0x1 PUSH1 0x0 SWAP1 SLOAD SWAP1 PUSH2 0x100 EXP SWAP1 DIV PUSH20 0xFFFFFFFFFFFFFFFFFFFFFFFFFFFFFFFFFFFFFFFF AND PUSH20 0xFFFFFFFFFFFFFFFFFFFFFFFFFFFFFFFFFFFFFFFF AND CALLER PUSH20 0xFFFFFFFFFFFFFFFFFFFFFFFFFFFFFFFFFFFFFFFF AND EQ PUSH2 0x56B JUMPI PUSH1 0x40 MLOAD PUSH32 0x8C379A000000000000000000000000000000000000000000000000000000000 DUP2 MSTORE PUSH1 0x4 ADD PUSH2 0x562 SWAP1 PUSH2 0x126C JUMP JUMPDEST PUSH1 0x40 MLOAD DUP1 SWAP2 SUB SWAP1 REVERT JUMPDEST PUSH1 0x0 PUSH1 0x7 PUSH1 0x0 PUSH1 0x8 SLOAD DUP2 MSTORE PUSH1 0x20 ADD SWAP1 DUP2 MSTORE PUSH1 0x20 ADD PUSH1 0x0 KECCAK256 SWAP1 POP PUSH1 0x8 PUSH1 0x0 DUP2 SLOAD DUP1 SWAP3 SWAP2 SWAP1 PUSH2 0x597 SWAP1 PUSH2 0x117E JUMP JUMPDEST SWAP2 SWAP1 POP SSTORE POP DUP4 DUP2 PUSH1 0x0 ADD SWAP1 DUP2 PUSH2 0x5AD SWAP2 SWAP1 PUSH2 0x1498 JUMP JUMPDEST POP DUP3 DUP2 PUSH1 0x1 ADD PUSH1 0x0 PUSH2 0x100 EXP DUP2 SLOAD DUP2 PUSH20 0xFFFFFFFFFFFFFFFFFFFFFFFFFFFFFFFFFFFFFFFF MUL NOT AND SWAP1 DUP4 PUSH20 0xFFFFFFFFFFFFFFFFFFFFFFFFFFFFFFFFFFFFFFFF AND MUL OR SWAP1 SSTORE POP DUP2 DUP2 PUSH1 0x2 ADD DUP2 SWAP1 SSTORE POP PUSH1 0x0 DUP2 PUSH1 0x3 ADD PUSH1 0x0 PUSH2 0x100 EXP DUP2 SLOAD DUP2 PUSH1 0xFF MUL NOT AND SWAP1 DUP4 ISZERO ISZERO MUL OR SWAP1 SSTORE POP PUSH1 0x0 DUP2 PUSH1 0x4 ADD DUP2 SWAP1 SSTORE POP POP POP POP POP JUMP JUMPDEST PUSH1 0x1 PUSH1 0x0 SWAP1 SLOAD SWAP1 PUSH2 0x100 EXP SWAP1 DIV PUSH20 0xFFFFFFFFFFFFFFFFFFFFFFFFFFFFFFFFFFFFFFFF AND DUP2 JUMP JUMPDEST PUSH1 0x0 DUP1 PUSH1 0x0 CALLER PUSH20 0xFFFFFFFFFFFFFFFFFFFFFFFFFFFFFFFFFFFFFFFF AND PUSH20 0xFFFFFFFFFFFFFFFFFFFFFFFFFFFFFFFFFFFFFFFF AND DUP2 MSTORE PUSH1 0x20 ADD SWAP1 DUP2 MSTORE PUSH1 0x20 ADD PUSH1 0x0 KECCAK256 SLOAD GT PUSH2 0x6CE JUMPI PUSH1 0x40 MLOAD PUSH32 0x8C379A000000000000000000000000000000000000000000000000000000000 DUP2 MSTORE PUSH1 0x4 ADD PUSH2 0x6C5 SWAP1 PUSH2 0x15B6 JUMP JUMPDEST PUSH1 0x40 MLOAD DUP1 SWAP2 SUB SWAP1 REVERT JUMPDEST PUSH1 0x0 PUSH1 0x7 PUSH1 0x0 DUP4 DUP2 MSTORE PUSH1 0x20 ADD SWAP1 DUP2 MSTORE PUSH1 0x20 ADD PUSH1 0x0 KECCAK256 SWAP1 POP PUSH1 0x0 ISZERO ISZERO DUP2 PUSH1 0x5 ADD PUSH1 0x0 CALLER PUSH20 0xFFFFFFFFFFFFFFFFFFFFFFFFFFFFFFFFFFFFFFFF AND PUSH20 0xFFFFFFFFFFFFFFFFFFFFFFFFFFFFFFFFFFFFFFFF AND DUP2 MSTORE PUSH1 0x20 ADD SWAP1 DUP2 MSTORE PUSH1 0x20 ADD PUSH1 0x0 KECCAK256 PUSH1 0x0 SWAP1 SLOAD SWAP1 PUSH2 0x100 EXP SWAP1 DIV PUSH1 0xFF AND ISZERO ISZERO EQ PUSH2 0x77A JUMPI PUSH1 0x40 MLOAD PUSH32 0x8C379A000000000000000000000000000000000000000000000000000000000 DUP2 MSTORE PUSH1 0x4 ADD PUSH2 0x771 SWAP1 PUSH2 0x1622 JUMP JUMPDEST PUSH1 0x40 MLOAD DUP1 SWAP2 SUB SWAP1 REVERT JUMPDEST PUSH1 0x1 DUP2 PUSH1 0x5 ADD PUSH1 0x0 CALLER PUSH20 0xFFFFFFFFFFFFFFFFFFFFFFFFFFFFFFFFFFFFFFFF AND PUSH20 0xFFFFFFFFFFFFFFFFFFFFFFFFFFFFFFFFFFFFFFFF AND DUP2 MSTORE PUSH1 0x20 ADD SWAP1 DUP2 MSTORE PUSH1 0x20 ADD PUSH1 0x0 KECCAK256 PUSH1 0x0 PUSH2 0x100 EXP DUP2 SLOAD DUP2 PUSH1 0xFF MUL NOT AND SWAP1 DUP4 ISZERO ISZERO MUL OR SWAP1 SSTORE POP DUP1 PUSH1 0x4 ADD PUSH1 0x0 DUP2 SLOAD DUP1 SWAP3 SWAP2 SWAP1 PUSH2 0x7E9 SWAP1 PUSH2 0x117E JUMP JUMPDEST SWAP2 SWAP1 POP SSTORE POP POP POP JUMP JUMPDEST PUSH1 0x1 PUSH1 0x0 SWAP1 SLOAD SWAP1 PUSH2 0x100 EXP SWAP1 DIV PUSH20 0xFFFFFFFFFFFFFFFFFFFFFFFFFFFFFFFFFFFFFFFF AND PUSH20 0xFFFFFFFFFFFFFFFFFFFFFFFFFFFFFFFFFFFFFFFF AND CALLER PUSH20 0xFFFFFFFFFFFFFFFFFFFFFFFFFFFFFFFFFFFFFFFF AND EQ PUSH2 0x882 JUMPI PUSH1 0x40 MLOAD PUSH32 0x8C379A000000000000000000000000000000000000000000000000000000000 DUP2 MSTORE PUSH1 0x4 ADD PUSH2 0x879 SWAP1 PUSH2 0x126C JUMP JUMPDEST PUSH1 0x40 MLOAD DUP1 SWAP2 SUB SWAP1 REVERT JUMPDEST PUSH1 0x4 SLOAD PUSH1 0x5 SLOAD LT ISZERO PUSH2 0x893 JUMPI PUSH1 0x0 DUP1 REVERT JUMPDEST PUSH1 0x0 PUSH1 0x7 PUSH1 0x0 DUP4 DUP2 MSTORE PUSH1 0x20 ADD SWAP1 DUP2 MSTORE PUSH1 0x20 ADD PUSH1 0x0 KECCAK256 SWAP1 POP PUSH1 0x0 ISZERO ISZERO DUP2 PUSH1 0x3 ADD PUSH1 0x0 SWAP1 SLOAD SWAP1 PUSH2 0x100 EXP SWAP1 DIV PUSH1 0xFF AND ISZERO ISZERO EQ PUSH2 0x902 JUMPI PUSH1 0x40 MLOAD PUSH32 0x8C379A000000000000000000000000000000000000000000000000000000000 DUP2 MSTORE PUSH1 0x4 ADD PUSH2 0x8F9 SWAP1 PUSH2 0x168E JUMP JUMPDEST PUSH1 0x40 MLOAD DUP1 SWAP2 SUB SWAP1 REVERT JUMPDEST PUSH1 0x2 PUSH1 0x6 SLOAD PUSH2 0x911 SWAP2 SWAP1 PUSH2 0x16DD JUMP JUMPDEST DUP2 PUSH1 0x4 ADD SLOAD GT PUSH2 0x956 JUMPI PUSH1 0x40 MLOAD PUSH32 0x8C379A000000000000000000000000000000000000000000000000000000000 DUP2 MSTORE PUSH1 0x4 ADD PUSH2 0x94D SWAP1 PUSH2 0x175A JUMP JUMPDEST PUSH1 0x40 MLOAD DUP1 SWAP2 SUB SWAP1 REVERT JUMPDEST DUP1 PUSH1 0x1 ADD PUSH1 0x0 SWAP1 SLOAD SWAP1 PUSH2 0x100 EXP SWAP1 DIV PUSH20 0xFFFFFFFFFFFFFFFFFFFFFFFFFFFFFFFFFFFFFFFF AND PUSH20 0xFFFFFFFFFFFFFFFFFFFFFFFFFFFFFFFFFFFFFFFF AND PUSH2 0x8FC DUP3 PUSH1 0x2 ADD SLOAD SWAP1 DUP2 ISZERO MUL SWAP1 PUSH1 0x40 MLOAD PUSH1 0x0 PUSH1 0x40 MLOAD DUP1 DUP4 SUB DUP2 DUP6 DUP9 DUP9 CALL SWAP4 POP POP POP POP ISZERO DUP1 ISZERO PUSH2 0x9C4 JUMPI RETURNDATASIZE PUSH1 0x0 DUP1 RETURNDATACOPY RETURNDATASIZE PUSH1 0x0 REVERT JUMPDEST POP PUSH1 0x1 DUP2 PUSH1 0x3 ADD PUSH1 0x0 PUSH2 0x100 EXP DUP2 SLOAD DUP2 PUSH1 0xFF MUL NOT AND SWAP1 DUP4 ISZERO ISZERO MUL OR SWAP1 SSTORE POP POP POP JUMP JUMPDEST PUSH1 0x0 SELFBALANCE SWAP1 POP SWAP1 JUMP JUMPDEST PUSH1 0x7 PUSH1 0x20 MSTORE DUP1 PUSH1 0x0 MSTORE PUSH1 0x40 PUSH1 0x0 KECCAK256 PUSH1 0x0 SWAP2 POP SWAP1 POP DUP1 PUSH1 0x0 ADD DUP1 SLOAD PUSH2 0xA11 SWAP1 PUSH2 0x12BB JUMP JUMPDEST DUP1 PUSH1 0x1F ADD PUSH1 0x20 DUP1 SWAP2 DIV MUL PUSH1 0x20 ADD PUSH1 0x40 MLOAD SWAP1 DUP2 ADD PUSH1 0x40 MSTORE DUP1 SWAP3 SWAP2 SWAP1 DUP2 DUP2 MSTORE PUSH1 0x20 ADD DUP3 DUP1 SLOAD PUSH2 0xA3D SWAP1 PUSH2 0x12BB JUMP JUMPDEST DUP1 ISZERO PUSH2 0xA8A JUMPI DUP1 PUSH1 0x1F LT PUSH2 0xA5F JUMPI PUSH2 0x100 DUP1 DUP4 SLOAD DIV MUL DUP4 MSTORE SWAP2 PUSH1 0x20 ADD SWAP2 PUSH2 0xA8A JUMP JUMPDEST DUP3 ADD SWAP2 SWAP1 PUSH1 0x0 MSTORE PUSH1 0x20 PUSH1 0x0 KECCAK256 SWAP1 JUMPDEST DUP2 SLOAD DUP2 MSTORE SWAP1 PUSH1 0x1 ADD SWAP1 PUSH1 0x20 ADD DUP1 DUP4 GT PUSH2 0xA6D JUMPI DUP3 SWAP1 SUB PUSH1 0x1F AND DUP3 ADD SWAP2 JUMPDEST POP POP POP POP POP SWAP1 DUP1 PUSH1 0x1 ADD PUSH1 0x0 SWAP1 SLOAD SWAP1 PUSH2 0x100 EXP SWAP1 DIV PUSH20 0xFFFFFFFFFFFFFFFFFFFFFFFFFFFFFFFFFFFFFFFF AND SWAP1 DUP1 PUSH1 0x2 ADD SLOAD SWAP1 DUP1 PUSH1 0x3 ADD PUSH1 0x0 SWAP1 SLOAD SWAP1 PUSH2 0x100 EXP SWAP1 DIV PUSH1 0xFF AND SWAP1 DUP1 PUSH1 0x4 ADD SLOAD SWAP1 POP DUP6 JUMP JUMPDEST PUSH1 0x2 SLOAD DUP2 JUMP JUMPDEST PUSH1 0x8 SLOAD DUP2 JUMP JUMPDEST PUSH1 0x5 SLOAD DUP2 JUMP JUMPDEST PUSH1 0x4 SLOAD DUP2 JUMP JUMPDEST PUSH1 0x3 SLOAD TIMESTAMP GT PUSH2 0xAFF JUMPI PUSH1 0x0 DUP1 REVERT JUMPDEST PUSH1 0x4 SLOAD PUSH1 0x5 SLOAD LT PUSH2 0xB0F JUMPI PUSH1 0x0 DUP1 REVERT JUMPDEST PUSH1 0x0 DUP1 PUSH1 0x0 CALLER PUSH20 0xFFFFFFFFFFFFFFFFFFFFFFFFFFFFFFFFFFFFFFFF AND PUSH20 0xFFFFFFFFFFFFFFFFFFFFFFFFFFFFFFFFFFFFFFFF AND DUP2 MSTORE PUSH1 0x20 ADD SWAP1 DUP2 MSTORE PUSH1 0x20 ADD PUSH1 0x0 KECCAK256 SLOAD GT PUSH2 0xB5A JUMPI PUSH1 0x0 DUP1 REVERT JUMPDEST PUSH1 0x0 CALLER SWAP1 POP DUP1 PUSH20 0xFFFFFFFFFFFFFFFFFFFFFFFFFFFFFFFFFFFFFFFF AND PUSH2 0x8FC PUSH1 0x0 DUP1 CALLER PUSH20 0xFFFFFFFFFFFFFFFFFFFFFFFFFFFFFFFFFFFFFFFF AND PUSH20 0xFFFFFFFFFFFFFFFFFFFFFFFFFFFFFFFFFFFFFFFF AND DUP2 MSTORE PUSH1 0x20 ADD SWAP1 DUP2 MSTORE PUSH1 0x20 ADD PUSH1 0x0 KECCAK256 SLOAD SWAP1 DUP2 ISZERO MUL SWAP1 PUSH1 0x40 MLOAD PUSH1 0x0 PUSH1 0x40 MLOAD DUP1 DUP4 SUB DUP2 DUP6 DUP9 DUP9 CALL SWAP4 POP POP POP POP ISZERO DUP1 ISZERO PUSH2 0xBE3 JUMPI RETURNDATASIZE PUSH1 0x0 DUP1 RETURNDATACOPY RETURNDATASIZE PUSH1 0x0 REVERT JUMPDEST POP PUSH1 0x0 DUP1 PUSH1 0x0 CALLER PUSH20 0xFFFFFFFFFFFFFFFFFFFFFFFFFFFFFFFFFFFFFFFF AND PUSH20 0xFFFFFFFFFFFFFFFFFFFFFFFFFFFFFFFFFFFFFFFF AND DUP2 MSTORE PUSH1 0x20 ADD SWAP1 DUP2 MSTORE PUSH1 0x20 ADD PUSH1 0x0 KECCAK256 DUP2 SWAP1 SSTORE POP POP JUMP JUMPDEST PUSH1 0x0 PUSH1 0x40 MLOAD SWAP1 POP SWAP1 JUMP JUMPDEST PUSH1 0x0 DUP1 REVERT JUMPDEST PUSH1 0x0 DUP1 REVERT JUMPDEST PUSH1 0x0 PUSH20 0xFFFFFFFFFFFFFFFFFFFFFFFFFFFFFFFFFFFFFFFF DUP3 AND SWAP1 POP SWAP2 SWAP1 POP JUMP JUMPDEST PUSH1 0x0 PUSH2 0xC6A DUP3 PUSH2 0xC3F JUMP JUMPDEST SWAP1 POP SWAP2 SWAP1 POP JUMP JUMPDEST PUSH2 0xC7A DUP2 PUSH2 0xC5F JUMP JUMPDEST DUP2 EQ PUSH2 0xC85 JUMPI PUSH1 0x0 DUP1 REVERT JUMPDEST POP JUMP JUMPDEST PUSH1 0x0 DUP2 CALLDATALOAD SWAP1 POP PUSH2 0xC97 DUP2 PUSH2 0xC71 JUMP JUMPDEST SWAP3 SWAP2 POP POP JUMP JUMPDEST PUSH1 0x0 PUSH1 0x20 DUP3 DUP5 SUB SLT ISZERO PUSH2 0xCB3 JUMPI PUSH2 0xCB2 PUSH2 0xC35 JUMP JUMPDEST JUMPDEST PUSH1 0x0 PUSH2 0xCC1 DUP5 DUP3 DUP6 ADD PUSH2 0xC88 JUMP JUMPDEST SWAP2 POP POP SWAP3 SWAP2 POP POP JUMP JUMPDEST PUSH1 0x0 DUP2 SWAP1 POP SWAP2 SWAP1 POP JUMP JUMPDEST PUSH2 0xCDD DUP2 PUSH2 0xCCA JUMP JUMPDEST DUP3 MSTORE POP POP JUMP JUMPDEST PUSH1 0x0 PUSH1 0x20 DUP3 ADD SWAP1 POP PUSH2 0xCF8 PUSH1 0x0 DUP4 ADD DUP5 PUSH2 0xCD4 JUMP JUMPDEST SWAP3 SWAP2 POP POP JUMP JUMPDEST PUSH1 0x0 DUP1 REVERT JUMPDEST PUSH1 0x0 DUP1 REVERT JUMPDEST PUSH1 0x0 PUSH1 0x1F NOT PUSH1 0x1F DUP4 ADD AND SWAP1 POP SWAP2 SWAP1 POP JUMP JUMPDEST PUSH32 0x4E487B7100000000000000000000000000000000000000000000000000000000 PUSH1 0x0 MSTORE PUSH1 0x41 PUSH1 0x4 MSTORE PUSH1 0x24 PUSH1 0x0 REVERT JUMPDEST PUSH2 0xD51 DUP3 PUSH2 0xD08 JUMP JUMPDEST DUP2 ADD DUP2 DUP2 LT PUSH8 0xFFFFFFFFFFFFFFFF DUP3 GT OR ISZERO PUSH2 0xD70 JUMPI PUSH2 0xD6F PUSH2 0xD19 JUMP JUMPDEST JUMPDEST DUP1 PUSH1 0x40 MSTORE POP POP POP JUMP JUMPDEST PUSH1 0x0 PUSH2 0xD83 PUSH2 0xC2B JUMP JUMPDEST SWAP1 POP PUSH2 0xD8F DUP3 DUP3 PUSH2 0xD48 JUMP JUMPDEST SWAP2 SWAP1 POP JUMP JUMPDEST PUSH1 0x0 PUSH8 0xFFFFFFFFFFFFFFFF DUP3 GT ISZERO PUSH2 0xDAF JUMPI PUSH2 0xDAE PUSH2 0xD19 JUMP JUMPDEST JUMPDEST PUSH2 0xDB8 DUP3 PUSH2 0xD08 JUMP JUMPDEST SWAP1 POP PUSH1 0x20 DUP2 ADD SWAP1 POP SWAP2 SWAP1 POP JUMP JUMPDEST DUP3 DUP2 DUP4 CALLDATACOPY PUSH1 0x0 DUP4 DUP4 ADD MSTORE POP POP POP JUMP JUMPDEST PUSH1 0x0 PUSH2 0xDE7 PUSH2 0xDE2 DUP5 PUSH2 0xD94 JUMP JUMPDEST PUSH2 0xD79 JUMP JUMPDEST SWAP1 POP DUP3 DUP2 MSTORE PUSH1 0x20 DUP2 ADD DUP5 DUP5 DUP5 ADD GT ISZERO PUSH2 0xE03 JUMPI PUSH2 0xE02 PUSH2 0xD03 JUMP JUMPDEST JUMPDEST PUSH2 0xE0E DUP5 DUP3 DUP6 PUSH2 0xDC5 JUMP JUMPDEST POP SWAP4 SWAP3 POP POP POP JUMP JUMPDEST PUSH1 0x0 DUP3 PUSH1 0x1F DUP4 ADD SLT PUSH2 0xE2B JUMPI PUSH2 0xE2A PUSH2 0xCFE JUMP JUMPDEST JUMPDEST DUP2 CALLDATALOAD PUSH2 0xE3B DUP5 DUP3 PUSH1 0x20 DUP7 ADD PUSH2 0xDD4 JUMP JUMPDEST SWAP2 POP POP SWAP3 SWAP2 POP POP JUMP JUMPDEST PUSH1 0x0 PUSH2 0xE4F DUP3 PUSH2 0xC3F JUMP JUMPDEST SWAP1 POP SWAP2 SWAP1 POP JUMP JUMPDEST PUSH2 0xE5F DUP2 PUSH2 0xE44 JUMP JUMPDEST DUP2 EQ PUSH2 0xE6A JUMPI PUSH1 0x0 DUP1 REVERT JUMPDEST POP JUMP JUMPDEST PUSH1 0x0 DUP2 CALLDATALOAD SWAP1 POP PUSH2 0xE7C DUP2 PUSH2 0xE56 JUMP JUMPDEST SWAP3 SWAP2 POP POP JUMP JUMPDEST PUSH2 0xE8B DUP2 PUSH2 0xCCA JUMP JUMPDEST DUP2 EQ PUSH2 0xE96 JUMPI PUSH1 0x0 DUP1 REVERT JUMPDEST POP JUMP JUMPDEST PUSH1 0x0 DUP2 CALLDATALOAD SWAP1 POP PUSH2 0xEA8 DUP2 PUSH2 0xE82 JUMP JUMPDEST SWAP3 SWAP2 POP POP JUMP JUMPDEST PUSH1 0x0 DUP1 PUSH1 0x0 PUSH1 0x60 DUP5 DUP7 SUB SLT ISZERO PUSH2 0xEC7 JUMPI PUSH2 0xEC6 PUSH2 0xC35 JUMP JUMPDEST JUMPDEST PUSH1 0x0 DUP5 ADD CALLDATALOAD PUSH8 0xFFFFFFFFFFFFFFFF DUP2 GT ISZERO PUSH2 0xEE5 JUMPI PUSH2 0xEE4 PUSH2 0xC3A JUMP JUMPDEST JUMPDEST PUSH2 0xEF1 DUP7 DUP3 DUP8 ADD PUSH2 0xE16 JUMP JUMPDEST SWAP4 POP POP PUSH1 0x20 PUSH2 0xF02 DUP7 DUP3 DUP8 ADD PUSH2 0xE6D JUMP JUMPDEST SWAP3 POP POP PUSH1 0x40 PUSH2 0xF13 DUP7 DUP3 DUP8 ADD PUSH2 0xE99 JUMP JUMPDEST SWAP2 POP POP SWAP3 POP SWAP3 POP SWAP3 JUMP JUMPDEST PUSH2 0xF26 DUP2 PUSH2 0xC5F JUMP JUMPDEST DUP3 MSTORE POP POP JUMP JUMPDEST PUSH1 0x0 PUSH1 0x20 DUP3 ADD SWAP1 POP PUSH2 0xF41 PUSH1 0x0 DUP4 ADD DUP5 PUSH2 0xF1D JUMP JUMPDEST SWAP3 SWAP2 POP POP JUMP JUMPDEST PUSH1 0x0 PUSH1 0x20 DUP3 DUP5 SUB SLT ISZERO PUSH2 0xF5D JUMPI PUSH2 0xF5C PUSH2 0xC35 JUMP JUMPDEST JUMPDEST PUSH1 0x0 PUSH2 0xF6B DUP5 DUP3 DUP6 ADD PUSH2 0xE99 JUMP JUMPDEST SWAP2 POP POP SWAP3 SWAP2 POP POP JUMP JUMPDEST PUSH1 0x0 DUP2 MLOAD SWAP1 POP SWAP2 SWAP1 POP JUMP JUMPDEST PUSH1 0x0 DUP3 DUP3 MSTORE PUSH1 0x20 DUP3 ADD SWAP1 POP SWAP3 SWAP2 POP POP JUMP JUMPDEST PUSH1 0x0 JUMPDEST DUP4 DUP2 LT ISZERO PUSH2 0xFAE JUMPI DUP1 DUP3 ADD MLOAD DUP2 DUP5 ADD MSTORE PUSH1 0x20 DUP2 ADD SWAP1 POP PUSH2 0xF93 JUMP JUMPDEST PUSH1 0x0 DUP5 DUP5 ADD MSTORE POP POP POP POP JUMP JUMPDEST PUSH1 0x0 PUSH2 0xFC5 DUP3 PUSH2 0xF74 JUMP JUMPDEST PUSH2 0xFCF DUP2 DUP6 PUSH2 0xF7F JUMP JUMPDEST SWAP4 POP PUSH2 0xFDF DUP2 DUP6 PUSH1 0x20 DUP7 ADD PUSH2 0xF90 JUMP JUMPDEST PUSH2 0xFE8 DUP2 PUSH2 0xD08 JUMP JUMPDEST DUP5 ADD SWAP2 POP POP SWAP3 SWAP2 POP POP JUMP JUMPDEST PUSH2 0xFFC DUP2 PUSH2 0xE44 JUMP JUMPDEST DUP3 MSTORE POP POP JUMP JUMPDEST PUSH1 0x0 DUP2 ISZERO ISZERO SWAP1 POP SWAP2 SWAP1 POP JUMP JUMPDEST PUSH2 0x1017 DUP2 PUSH2 0x1002 JUMP JUMPDEST DUP3 MSTORE POP POP JUMP JUMPDEST PUSH1 0x0 PUSH1 0xA0 DUP3 ADD SWAP1 POP DUP2 DUP2 SUB PUSH1 0x0 DUP4 ADD MSTORE PUSH2 0x1037 DUP2 DUP9 PUSH2 0xFBA JUMP JUMPDEST SWAP1 POP PUSH2 0x1046 PUSH1 0x20 DUP4 ADD DUP8 PUSH2 0xFF3 JUMP JUMPDEST PUSH2 0x1053 PUSH1 0x40 DUP4 ADD DUP7 PUSH2 0xCD4 JUMP JUMPDEST PUSH2 0x1060 PUSH1 0x60 DUP4 ADD DUP6 PUSH2 0x100E JUMP JUMPDEST PUSH2 0x106D PUSH1 0x80 DUP4 ADD DUP5 PUSH2 0xCD4 JUMP JUMPDEST SWAP7 SWAP6 POP POP POP POP POP POP JUMP JUMPDEST PUSH32 0x54696D65206C696D697420686173206578636565646564000000000000000000 PUSH1 0x0 DUP3 ADD MSTORE POP JUMP JUMPDEST PUSH1 0x0 PUSH2 0x10AD PUSH1 0x17 DUP4 PUSH2 0xF7F JUMP JUMPDEST SWAP2 POP PUSH2 0x10B8 DUP3 PUSH2 0x1077 JUMP JUMPDEST PUSH1 0x20 DUP3 ADD SWAP1 POP SWAP2 SWAP1 POP JUMP JUMPDEST PUSH1 0x0 PUSH1 0x20 DUP3 ADD SWAP1 POP DUP2 DUP2 SUB PUSH1 0x0 DUP4 ADD MSTORE PUSH2 0x10DC DUP2 PUSH2 0x10A0 JUMP JUMPDEST SWAP1 POP SWAP2 SWAP1 POP JUMP JUMPDEST PUSH32 0x4D696E696D756D20636F6E747269627574696F6E206973206E6F74206D657400 PUSH1 0x0 DUP3 ADD MSTORE POP JUMP JUMPDEST PUSH1 0x0 PUSH2 0x1119 PUSH1 0x1F DUP4 PUSH2 0xF7F JUMP JUMPDEST SWAP2 POP PUSH2 0x1124 DUP3 PUSH2 0x10E3 JUMP JUMPDEST PUSH1 0x20 DUP3 ADD SWAP1 POP SWAP2 SWAP1 POP JUMP JUMPDEST PUSH1 0x0 PUSH1 0x20 DUP3 ADD SWAP1 POP DUP2 DUP2 SUB PUSH1 0x0 DUP4 ADD MSTORE PUSH2 0x1148 DUP2 PUSH2 0x110C JUMP JUMPDEST SWAP1 POP SWAP2 SWAP1 POP JUMP JUMPDEST PUSH32 0x4E487B7100000000000000000000000000000000000000000000000000000000 PUSH1 0x0 MSTORE PUSH1 0x11 PUSH1 0x4 MSTORE PUSH1 0x24 PUSH1 0x0 REVERT JUMPDEST PUSH1 0x0 PUSH2 0x1189 DUP3 PUSH2 0xCCA JUMP JUMPDEST SWAP2 POP PUSH32 0xFFFFFFFFFFFFFFFFFFFFFFFFFFFFFFFFFFFFFFFFFFFFFFFFFFFFFFFFFFFFFFFF DUP3 SUB PUSH2 0x11BB JUMPI PUSH2 0x11BA PUSH2 0x114F JUMP JUMPDEST JUMPDEST PUSH1 0x1 DUP3 ADD SWAP1 POP SWAP2 SWAP1 POP JUMP JUMPDEST PUSH1 0x0 PUSH2 0x11D1 DUP3 PUSH2 0xCCA JUMP JUMPDEST SWAP2 POP PUSH2 0x11DC DUP4 PUSH2 0xCCA JUMP JUMPDEST SWAP3 POP DUP3 DUP3 ADD SWAP1 POP DUP1 DUP3 GT ISZERO PUSH2 0x11F4 JUMPI PUSH2 0x11F3 PUSH2 0x114F JUMP JUMPDEST JUMPDEST SWAP3 SWAP2 POP POP JUMP JUMPDEST PUSH32 0x4F6E6C79206D616E616765722063616E2061636365737320746869732066756E PUSH1 0x0 DUP3 ADD MSTORE PUSH32 0x6374696F6E000000000000000000000000000000000000000000000000000000 PUSH1 0x20 DUP3 ADD MSTORE POP JUMP JUMPDEST PUSH1 0x0 PUSH2 0x1256 PUSH1 0x25 DUP4 PUSH2 0xF7F JUMP JUMPDEST SWAP2 POP PUSH2 0x1261 DUP3 PUSH2 0x11FA JUMP JUMPDEST PUSH1 0x40 DUP3 ADD SWAP1 POP SWAP2 SWAP1 POP JUMP JUMPDEST PUSH1 0x0 PUSH1 0x20 DUP3 ADD SWAP1 POP DUP2 DUP2 SUB PUSH1 0x0 DUP4 ADD MSTORE PUSH2 0x1285 DUP2 PUSH2 0x1249 JUMP JUMPDEST SWAP1 POP SWAP2 SWAP1 POP JUMP JUMPDEST PUSH32 0x4E487B7100000000000000000000000000000000000000000000000000000000 PUSH1 0x0 MSTORE PUSH1 0x22 PUSH1 0x4 MSTORE PUSH1 0x24 PUSH1 0x0 REVERT JUMPDEST PUSH1 0x0 PUSH1 0x2 DUP3 DIV SWAP1 POP PUSH1 0x1 DUP3 AND DUP1 PUSH2 0x12D3 JUMPI PUSH1 0x7F DUP3 AND SWAP2 POP JUMPDEST PUSH1 0x20 DUP3 LT DUP2 SUB PUSH2 0x12E6 JUMPI PUSH2 0x12E5 PUSH2 0x128C JUMP JUMPDEST JUMPDEST POP SWAP2 SWAP1 POP JUMP JUMPDEST PUSH1 0x0 DUP2 SWAP1 POP DUP2 PUSH1 0x0 MSTORE PUSH1 0x20 PUSH1 0x0 KECCAK256 SWAP1 POP SWAP2 SWAP1 POP JUMP JUMPDEST PUSH1 0x0 PUSH1 0x20 PUSH1 0x1F DUP4 ADD DIV SWAP1 POP SWAP2 SWAP1 POP JUMP JUMPDEST PUSH1 0x0 DUP3 DUP3 SHL SWAP1 POP SWAP3 SWAP2 POP POP JUMP JUMPDEST PUSH1 0x0 PUSH1 0x8 DUP4 MUL PUSH2 0x134E PUSH32 0xFFFFFFFFFFFFFFFFFFFFFFFFFFFFFFFFFFFFFFFFFFFFFFFFFFFFFFFFFFFFFFFF DUP3 PUSH2 0x1311 JUMP JUMPDEST PUSH2 0x1358 DUP7 DUP4 PUSH2 0x1311 JUMP JUMPDEST SWAP6 POP DUP1 NOT DUP5 AND SWAP4 POP DUP1 DUP7 AND DUP5 OR SWAP3 POP POP POP SWAP4 SWAP3 POP POP POP JUMP JUMPDEST PUSH1 0x0 DUP2 SWAP1 POP SWAP2 SWAP1 POP JUMP JUMPDEST PUSH1 0x0 PUSH2 0x1395 PUSH2 0x1390 PUSH2 0x138B DUP5 PUSH2 0xCCA JUMP JUMPDEST PUSH2 0x1370 JUMP JUMPDEST PUSH2 0xCCA JUMP JUMPDEST SWAP1 POP SWAP2 SWAP1 POP JUMP JUMPDEST PUSH1 0x0 DUP2 SWAP1 POP SWAP2 SWAP1 POP JUMP JUMPDEST PUSH2 0x13AF DUP4 PUSH2 0x137A JUMP JUMPDEST PUSH2 0x13C3 PUSH2 0x13BB DUP3 PUSH2 0x139C JUMP JUMPDEST DUP5 DUP5 SLOAD PUSH2 0x131E JUMP JUMPDEST DUP3 SSTORE POP POP POP POP JUMP JUMPDEST PUSH1 0x0 SWAP1 JUMP JUMPDEST PUSH2 0x13D8 PUSH2 0x13CB JUMP JUMPDEST PUSH2 0x13E3 DUP2 DUP5 DUP5 PUSH2 0x13A6 JUMP JUMPDEST POP POP POP JUMP JUMPDEST JUMPDEST DUP2 DUP2 LT ISZERO PUSH2 0x1407 JUMPI PUSH2 0x13FC PUSH1 0x0 DUP3 PUSH2 0x13D0 JUMP JUMPDEST PUSH1 0x1 DUP2 ADD SWAP1 POP PUSH2 0x13E9 JUMP JUMPDEST POP POP JUMP JUMPDEST PUSH1 0x1F DUP3 GT ISZERO PUSH2 0x144C JUMPI PUSH2 0x141D DUP2 PUSH2 0x12EC JUMP JUMPDEST PUSH2 0x1426 DUP5 PUSH2 0x1301 JUMP JUMPDEST DUP2 ADD PUSH1 0x20 DUP6 LT ISZERO PUSH2 0x1435 JUMPI DUP2 SWAP1 POP JUMPDEST PUSH2 0x1449 PUSH2 0x1441 DUP6 PUSH2 0x1301 JUMP JUMPDEST DUP4 ADD DUP3 PUSH2 0x13E8 JUMP JUMPDEST POP POP JUMPDEST POP POP POP JUMP JUMPDEST PUSH1 0x0 DUP3 DUP3 SHR SWAP1 POP SWAP3 SWAP2 POP POP JUMP JUMPDEST PUSH1 0x0 PUSH2 0x146F PUSH1 0x0 NOT DUP5 PUSH1 0x8 MUL PUSH2 0x1451 JUMP JUMPDEST NOT DUP1 DUP4 AND SWAP2 POP POP SWAP3 SWAP2 POP POP JUMP JUMPDEST PUSH1 0x0 PUSH2 0x1488 DUP4 DUP4 PUSH2 0x145E JUMP JUMPDEST SWAP2 POP DUP3 PUSH1 0x2 MUL DUP3 OR SWAP1 POP SWAP3 SWAP2 POP POP JUMP JUMPDEST PUSH2 0x14A1 DUP3 PUSH2 0xF74 JUMP JUMPDEST PUSH8 0xFFFFFFFFFFFFFFFF DUP2 GT ISZERO PUSH2 0x14BA JUMPI PUSH2 0x14B9 PUSH2 0xD19 JUMP JUMPDEST JUMPDEST PUSH2 0x14C4 DUP3 SLOAD PUSH2 0x12BB JUMP JUMPDEST PUSH2 0x14CF DUP3 DUP3 DUP6 PUSH2 0x140B JUMP JUMPDEST PUSH1 0x0 PUSH1 0x20 SWAP1 POP PUSH1 0x1F DUP4 GT PUSH1 0x1 DUP2 EQ PUSH2 0x1502 JUMPI PUSH1 0x0 DUP5 ISZERO PUSH2 0x14F0 JUMPI DUP3 DUP8 ADD MLOAD SWAP1 POP JUMPDEST PUSH2 0x14FA DUP6 DUP3 PUSH2 0x147C JUMP JUMPDEST DUP7 SSTORE POP PUSH2 0x1562 JUMP JUMPDEST PUSH1 0x1F NOT DUP5 AND PUSH2 0x1510 DUP7 PUSH2 0x12EC JUMP JUMPDEST PUSH1 0x0 JUMPDEST DUP3 DUP2 LT ISZERO PUSH2 0x1538 JUMPI DUP5 DUP10 ADD MLOAD DUP3 SSTORE PUSH1 0x1 DUP3 ADD SWAP2 POP PUSH1 0x20 DUP6 ADD SWAP5 POP PUSH1 0x20 DUP2 ADD SWAP1 POP PUSH2 0x1513 JUMP JUMPDEST DUP7 DUP4 LT ISZERO PUSH2 0x1555 JUMPI DUP5 DUP10 ADD MLOAD PUSH2 0x1551 PUSH1 0x1F DUP10 AND DUP3 PUSH2 0x145E JUMP JUMPDEST DUP4 SSTORE POP JUMPDEST PUSH1 0x1 PUSH1 0x2 DUP9 MUL ADD DUP9 SSTORE POP POP POP JUMPDEST POP POP POP POP POP POP JUMP JUMPDEST PUSH32 0x596F75206D757374206265206120636F6E7472696275746F7200000000000000 PUSH1 0x0 DUP3 ADD MSTORE POP JUMP JUMPDEST PUSH1 0x0 PUSH2 0x15A0 PUSH1 0x19 DUP4 PUSH2 0xF7F JUMP JUMPDEST SWAP2 POP PUSH2 0x15AB DUP3 PUSH2 0x156A JUMP JUMPDEST PUSH1 0x20 DUP3 ADD SWAP1 POP SWAP2 SWAP1 POP JUMP JUMPDEST PUSH1 0x0 PUSH1 0x20 DUP3 ADD SWAP1 POP DUP2 DUP2 SUB PUSH1 0x0 DUP4 ADD MSTORE PUSH2 0x15CF DUP2 PUSH2 0x1593 JUMP JUMPDEST SWAP1 POP SWAP2 SWAP1 POP JUMP JUMPDEST PUSH32 0x596F75206861766520616C726561647920766F74656400000000000000000000 PUSH1 0x0 DUP3 ADD MSTORE POP JUMP JUMPDEST PUSH1 0x0 PUSH2 0x160C PUSH1 0x16 DUP4 PUSH2 0xF7F JUMP JUMPDEST SWAP2 POP PUSH2 0x1617 DUP3 PUSH2 0x15D6 JUMP JUMPDEST PUSH1 0x20 DUP3 ADD SWAP1 POP SWAP2 SWAP1 POP JUMP JUMPDEST PUSH1 0x0 PUSH1 0x20 DUP3 ADD SWAP1 POP DUP2 DUP2 SUB PUSH1 0x0 DUP4 ADD MSTORE PUSH2 0x163B DUP2 PUSH2 0x15FF JUMP JUMPDEST SWAP1 POP SWAP2 SWAP1 POP JUMP JUMPDEST PUSH32 0x746865207265717565737420686173206265656E20636F6D706C657465640000 PUSH1 0x0 DUP3 ADD MSTORE POP JUMP JUMPDEST PUSH1 0x0 PUSH2 0x1678 PUSH1 0x1E DUP4 PUSH2 0xF7F JUMP JUMPDEST SWAP2 POP PUSH2 0x1683 DUP3 PUSH2 0x1642 JUMP JUMPDEST PUSH1 0x20 DUP3 ADD SWAP1 POP SWAP2 SWAP1 POP JUMP JUMPDEST PUSH1 0x0 PUSH1 0x20 DUP3 ADD SWAP1 POP DUP2 DUP2 SUB PUSH1 0x0 DUP4 ADD MSTORE PUSH2 0x16A7 DUP2 PUSH2 0x166B JUMP JUMPDEST SWAP1 POP SWAP2 SWAP1 POP JUMP JUMPDEST PUSH32 0x4E487B7100000000000000000000000000000000000000000000000000000000 PUSH1 0x0 MSTORE PUSH1 0x12 PUSH1 0x4 MSTORE PUSH1 0x24 PUSH1 0x0 REVERT JUMPDEST PUSH1 0x0 PUSH2 0x16E8 DUP3 PUSH2 0xCCA JUMP JUMPDEST SWAP2 POP PUSH2 0x16F3 DUP4 PUSH2 0xCCA JUMP JUMPDEST SWAP3 POP DUP3 PUSH2 0x1703 JUMPI PUSH2 0x1702 PUSH2 0x16AE JUMP JUMPDEST JUMPDEST DUP3 DUP3 DIV SWAP1 POP SWAP3 SWAP2 POP POP JUMP JUMPDEST PUSH32 0x6D616A6F7269747920646F6573206E6F7420737570706F727400000000000000 PUSH1 0x0 DUP3 ADD MSTORE POP JUMP JUMPDEST PUSH1 0x0 PUSH2 0x1744 PUSH1 0x19 DUP4 PUSH2 0xF7F JUMP JUMPDEST SWAP2 POP PUSH2 0x174F DUP3 PUSH2 0x170E JUMP JUMPDEST PUSH1 0x20 DUP3 ADD SWAP1 POP SWAP2 SWAP1 POP JUMP JUMPDEST PUSH1 0x0 PUSH1 0x20 DUP3 ADD SWAP1 POP DUP2 DUP2 SUB PUSH1 0x0 DUP4 ADD MSTORE PUSH2 0x1773 DUP2 PUSH2 0x1737 JUMP JUMPDEST SWAP1 POP SWAP2 SWAP1 POP JUMP INVALID LOG2 PUSH5 0x6970667358 0x22 SLT KECCAK256 0xE8 0x2C ADDRESS 0x1E CODESIZE PUSH30 0x88C43D6C720E48D718CA3BE046A002436C15ACCE2F972BDB645764736F6C PUSH4 0x43000813 STOP CALLER "
				},
				"gasEstimates": {
					"creation": {
						"codeDepositCost": "1212800",
						"executionCost": "infinite",
						"totalCost": "infinite"
					},
					"external": {
						"contributors(address)": "2860",
						"createRequests(string,address,uint256)": "infinite",
						"deadline()": "2497",
						"getContractBalance()": "384",
						"makePayment(uint256)": "infinite",
						"manager()": "2581",
						"minimumContribution()": "2518",
						"noofContributors()": "2452",
						"numRequests()": "2451",
						"raisedAmount()": "2473",
						"refundMoney()": "infinite",
						"requests(uint256)": "infinite",
						"sendEth()": "infinite",
						"target()": "2495",
						"voteRequest(uint256)": "infinite"
					}
				},
				"methodIdentifiers": {
					"contributors(address)": "1f6d4942",
					"createRequests(string,address,uint256)": "3eb7647b",
					"deadline()": "29dcb0cf",
					"getContractBalance()": "6f9fb98a",
					"makePayment(uint256)": "5114cb52",
					"manager()": "481c6a75",
					"minimumContribution()": "937e09b1",
					"noofContributors()": "39cb69fc",
					"numRequests()": "9fb42b1f",
					"raisedAmount()": "c59ee1dc",
					"refundMoney()": "ea31db13",
					"requests(uint256)": "81d12c58",
					"sendEth()": "06e99fef",
					"target()": "d4b83992",
					"voteRequest(uint256)": "4cb6f4a5"
				}
			},
			"storageLayout": {
				"storage": [
					{
						"astId": 5,
						"contract": "crowdfunding/Funding.sol:funding",
						"label": "contributors",
						"offset": 0,
						"slot": "0",
						"type": "t_mapping(t_address,t_uint256)"
					},
					{
						"astId": 7,
						"contract": "crowdfunding/Funding.sol:funding",
						"label": "manager",
						"offset": 0,
						"slot": "1",
						"type": "t_address"
					},
					{
						"astId": 9,
						"contract": "crowdfunding/Funding.sol:funding",
						"label": "minimumContribution",
						"offset": 0,
						"slot": "2",
						"type": "t_uint256"
					},
					{
						"astId": 11,
						"contract": "crowdfunding/Funding.sol:funding",
						"label": "deadline",
						"offset": 0,
						"slot": "3",
						"type": "t_uint256"
					},
					{
						"astId": 13,
						"contract": "crowdfunding/Funding.sol:funding",
						"label": "target",
						"offset": 0,
						"slot": "4",
						"type": "t_uint256"
					},
					{
						"astId": 15,
						"contract": "crowdfunding/Funding.sol:funding",
						"label": "raisedAmount",
						"offset": 0,
						"slot": "5",
						"type": "t_uint256"
					},
					{
						"astId": 17,
						"contract": "crowdfunding/Funding.sol:funding",
						"label": "noofContributors",
						"offset": 0,
						"slot": "6",
						"type": "t_uint256"
					},
					{
						"astId": 37,
						"contract": "crowdfunding/Funding.sol:funding",
						"label": "requests",
						"offset": 0,
						"slot": "7",
						"type": "t_mapping(t_uint256,t_struct(Request)32_storage)"
					},
					{
						"astId": 39,
						"contract": "crowdfunding/Funding.sol:funding",
						"label": "numRequests",
						"offset": 0,
						"slot": "8",
						"type": "t_uint256"
					}
				],
				"types": {
					"t_address": {
						"encoding": "inplace",
						"label": "address",
						"numberOfBytes": "20"
					},
					"t_address_payable": {
						"encoding": "inplace",
						"label": "address payable",
						"numberOfBytes": "20"
					},
					"t_bool": {
						"encoding": "inplace",
						"label": "bool",
						"numberOfBytes": "1"
					},
					"t_mapping(t_address,t_bool)": {
						"encoding": "mapping",
						"key": "t_address",
						"label": "mapping(address => bool)",
						"numberOfBytes": "32",
						"value": "t_bool"
					},
					"t_mapping(t_address,t_uint256)": {
						"encoding": "mapping",
						"key": "t_address",
						"label": "mapping(address => uint256)",
						"numberOfBytes": "32",
						"value": "t_uint256"
					},
					"t_mapping(t_uint256,t_struct(Request)32_storage)": {
						"encoding": "mapping",
						"key": "t_uint256",
						"label": "mapping(uint256 => struct funding.Request)",
						"numberOfBytes": "32",
						"value": "t_struct(Request)32_storage"
					},
					"t_string_storage": {
						"encoding": "bytes",
						"label": "string",
						"numberOfBytes": "32"
					},
					"t_struct(Request)32_storage": {
						"encoding": "inplace",
						"label": "struct funding.Request",
						"members": [
							{
								"astId": 19,
								"contract": "crowdfunding/Funding.sol:funding",
								"label": "description",
								"offset": 0,
								"slot": "0",
								"type": "t_string_storage"
							},
							{
								"astId": 21,
								"contract": "crowdfunding/Funding.sol:funding",
								"label": "recipient",
								"offset": 0,
								"slot": "1",
								"type": "t_address_payable"
							},
							{
								"astId": 23,
								"contract": "crowdfunding/Funding.sol:funding",
								"label": "value",
								"offset": 0,
								"slot": "2",
								"type": "t_uint256"
							},
							{
								"astId": 25,
								"contract": "crowdfunding/Funding.sol:funding",
								"label": "completed",
								"offset": 0,
								"slot": "3",
								"type": "t_bool"
							},
							{
								"astId": 27,
								"contract": "crowdfunding/Funding.sol:funding",
								"label": "noOfVote",
								"offset": 0,
								"slot": "4",
								"type": "t_uint256"
							},
							{
								"astId": 31,
								"contract": "crowdfunding/Funding.sol:funding",
								"label": "voters",
								"offset": 0,
								"slot": "5",
								"type": "t_mapping(t_address,t_bool)"
							}
						],
						"numberOfBytes": "192"
					},
					"t_uint256": {
						"encoding": "inplace",
						"label": "uint256",
						"numberOfBytes": "32"
					}
				}
			},
			"userdoc": {
				"kind": "user",
				"methods": {},
				"version": 1
			}
		}
	}
}